{
  "_format": "hh-sol-artifact-1",
  "contractName": "HintHelpers",
  "sourceName": "contracts/HintHelpers.sol",
  "abi": [
    {
      "anonymous": false,
      "inputs": [
        {
          "indexed": true,
          "internalType": "address",
          "name": "previousOwner",
          "type": "address"
        },
        {
          "indexed": true,
          "internalType": "address",
          "name": "newOwner",
          "type": "address"
        }
      ],
      "name": "OwnershipTransferred",
      "type": "event"
    },
    {
      "anonymous": false,
      "inputs": [
        {
          "indexed": false,
          "internalType": "address",
          "name": "_sortedTrovesAddress",
          "type": "address"
        }
      ],
      "name": "SortedTrovesAddressChanged",
      "type": "event"
    },
    {
      "anonymous": false,
      "inputs": [
        {
          "indexed": false,
          "internalType": "address",
          "name": "_troveManagerAddress",
          "type": "address"
        }
      ],
      "name": "TroveManagerAddressChanged",
      "type": "event"
    },
    {
      "inputs": [],
      "name": "DECIMAL_PRECISION",
      "outputs": [
        {
          "internalType": "uint256",
          "name": "",
          "type": "uint256"
        }
      ],
      "stateMutability": "view",
      "type": "function"
    },
    {
      "inputs": [],
      "name": "NAME",
      "outputs": [
        {
          "internalType": "string",
          "name": "",
          "type": "string"
        }
      ],
      "stateMutability": "view",
      "type": "function"
    },
    {
      "inputs": [],
      "name": "PERCENT_DIVISOR",
      "outputs": [
        {
          "internalType": "uint256",
          "name": "",
          "type": "uint256"
        }
      ],
      "stateMutability": "view",
      "type": "function"
    },
    {
      "inputs": [],
      "name": "_100pct",
      "outputs": [
        {
          "internalType": "uint256",
          "name": "",
          "type": "uint256"
        }
      ],
      "stateMutability": "view",
      "type": "function"
    },
    {
      "inputs": [],
      "name": "activePool",
      "outputs": [
        {
          "internalType": "contract IActivePool",
          "name": "",
          "type": "address"
        }
      ],
      "stateMutability": "view",
      "type": "function"
    },
    {
      "inputs": [
        {
          "internalType": "uint256",
          "name": "_coll",
          "type": "uint256"
        },
        {
          "internalType": "uint256",
          "name": "_debt",
          "type": "uint256"
        },
        {
          "internalType": "uint256",
          "name": "_price",
          "type": "uint256"
        }
      ],
      "name": "computeCR",
      "outputs": [
        {
          "internalType": "uint256",
          "name": "",
          "type": "uint256"
        }
      ],
      "stateMutability": "pure",
      "type": "function"
    },
    {
      "inputs": [
        {
          "internalType": "uint256",
          "name": "_coll",
          "type": "uint256"
        },
        {
          "internalType": "uint256",
          "name": "_debt",
          "type": "uint256"
        }
      ],
      "name": "computeNominalCR",
      "outputs": [
        {
          "internalType": "uint256",
          "name": "",
          "type": "uint256"
        }
      ],
      "stateMutability": "pure",
      "type": "function"
    },
    {
      "inputs": [],
      "name": "defaultPool",
      "outputs": [
        {
          "internalType": "contract IDefaultPool",
          "name": "",
          "type": "address"
        }
      ],
      "stateMutability": "view",
      "type": "function"
    },
    {
      "inputs": [
        {
          "internalType": "uint256",
          "name": "_CR",
          "type": "uint256"
        },
        {
          "internalType": "uint256",
          "name": "_numTrials",
          "type": "uint256"
        },
        {
          "internalType": "uint256",
          "name": "_inputRandomSeed",
          "type": "uint256"
        }
      ],
      "name": "getApproxHint",
      "outputs": [
        {
          "internalType": "address",
          "name": "hintAddress",
          "type": "address"
        },
        {
          "internalType": "uint256",
          "name": "diff",
          "type": "uint256"
        },
        {
          "internalType": "uint256",
          "name": "latestRandomSeed",
          "type": "uint256"
        }
      ],
      "stateMutability": "view",
      "type": "function"
    },
    {
      "inputs": [],
      "name": "getEntireSystemColl",
      "outputs": [
        {
          "internalType": "uint256",
          "name": "entireSystemColl",
          "type": "uint256"
        }
      ],
      "stateMutability": "view",
      "type": "function"
    },
    {
      "inputs": [],
      "name": "getEntireSystemDebt",
      "outputs": [
        {
          "internalType": "uint256",
          "name": "entireSystemDebt",
          "type": "uint256"
        }
      ],
      "stateMutability": "view",
      "type": "function"
    },
    {
      "inputs": [
        {
          "internalType": "uint256",
          "name": "_LUSDamount",
          "type": "uint256"
        },
        {
          "internalType": "uint256",
          "name": "_price",
          "type": "uint256"
        },
        {
          "internalType": "uint256",
          "name": "_maxIterations",
          "type": "uint256"
        }
      ],
      "name": "getRedemptionHints",
      "outputs": [
        {
          "internalType": "address",
          "name": "firstRedemptionHint",
          "type": "address"
        },
        {
          "internalType": "uint256",
          "name": "partialRedemptionHintNICR",
          "type": "uint256"
        },
        {
          "internalType": "uint256",
          "name": "truncatedLUSDamount",
          "type": "uint256"
        }
      ],
      "stateMutability": "view",
      "type": "function"
    },
    {
      "inputs": [],
      "name": "isOwner",
      "outputs": [
        {
          "internalType": "bool",
          "name": "",
          "type": "bool"
        }
      ],
      "stateMutability": "view",
      "type": "function"
    },
    {
      "inputs": [],
      "name": "owner",
      "outputs": [
        {
          "internalType": "address",
          "name": "",
          "type": "address"
        }
      ],
      "stateMutability": "view",
      "type": "function"
    },
    {
      "inputs": [],
      "name": "priceFeed",
      "outputs": [
        {
          "internalType": "contract IPriceFeed",
          "name": "",
          "type": "address"
        }
      ],
      "stateMutability": "view",
      "type": "function"
    },
    {
      "inputs": [
        {
          "internalType": "address",
          "name": "_sortedTrovesAddress",
          "type": "address"
        },
        {
          "internalType": "address",
          "name": "_troveManagerAddress",
          "type": "address"
        },
        {
          "internalType": "address",
          "name": "_systemStateAddress",
          "type": "address"
        }
      ],
      "name": "setAddresses",
      "outputs": [],
      "stateMutability": "nonpayable",
      "type": "function"
    },
    {
      "inputs": [],
      "name": "sortedTroves",
      "outputs": [
        {
          "internalType": "contract ISortedTroves",
          "name": "",
          "type": "address"
        }
      ],
      "stateMutability": "view",
      "type": "function"
    },
    {
      "inputs": [],
      "name": "systemState",
      "outputs": [
        {
          "internalType": "contract ISystemState",
          "name": "",
          "type": "address"
        }
      ],
      "stateMutability": "view",
      "type": "function"
    },
    {
      "inputs": [],
      "name": "timeLock",
      "outputs": [
        {
          "internalType": "address",
          "name": "",
          "type": "address"
        }
      ],
      "stateMutability": "view",
      "type": "function"
    },
    {
      "inputs": [],
      "name": "troveManager",
      "outputs": [
        {
          "internalType": "contract ITroveManager",
          "name": "",
          "type": "address"
        }
      ],
      "stateMutability": "view",
      "type": "function"
    }
  ],
  "bytecode": "0x608060405234801561001057600080fd5b50600580546001600160a01b031916339081179091556040516000907f8be0079c531659141344cd1fd0a4f28419497f9722a3daafe3b4186f6b6457e0908290a3611587806100606000396000f3fe608060405234801561001057600080fd5b50600436106100fc5760003560e01c806313144dba14610101578063363bf964146101525780633cc742251461018c5780633d83908a146101b05780634870dd9a146101b8578063525acdbb146101d257806372fe25aa146101fb578063741bef1a14610203578063795d26c31461020b5780637b41bdbe146102135780637f7dde4a1461023c578063887105d3146102445780638da5cb5b1461024c5780638f32d59b14610254578063991292e314610270578063a20baee6146101fb578063a3f4df7e14610278578063ae918754146102f5578063c394a7fa146102fd578063d085835a14610320575b600080fd5b61012a6004803603606081101561011757600080fd5b5080359060208101359060400135610328565b604080516001600160a01b039094168452602084019290925282820152519081900360600190f35b61018a6004803603606081101561016857600080fd5b506001600160a01b038135811691602081013582169160409091013516610987565b005b610194610aa8565b604080516001600160a01b039092168252519081900360200190f35b610194610ab7565b6101c0610ac6565b60408051918252519081900360200190f35b6101c0600480360360608110156101e857600080fd5b5080359060208101359060400135610acb565b6101c0610ae2565b610194610aee565b6101c0610afd565b61012a6004803603606081101561022957600080fd5b5080359060208101359060400135610c0a565b610194610f27565b6101c0610f36565b610194610ffe565b61025c61100d565b604080519115158252519081900360200190f35b61019461101e565b61028061102d565b6040805160208082528351818301528351919283929083019185019080838360005b838110156102ba5781810151838201526020016102a2565b50505050905090810190601f1680156102e75780820380516001836020036101000a031916815260200191505b509250505060405180910390f35b610194611054565b6101c06004803603604081101561031357600080fd5b5080359060200135611063565b610194611078565b60065460408051634d62283160e01b81529051600092839283926001600160a01b0390921691889184918491634d622831916004808301926020929190829003018186803b15801561037957600080fd5b505afa15801561038d573d6000803e3d6000fd5b505050506040513d60208110156103a357600080fd5b5051600480546040805163044936b160e41b815290519394506000936001600160a01b03909216926344936b10928282019260209290829003018186803b1580156103ed57600080fd5b505afa158015610401573d6000803e3d6000fd5b505050506040513d602081101561041757600080fd5b505190505b6001600160a01b038216158015906104b4575060075460408051630d293c7160e41b81526001600160a01b038581166004830152602482018d905291518493929092169163d293c71091604480820192602092909190829003018186803b15801561048657600080fd5b505afa15801561049a573d6000803e3d6000fd5b505050506040513d60208110156104b057600080fd5b5051105b1561054257836001600160a01b031663b72703ac836040518263ffffffff1660e01b815260040180826001600160a01b03166001600160a01b0316815260200191505060206040518083038186803b15801561050f57600080fd5b505afa158015610523573d6000803e3d6000fd5b505050506040513d602081101561053957600080fd5b5051915061041c565b81965087600014156105545760001997505b6001600160a01b0382161580159061056c5750600083115b801561057c575060001988019715155b1561096857600754604080516379a4316f60e11b81526001600160a01b038581166004830152915160009361068d93169163f34862de916024808301926020929190829003018186803b1580156105d257600080fd5b505afa1580156105e6573d6000803e3d6000fd5b505050506040513d60208110156105fc57600080fd5b50516007546040805163d66a255360e01b81526001600160a01b038881166004830152915161068193929092169163d66a255391602480820192602092909190829003018186803b15801561065057600080fd5b505afa158015610664573d6000803e3d6000fd5b505050506040513d602081101561067a57600080fd5b5051611087565b9063ffffffff61110916565b9050838111156108cb576000600460009054906101000a90046001600160a01b03166001600160a01b031663c4dc70d36040518163ffffffff1660e01b815260040160206040518083038186803b1580156106e757600080fd5b505afa1580156106fb573d6000803e3d6000fd5b505050506040513d602081101561071157600080fd5b50519050808211156108c457600061073886610733858563ffffffff61116116565b6111a3565b60075460408051635d8c960960e01b81526001600160a01b0389811660048301529151939450600093610841939290921691635d8c960991602480820192602092909190829003018186803b15801561079057600080fd5b505afa1580156107a4573d6000803e3d6000fd5b505050506040513d60208110156107ba57600080fd5b5051600754604080516309019aaf60e31b81526001600160a01b038b811660048301529151919092169163480cd578916024808301926020929190829003018186803b15801561080957600080fd5b505afa15801561081d573d6000803e3d6000fd5b505050506040513d602081101561083357600080fd5b50519063ffffffff61110916565b9050600061087d6108708f61086486670de0b6b3a764000063ffffffff6111b916565b9063ffffffff61121216565b839063ffffffff61116116565b90506000610891868563ffffffff61116116565b9050600061089e82611251565b90506108aa83826112d3565b9c506108bc8a8663ffffffff61116116565b995050505050505b5050610968565b6108db848263ffffffff61116116565b9350846001600160a01b031663b72703ac846040518263ffffffff1660e01b815260040180826001600160a01b03166001600160a01b0316815260200191505060206040518083038186803b15801561093357600080fd5b505afa158015610947573d6000803e3d6000fd5b505050506040513d602081101561095d57600080fd5b505192506105549050565b6109788a8463ffffffff61116116565b94505050505093509350939050565b61098f61100d565b6109e0576040805162461bcd60e51b815260206004820181905260248201527f4f776e61626c653a2063616c6c6572206973206e6f7420746865206f776e6572604482015290519081900360640190fd5b6109e983611308565b6109f282611308565b600680546001600160a01b038086166001600160a01b0319928316811790935560078054868316908416179055600480549185169190921617905560408051918252517f65f4cf077bc01e4742eb5ad98326f6e95b63548ea24b17f8d5e823111fe788009181900360200190a1604080516001600160a01b038416815290517f143219c9e69b09e07e095fcc889b43d8f46ca892bba65f08dc3a0050869a56789181900360200190a1610aa361138b565b505050565b6002546001600160a01b031681565b6007546001600160a01b031681565b60c881565b6000610ad88484846113d5565b90505b9392505050565b670de0b6b3a764000081565b6003546001600160a01b031681565b600080600160009054906101000a90046001600160a01b03166001600160a01b0316635eb52fca6040518163ffffffff1660e01b815260040160206040518083038186803b158015610b4e57600080fd5b505afa158015610b62573d6000803e3d6000fd5b505050506040513d6020811015610b7857600080fd5b505160025460408051632f5a97e560e11b815290519293506000926001600160a01b0390921691635eb52fca91600480820192602092909190829003018186803b158015610bc557600080fd5b505afa158015610bd9573d6000803e3d6000fd5b505050506040513d6020811015610bef57600080fd5b50519050610c03828263ffffffff61110916565b9250505090565b600080600080600760009054906101000a90046001600160a01b03166001600160a01b03166349eefeee6040518163ffffffff1660e01b815260040160206040518083038186803b158015610c5e57600080fd5b505afa158015610c72573d6000803e3d6000fd5b505050506040513d6020811015610c8857600080fd5b5051905080610ca1575060009250829150839050610f1e565b600660009054906101000a90046001600160a01b03166001600160a01b0316634d6228316040518163ffffffff1660e01b815260040160206040518083038186803b158015610cef57600080fd5b505afa158015610d03573d6000803e3d6000fd5b505050506040513d6020811015610d1957600080fd5b50516007546040805163b0d8e18160e01b81526001600160a01b0380851660048301529151939750610da3938b93929092169163b0d8e18191602480820192602092909190829003018186803b158015610d7257600080fd5b505afa158015610d86573d6000803e3d6000fd5b505050506040513d6020811015610d9c57600080fd5b5051611405565b925084915060015b86811015610f1b57604080516020808201959095528151808203860181529082019091528051930192909220916000828481610de357fe5b0690506000600760009054906101000a90046001600160a01b03166001600160a01b031663d9a72444836040518263ffffffff1660e01b81526004018082815260200191505060206040518083038186803b158015610e4157600080fd5b505afa158015610e55573d6000803e3d6000fd5b505050506040513d6020811015610e6b57600080fd5b50516007546040805163b0d8e18160e01b81526001600160a01b0380851660048301529151939450600093919092169163b0d8e181916024808301926020929190829003018186803b158015610ec057600080fd5b505afa158015610ed4573d6000803e3d6000fd5b505050506040513d6020811015610eea57600080fd5b505190506000610efa828d611405565b905087811015610f0b578097508298505b505060019092019150610dab9050565b50505b93509350939050565b6001546001600160a01b031681565b600080600160009054906101000a90046001600160a01b03166001600160a01b03166314f6c3be6040518163ffffffff1660e01b815260040160206040518083038186803b158015610f8757600080fd5b505afa158015610f9b573d6000803e3d6000fd5b505050506040513d6020811015610fb157600080fd5b505160025460408051630a7b61df60e11b815290519293506000926001600160a01b03909216916314f6c3be91600480820192602092909190829003018186803b158015610bc557600080fd5b6005546001600160a01b031690565b6005546001600160a01b0316331490565b6004546001600160a01b031681565b6040518060400160405280600b81526020016a48696e7448656c7065727360a81b81525081565b6006546001600160a01b031681565b600061106f83836112d3565b90505b92915050565b6000546001600160a01b031681565b6004805460408051631aa40bc960e31b8152905160009384936001600160a01b03169263d5205e489281830192602092829003018186803b1580156110cb57600080fd5b505afa1580156110df573d6000803e3d6000fd5b505050506040513d60208110156110f557600080fd5b50519050610adb838263ffffffff61116116565b60008282018381101561106f576040805162461bcd60e51b815260206004820152601b60248201527a536166654d6174683a206164646974696f6e206f766572666c6f7760281b604482015290519081900360640190fd5b600061106f83836040518060400160405280601e81526020017f536166654d6174683a207375627472616374696f6e206f766572666c6f770000815250611434565b60008183106111b2578161106f565b5090919050565b6000826111c857506000611072565b828202828482816111d557fe5b041461106f5760405162461bcd60e51b81526004018080602001828103825260218152602001806115316021913960400191505060405180910390fd5b600061106f83836040518060400160405280601a815260200179536166654d6174683a206469766973696f6e206279207a65726f60301b8152506114cb565b6004805460408051631aa40bc960e31b8152905160009384936001600160a01b03169263d5205e489281830192602092829003018186803b15801561129557600080fd5b505afa1580156112a9573d6000803e3d6000fd5b505050506040513d60208110156112bf57600080fd5b50519050610adb838263ffffffff61110916565b600081156112ff576112f8826108648568056bc75e2d6310000063ffffffff6111b916565b9050611072565b50600019611072565b6001600160a01b03811661134b576040805162461bcd60e51b81526020600482015260056024820152641830b2323960d91b604482015290519081900360640190fd5b803b80611387576040805162461bcd60e51b815260206004820152600560248201526430636f646560d81b604482015290519081900360640190fd5b5050565b6005546040516000916001600160a01b0316907f8be0079c531659141344cd1fd0a4f28419497f9722a3daafe3b4186f6b6457e0908390a3600580546001600160a01b0319169055565b600082156113fc5760006113f384610864878663ffffffff6111b916565b9150610adb9050565b50600019610adb565b6000818310156114245761141f828463ffffffff61116116565b61106f565b61106f838363ffffffff61116116565b600081848411156114c35760405162461bcd60e51b81526004018080602001828103825283818151815260200191508051906020019080838360005b83811015611488578181015183820152602001611470565b50505050905090810190601f1680156114b55780820380516001836020036101000a031916815260200191505b509250505060405180910390fd5b505050900390565b6000818361151a5760405162461bcd60e51b8152602060048201818152835160248401528351909283926044909101919085019080838360008315611488578181015183820152602001611470565b50600083858161152657fe5b049594505050505056fe536166654d6174683a206d756c7469706c69636174696f6e206f766572666c6f77a2646970667358221220b0aa9eb8f3cda6d07d4bbab97e3e661b543923175ce84c94637c15ce56f94c4064736f6c634300060b0033",
  "linkReferences": {},
  "deployedLinkReferences": {}
}