{
  "_format": "hh-sol-artifact-1",
  "contractName": "LQTYToken",
  "sourceName": "contracts/LQTY/LQTYToken.sol",
  "abi": [
    {
      "inputs": [
        {
          "internalType": "address",
          "name": "_lqtyStakingAddress",
          "type": "address"
        },
        {
          "internalType": "address",
          "name": "_vaultAddress",
          "type": "address"
        },
        {
          "internalType": "uint256",
          "name": "_mintAmount",
          "type": "uint256"
        }
      ],
      "stateMutability": "nonpayable",
      "type": "constructor"
    },
    {
      "anonymous": false,
      "inputs": [
        {
          "indexed": true,
          "internalType": "address",
          "name": "owner",
          "type": "address"
        },
        {
          "indexed": true,
          "internalType": "address",
          "name": "spender",
          "type": "address"
        },
        {
          "indexed": false,
          "internalType": "uint256",
          "name": "value",
          "type": "uint256"
        }
      ],
      "name": "Approval",
      "type": "event"
    },
    {
      "anonymous": false,
      "inputs": [
        {
          "indexed": false,
          "internalType": "address",
          "name": "_communityIssuanceAddress",
          "type": "address"
        }
      ],
      "name": "CommunityIssuanceAddressSet",
      "type": "event"
    },
    {
      "anonymous": false,
      "inputs": [
        {
          "indexed": false,
          "internalType": "address",
          "name": "_lqtyStakingAddress",
          "type": "address"
        }
      ],
      "name": "LQTYStakingAddressSet",
      "type": "event"
    },
    {
      "anonymous": false,
      "inputs": [
        {
          "indexed": true,
          "internalType": "address",
          "name": "from",
          "type": "address"
        },
        {
          "indexed": true,
          "internalType": "address",
          "name": "to",
          "type": "address"
        },
        {
          "indexed": false,
          "internalType": "uint256",
          "name": "value",
          "type": "uint256"
        }
      ],
      "name": "Transfer",
      "type": "event"
    },
    {
      "inputs": [
        {
          "internalType": "address",
          "name": "owner",
          "type": "address"
        },
        {
          "internalType": "address",
          "name": "spender",
          "type": "address"
        }
      ],
      "name": "allowance",
      "outputs": [
        {
          "internalType": "uint256",
          "name": "",
          "type": "uint256"
        }
      ],
      "stateMutability": "view",
      "type": "function"
    },
    {
      "inputs": [
        {
          "internalType": "address",
          "name": "spender",
          "type": "address"
        },
        {
          "internalType": "uint256",
          "name": "amount",
          "type": "uint256"
        }
      ],
      "name": "approve",
      "outputs": [
        {
          "internalType": "bool",
          "name": "",
          "type": "bool"
        }
      ],
      "stateMutability": "nonpayable",
      "type": "function"
    },
    {
      "inputs": [
        {
          "internalType": "address",
          "name": "account",
          "type": "address"
        }
      ],
      "name": "balanceOf",
      "outputs": [
        {
          "internalType": "uint256",
          "name": "",
          "type": "uint256"
        }
      ],
      "stateMutability": "view",
      "type": "function"
    },
    {
      "inputs": [],
      "name": "decimals",
      "outputs": [
        {
          "internalType": "uint8",
          "name": "",
          "type": "uint8"
        }
      ],
      "stateMutability": "view",
      "type": "function"
    },
    {
      "inputs": [
        {
          "internalType": "address",
          "name": "spender",
          "type": "address"
        },
        {
          "internalType": "uint256",
          "name": "subtractedValue",
          "type": "uint256"
        }
      ],
      "name": "decreaseAllowance",
      "outputs": [
        {
          "internalType": "bool",
          "name": "",
          "type": "bool"
        }
      ],
      "stateMutability": "nonpayable",
      "type": "function"
    },
    {
      "inputs": [],
      "name": "domainSeparator",
      "outputs": [
        {
          "internalType": "bytes32",
          "name": "",
          "type": "bytes32"
        }
      ],
      "stateMutability": "view",
      "type": "function"
    },
    {
      "inputs": [],
      "name": "getDeploymentStartTime",
      "outputs": [
        {
          "internalType": "uint256",
          "name": "",
          "type": "uint256"
        }
      ],
      "stateMutability": "view",
      "type": "function"
    },
    {
      "inputs": [
        {
          "internalType": "address",
          "name": "spender",
          "type": "address"
        },
        {
          "internalType": "uint256",
          "name": "addedValue",
          "type": "uint256"
        }
      ],
      "name": "increaseAllowance",
      "outputs": [
        {
          "internalType": "bool",
          "name": "",
          "type": "bool"
        }
      ],
      "stateMutability": "nonpayable",
      "type": "function"
    },
    {
      "inputs": [],
      "name": "lqtyStakingAddress",
      "outputs": [
        {
          "internalType": "address",
          "name": "",
          "type": "address"
        }
      ],
      "stateMutability": "view",
      "type": "function"
    },
    {
      "inputs": [],
      "name": "name",
      "outputs": [
        {
          "internalType": "string",
          "name": "",
          "type": "string"
        }
      ],
      "stateMutability": "view",
      "type": "function"
    },
    {
      "inputs": [
        {
          "internalType": "address",
          "name": "owner",
          "type": "address"
        }
      ],
      "name": "nonces",
      "outputs": [
        {
          "internalType": "uint256",
          "name": "",
          "type": "uint256"
        }
      ],
      "stateMutability": "view",
      "type": "function"
    },
    {
      "inputs": [
        {
          "internalType": "address",
          "name": "owner",
          "type": "address"
        },
        {
          "internalType": "address",
          "name": "spender",
          "type": "address"
        },
        {
          "internalType": "uint256",
          "name": "amount",
          "type": "uint256"
        },
        {
          "internalType": "uint256",
          "name": "deadline",
          "type": "uint256"
        },
        {
          "internalType": "uint8",
          "name": "v",
          "type": "uint8"
        },
        {
          "internalType": "bytes32",
          "name": "r",
          "type": "bytes32"
        },
        {
          "internalType": "bytes32",
          "name": "s",
          "type": "bytes32"
        }
      ],
      "name": "permit",
      "outputs": [],
      "stateMutability": "nonpayable",
      "type": "function"
    },
    {
      "inputs": [],
      "name": "permitTypeHash",
      "outputs": [
        {
          "internalType": "bytes32",
          "name": "",
          "type": "bytes32"
        }
      ],
      "stateMutability": "view",
      "type": "function"
    },
    {
      "inputs": [
        {
          "internalType": "address",
          "name": "_sender",
          "type": "address"
        },
        {
          "internalType": "uint256",
          "name": "_amount",
          "type": "uint256"
        }
      ],
      "name": "sendToLQTYStaking",
      "outputs": [],
      "stateMutability": "nonpayable",
      "type": "function"
    },
    {
      "inputs": [],
      "name": "symbol",
      "outputs": [
        {
          "internalType": "string",
          "name": "",
          "type": "string"
        }
      ],
      "stateMutability": "view",
      "type": "function"
    },
    {
      "inputs": [],
      "name": "totalSupply",
      "outputs": [
        {
          "internalType": "uint256",
          "name": "",
          "type": "uint256"
        }
      ],
      "stateMutability": "view",
      "type": "function"
    },
    {
      "inputs": [
        {
          "internalType": "address",
          "name": "recipient",
          "type": "address"
        },
        {
          "internalType": "uint256",
          "name": "amount",
          "type": "uint256"
        }
      ],
      "name": "transfer",
      "outputs": [
        {
          "internalType": "bool",
          "name": "",
          "type": "bool"
        }
      ],
      "stateMutability": "nonpayable",
      "type": "function"
    },
    {
      "inputs": [
        {
          "internalType": "address",
          "name": "sender",
          "type": "address"
        },
        {
          "internalType": "address",
          "name": "recipient",
          "type": "address"
        },
        {
          "internalType": "uint256",
          "name": "amount",
          "type": "uint256"
        }
      ],
      "name": "transferFrom",
      "outputs": [
        {
          "internalType": "bool",
          "name": "",
          "type": "bool"
        }
      ],
      "stateMutability": "nonpayable",
      "type": "function"
    },
    {
      "inputs": [],
      "name": "version",
      "outputs": [
        {
          "internalType": "string",
          "name": "",
          "type": "string"
        }
      ],
      "stateMutability": "view",
      "type": "function"
    }
  ],
  "bytecode": "0x6101406040523480156200001257600080fd5b506040516200140438038062001404833981810160405260608110156200003857600080fd5b50805160208201516040909201519091906200005d836001600160e01b036200015f16565b42610100526001600160601b0319606084901b166101205260408051808201825260048152634c51545960e01b602091820152815180830190925260018252603160f81b9101527f3a81c10f33bb8529c37240b8a654b1c488a9f8c7e205411c4bef216f3581304760c08190527fc89efdaa54c0f20c7adf612882df0950f5a951637e0307cdcb4c672f298b8bc660e0819052620001036001600160e01b03620001e416565b60a0526200013c7f8b73c3c69bb8fe3d512ecc4cf759cc79239f7b179b0ffacaa9a75d522b39400f83836001600160e01b03620001e816565b6080526200015484846001600160e01b036200024916565b5050505050620003ac565b6001600160a01b038116620001a3576040805162461bcd60e51b81526020600482015260056024820152641830b2323960d91b604482015290519081900360640190fd5b803b80620001e0576040805162461bcd60e51b815260206004820152600560248201526430636f646560d81b604482015290519081900360640190fd5b5050565b4690565b6000838383620002006001600160e01b03620001e416565b6040805160208082019690965280820194909452606084019290925260808301523060a0808401919091528151808403909101815260c090920190528051910120949350505050565b6001600160a01b038216620002a5576040805162461bcd60e51b815260206004820152601f60248201527f45524332303a206d696e7420746f20746865207a65726f206164647265737300604482015290519081900360640190fd5b620002c1816002546200034a60201b620008fb1790919060201c565b6002556001600160a01b03821660009081526020818152604090912054620002f4918390620008fb6200034a821b17901c565b6001600160a01b0383166000818152602081815260408083209490945583518581529351929391927fddf252ad1be2c89b69c2b068fc378daa952ba7f163c4a11628f55a4df523b3ef9281900390910190a35050565b600082820183811015620003a5576040805162461bcd60e51b815260206004820152601b60248201527f536166654d6174683a206164646974696f6e206f766572666c6f770000000000604482015290519081900360640190fd5b9392505050565b60805160a05160c05160e051610100516101205160601c610ffc620004086000398061054452806108085280610aa45280610d145250806104ea5250806108d05250806108af5250806108355250806108655250610ffc6000f3fe608060405234801561001057600080fd5b50600436106100f15760003560e01c806306fdde03146100f6578063095ea7b31461017357806310ce43bd146101b357806318160ddd146101cd57806323b872dd146101d5578063313ce5671461020b57806339509351146102295780633c84b7c21461025557806354fd4d501461025d57806370a0823114610265578063761ab22c1461028b5780637ecebe00146102af57806395d89b41146100f6578063a457c2d7146102d5578063a9059cbb14610301578063d505accf1461032d578063dd62ed3e14610380578063f3a2568b146103ae578063f698da25146103da575b600080fd5b6100fe6103e2565b6040805160208082528351818301528351919283929083019185019080838360005b83811015610138578181015183820152602001610120565b50505050905090810190601f1680156101655780820380516001836020036101000a031916815260200191505b509250505060405180910390f35b61019f6004803603604081101561018957600080fd5b506001600160a01b038135169060200135610401565b604080519115158252519081900360200190f35b6101bb610417565b60408051918252519081900360200190f35b6101bb610429565b61019f600480360360608110156101eb57600080fd5b506001600160a01b0381358116916020810135909116906040013561042f565b6102136104a7565b6040805160ff9092168252519081900360200190f35b61019f6004803603604081101561023f57600080fd5b506001600160a01b0381351690602001356104ac565b6101bb6104e8565b6100fe61050c565b6101bb6004803603602081101561027b57600080fd5b50356001600160a01b0316610527565b610293610542565b604080516001600160a01b039092168252519081900360200190f35b6101bb600480360360208110156102c557600080fd5b50356001600160a01b0316610566565b61019f600480360360408110156102eb57600080fd5b506001600160a01b038135169060200135610581565b61019f6004803603604081101561031757600080fd5b506001600160a01b0381351690602001356105d6565b61037e600480360360e081101561034357600080fd5b506001600160a01b03813581169160208101359091169060408101359060608101359060ff6080820135169060a08101359060c001356105ec565b005b6101bb6004803603604081101561039657600080fd5b506001600160a01b03813581169160200135166107cf565b61037e600480360360408110156103c457600080fd5b506001600160a01b0381351690602001356107fa565b6101bb610831565b6040805180820190915260048152634c51545960e01b60208201525b90565b600061040e33848461095a565b50600192915050565b600080516020610e6083398151915290565b60025490565b600061043a83610a46565b610445848484610b16565b61049d843361049885604051806060016040528060288152602001610e38602891396001600160a01b038a166000908152600160209081526040808320338452909152902054919063ffffffff610c7216565b61095a565b5060019392505050565b601290565b3360008181526001602090815260408083206001600160a01b0387168452909152812054909161040e918590610498908663ffffffff6108fb16565b7f000000000000000000000000000000000000000000000000000000000000000090565b6040805180820190915260018152603160f81b602082015290565b6001600160a01b031660009081526020819052604090205490565b7f000000000000000000000000000000000000000000000000000000000000000081565b6001600160a01b031660009081526003602052604090205490565b600061040e338461049885604051806060016040528060258152602001610fa2602591393360009081526001602090815260408083206001600160a01b038d168452909152902054919063ffffffff610c7216565b60006105e183610a46565b61040e338484610b16565b4284101561063a576040805162461bcd60e51b81526020600482015260166024820152754c5154593a206578706972656420646561646c696e6560501b604482015290519081900360640190fd5b6000610644610831565b6001600160a01b03808a166000818152600360209081526040808320805460018082019092558251600080516020610e608339815191528186015280840196909652958e166060860152608085018d905260a085019590955260c08085018c90528151808603909101815260e08501825280519083012061190160f01b6101008601526101028501969096526101228085019690965280518085039096018652610142840180825286519683019690962095839052610162840180825286905260ff8a166101828501526101a284018990526101c284018890525194955090936101e280840193601f198301929081900390910190855afa15801561074d573d6000803e3d6000fd5b505050602060405103519050886001600160a01b0316816001600160a01b0316146107b9576040805162461bcd60e51b81526020600482015260176024820152764c5154593a20696e76616c6964207369676e617475726560481b604482015290519081900360640190fd5b6107c489898961095a565b505050505050505050565b6001600160a01b03918216600090815260016020908152604080832093909416825291909152205490565b610802610d09565b61082d827f000000000000000000000000000000000000000000000000000000000000000083610b16565b5050565b60007f000000000000000000000000000000000000000000000000000000000000000061085c610d72565b141561088957507f00000000000000000000000000000000000000000000000000000000000000006103fe565b6108f47f8b73c3c69bb8fe3d512ecc4cf759cc79239f7b179b0ffacaa9a75d522b39400f7f00000000000000000000000000000000000000000000000000000000000000007f0000000000000000000000000000000000000000000000000000000000000000610d76565b90506103fe565b600082820183811015610953576040805162461bcd60e51b815260206004820152601b60248201527a536166654d6174683a206164646974696f6e206f766572666c6f7760281b604482015290519081900360640190fd5b9392505050565b6001600160a01b03831661099f5760405162461bcd60e51b8152600401808060200182810382526024815260200180610ea56024913960400191505060405180910390fd5b6001600160a01b0382166109e45760405162461bcd60e51b8152600401808060200182810382526022815260200180610df06022913960400191505060405180910390fd5b6001600160a01b03808416600081815260016020908152604080832094871680845294825291829020859055815185815291517f8c5be1e5ebec7d5bd14f71427d1e84f3dd0314c0f7b2291e5b200ac8c7c3b9259281900390910190a3505050565b6001600160a01b03811615801590610a6757506001600160a01b0381163014155b610aa25760405162461bcd60e51b8152600401808060200182810382526054815260200180610efb6054913960600191505060405180910390fd5b7f00000000000000000000000000000000000000000000000000000000000000006001600160a01b0316816001600160a01b03161415610b135760405162461bcd60e51b8152600401808060200182810382526053815260200180610f4f6053913960600191505060405180910390fd5b50565b6001600160a01b038316610b5b5760405162461bcd60e51b8152600401808060200182810382526025815260200180610e806025913960400191505060405180910390fd5b6001600160a01b038216610ba05760405162461bcd60e51b8152600401808060200182810382526023815260200180610dcd6023913960400191505060405180910390fd5b610be381604051806060016040528060268152602001610e12602691396001600160a01b038616600090815260208190526040902054919063ffffffff610c7216565b6001600160a01b038085166000908152602081905260408082209390935590841681522054610c18908263ffffffff6108fb16565b6001600160a01b038084166000818152602081815260409182902094909455805185815290519193928716927fddf252ad1be2c89b69c2b068fc378daa952ba7f163c4a11628f55a4df523b3ef92918290030190a3505050565b60008184841115610d015760405162461bcd60e51b81526004018080602001828103825283818151815260200191508051906020019080838360005b83811015610cc6578181015183820152602001610cae565b50505050905090810190601f168015610cf35780820380516001836020036101000a031916815260200191505b509250505060405180910390fd5b505050900390565b336001600160a01b037f00000000000000000000000000000000000000000000000000000000000000001614610d705760405162461bcd60e51b8152600401808060200182810382526032815260200180610ec96032913960400191505060405180910390fd5b565b4690565b6000838383610d83610d72565b6040805160208082019690965280820194909452606084019290925260808301523060a0808401919091528151808403909101815260c09092019052805191012094935050505056fe45524332303a207472616e7366657220746f20746865207a65726f206164647265737345524332303a20617070726f766520746f20746865207a65726f206164647265737345524332303a207472616e7366657220616d6f756e7420657863656564732062616c616e636545524332303a207472616e7366657220616d6f756e74206578636565647320616c6c6f77616e63656e71edae12b1b97f4d1f60370fef10105fa2faae0126114a169c64845d6126c945524332303a207472616e736665722066726f6d20746865207a65726f206164647265737345524332303a20617070726f76652066726f6d20746865207a65726f20616464726573734c515459546f6b656e3a2063616c6c6572206d75737420626520746865204c5154595374616b696e6720636f6e74726163744c5154593a2043616e6e6f74207472616e7366657220746f6b656e73206469726563746c7920746f20746865204c51545920746f6b656e20636f6e7472616374206f7220746865207a65726f20616464726573734c5154593a2043616e6e6f74207472616e7366657220746f6b656e73206469726563746c7920746f2074686520636f6d6d756e6974792069737375616e6365206f72207374616b696e6720636f6e747261637445524332303a2064656372656173656420616c6c6f77616e63652062656c6f77207a65726fa2646970667358221220d3909edc5c48a046f108ff264484e176970c37bac848941f8da88008920e8dac64736f6c634300060b0033",
  "linkReferences": {},
  "deployedLinkReferences": {}
}