{
  "_format": "hh-sol-artifact-1",
  "contractName": "MockPyth",
  "sourceName": "contracts/TestContracts/MockPyth.sol",
  "abi": [
    {
      "inputs": [
        {
          "internalType": "uint256",
          "name": "_validTimePeriod",
          "type": "uint256"
        },
        {
          "internalType": "uint256",
          "name": "_singleUpdateFeeInWei",
          "type": "uint256"
        }
      ],
      "stateMutability": "nonpayable",
      "type": "constructor"
    },
    {
      "anonymous": false,
      "inputs": [
        {
          "indexed": false,
          "internalType": "uint16",
          "name": "chainId",
          "type": "uint16"
        },
        {
          "indexed": false,
          "internalType": "uint64",
          "name": "sequenceNumber",
          "type": "uint64"
        }
      ],
      "name": "BatchPriceFeedUpdate",
      "type": "event"
    },
    {
      "anonymous": false,
      "inputs": [
        {
          "indexed": true,
          "internalType": "bytes32",
          "name": "id",
          "type": "bytes32"
        },
        {
          "indexed": false,
          "internalType": "uint64",
          "name": "publishTime",
          "type": "uint64"
        },
        {
          "indexed": false,
          "internalType": "int64",
          "name": "price",
          "type": "int64"
        },
        {
          "indexed": false,
          "internalType": "uint64",
          "name": "conf",
          "type": "uint64"
        }
      ],
      "name": "PriceFeedUpdate",
      "type": "event"
    },
    {
      "inputs": [
        {
          "internalType": "bytes32",
          "name": "id",
          "type": "bytes32"
        },
        {
          "internalType": "int64",
          "name": "price",
          "type": "int64"
        },
        {
          "internalType": "uint64",
          "name": "conf",
          "type": "uint64"
        },
        {
          "internalType": "int32",
          "name": "expo",
          "type": "int32"
        },
        {
          "internalType": "int64",
          "name": "emaPrice",
          "type": "int64"
        },
        {
          "internalType": "uint64",
          "name": "emaConf",
          "type": "uint64"
        },
        {
          "internalType": "uint64",
          "name": "publishTime",
          "type": "uint64"
        }
      ],
      "name": "createPriceFeedUpdateData",
      "outputs": [
        {
          "internalType": "bytes",
          "name": "priceFeedData",
          "type": "bytes"
        }
      ],
      "stateMutability": "pure",
      "type": "function"
    },
    {
      "inputs": [
        {
          "internalType": "bytes32",
          "name": "id",
          "type": "bytes32"
        }
      ],
      "name": "getEmaPrice",
      "outputs": [
        {
          "components": [
            {
              "internalType": "int64",
              "name": "price",
              "type": "int64"
            },
            {
              "internalType": "uint64",
              "name": "conf",
              "type": "uint64"
            },
            {
              "internalType": "int32",
              "name": "expo",
              "type": "int32"
            },
            {
              "internalType": "uint256",
              "name": "publishTime",
              "type": "uint256"
            }
          ],
          "internalType": "struct PythStructs.Price",
          "name": "price",
          "type": "tuple"
        }
      ],
      "stateMutability": "view",
      "type": "function"
    },
    {
      "inputs": [
        {
          "internalType": "bytes32",
          "name": "id",
          "type": "bytes32"
        },
        {
          "internalType": "uint256",
          "name": "age",
          "type": "uint256"
        }
      ],
      "name": "getEmaPriceNoOlderThan",
      "outputs": [
        {
          "components": [
            {
              "internalType": "int64",
              "name": "price",
              "type": "int64"
            },
            {
              "internalType": "uint64",
              "name": "conf",
              "type": "uint64"
            },
            {
              "internalType": "int32",
              "name": "expo",
              "type": "int32"
            },
            {
              "internalType": "uint256",
              "name": "publishTime",
              "type": "uint256"
            }
          ],
          "internalType": "struct PythStructs.Price",
          "name": "price",
          "type": "tuple"
        }
      ],
      "stateMutability": "view",
      "type": "function"
    },
    {
      "inputs": [
        {
          "internalType": "bytes32",
          "name": "id",
          "type": "bytes32"
        }
      ],
      "name": "getEmaPriceUnsafe",
      "outputs": [
        {
          "components": [
            {
              "internalType": "int64",
              "name": "price",
              "type": "int64"
            },
            {
              "internalType": "uint64",
              "name": "conf",
              "type": "uint64"
            },
            {
              "internalType": "int32",
              "name": "expo",
              "type": "int32"
            },
            {
              "internalType": "uint256",
              "name": "publishTime",
              "type": "uint256"
            }
          ],
          "internalType": "struct PythStructs.Price",
          "name": "price",
          "type": "tuple"
        }
      ],
      "stateMutability": "view",
      "type": "function"
    },
    {
      "inputs": [
        {
          "internalType": "bytes32",
          "name": "id",
          "type": "bytes32"
        }
      ],
      "name": "getPrice",
      "outputs": [
        {
          "components": [
            {
              "internalType": "int64",
              "name": "price",
              "type": "int64"
            },
            {
              "internalType": "uint64",
              "name": "conf",
              "type": "uint64"
            },
            {
              "internalType": "int32",
              "name": "expo",
              "type": "int32"
            },
            {
              "internalType": "uint256",
              "name": "publishTime",
              "type": "uint256"
            }
          ],
          "internalType": "struct PythStructs.Price",
          "name": "price",
          "type": "tuple"
        }
      ],
      "stateMutability": "view",
      "type": "function"
    },
    {
      "inputs": [
        {
          "internalType": "bytes32",
          "name": "id",
          "type": "bytes32"
        },
        {
          "internalType": "uint256",
          "name": "age",
          "type": "uint256"
        }
      ],
      "name": "getPriceNoOlderThan",
      "outputs": [
        {
          "components": [
            {
              "internalType": "int64",
              "name": "price",
              "type": "int64"
            },
            {
              "internalType": "uint64",
              "name": "conf",
              "type": "uint64"
            },
            {
              "internalType": "int32",
              "name": "expo",
              "type": "int32"
            },
            {
              "internalType": "uint256",
              "name": "publishTime",
              "type": "uint256"
            }
          ],
          "internalType": "struct PythStructs.Price",
          "name": "price",
          "type": "tuple"
        }
      ],
      "stateMutability": "view",
      "type": "function"
    },
    {
      "inputs": [
        {
          "internalType": "bytes32",
          "name": "id",
          "type": "bytes32"
        }
      ],
      "name": "getPriceUnsafe",
      "outputs": [
        {
          "components": [
            {
              "internalType": "int64",
              "name": "price",
              "type": "int64"
            },
            {
              "internalType": "uint64",
              "name": "conf",
              "type": "uint64"
            },
            {
              "internalType": "int32",
              "name": "expo",
              "type": "int32"
            },
            {
              "internalType": "uint256",
              "name": "publishTime",
              "type": "uint256"
            }
          ],
          "internalType": "struct PythStructs.Price",
          "name": "price",
          "type": "tuple"
        }
      ],
      "stateMutability": "view",
      "type": "function"
    },
    {
      "inputs": [
        {
          "internalType": "bytes[]",
          "name": "updateData",
          "type": "bytes[]"
        }
      ],
      "name": "getUpdateFee",
      "outputs": [
        {
          "internalType": "uint256",
          "name": "feeAmount",
          "type": "uint256"
        }
      ],
      "stateMutability": "view",
      "type": "function"
    },
    {
      "inputs": [],
      "name": "getValidTimePeriod",
      "outputs": [
        {
          "internalType": "uint256",
          "name": "",
          "type": "uint256"
        }
      ],
      "stateMutability": "view",
      "type": "function"
    },
    {
      "inputs": [
        {
          "internalType": "bytes32",
          "name": "id",
          "type": "bytes32"
        },
        {
          "internalType": "int64",
          "name": "price",
          "type": "int64"
        },
        {
          "internalType": "uint64",
          "name": "conf",
          "type": "uint64"
        },
        {
          "internalType": "int32",
          "name": "expo",
          "type": "int32"
        },
        {
          "internalType": "int64",
          "name": "emaPrice",
          "type": "int64"
        },
        {
          "internalType": "uint64",
          "name": "emaConf",
          "type": "uint64"
        },
        {
          "internalType": "uint64",
          "name": "publishTime",
          "type": "uint64"
        }
      ],
      "name": "mockPrices",
      "outputs": [],
      "stateMutability": "nonpayable",
      "type": "function"
    },
    {
      "inputs": [
        {
          "internalType": "bytes[]",
          "name": "updateData",
          "type": "bytes[]"
        },
        {
          "internalType": "bytes32[]",
          "name": "priceIds",
          "type": "bytes32[]"
        },
        {
          "internalType": "uint64",
          "name": "minPublishTime",
          "type": "uint64"
        },
        {
          "internalType": "uint64",
          "name": "maxPublishTime",
          "type": "uint64"
        }
      ],
      "name": "parsePriceFeedUpdates",
      "outputs": [
        {
          "components": [
            {
              "internalType": "bytes32",
              "name": "id",
              "type": "bytes32"
            },
            {
              "components": [
                {
                  "internalType": "int64",
                  "name": "price",
                  "type": "int64"
                },
                {
                  "internalType": "uint64",
                  "name": "conf",
                  "type": "uint64"
                },
                {
                  "internalType": "int32",
                  "name": "expo",
                  "type": "int32"
                },
                {
                  "internalType": "uint256",
                  "name": "publishTime",
                  "type": "uint256"
                }
              ],
              "internalType": "struct PythStructs.Price",
              "name": "price",
              "type": "tuple"
            },
            {
              "components": [
                {
                  "internalType": "int64",
                  "name": "price",
                  "type": "int64"
                },
                {
                  "internalType": "uint64",
                  "name": "conf",
                  "type": "uint64"
                },
                {
                  "internalType": "int32",
                  "name": "expo",
                  "type": "int32"
                },
                {
                  "internalType": "uint256",
                  "name": "publishTime",
                  "type": "uint256"
                }
              ],
              "internalType": "struct PythStructs.Price",
              "name": "emaPrice",
              "type": "tuple"
            }
          ],
          "internalType": "struct PythStructs.PriceFeed[]",
          "name": "",
          "type": "tuple[]"
        }
      ],
      "stateMutability": "payable",
      "type": "function"
    },
    {
      "inputs": [
        {
          "internalType": "bytes32",
          "name": "id",
          "type": "bytes32"
        }
      ],
      "name": "priceFeedExists",
      "outputs": [
        {
          "internalType": "bool",
          "name": "",
          "type": "bool"
        }
      ],
      "stateMutability": "view",
      "type": "function"
    },
    {
      "inputs": [
        {
          "internalType": "bytes32",
          "name": "id",
          "type": "bytes32"
        }
      ],
      "name": "queryPriceFeed",
      "outputs": [
        {
          "components": [
            {
              "internalType": "bytes32",
              "name": "id",
              "type": "bytes32"
            },
            {
              "components": [
                {
                  "internalType": "int64",
                  "name": "price",
                  "type": "int64"
                },
                {
                  "internalType": "uint64",
                  "name": "conf",
                  "type": "uint64"
                },
                {
                  "internalType": "int32",
                  "name": "expo",
                  "type": "int32"
                },
                {
                  "internalType": "uint256",
                  "name": "publishTime",
                  "type": "uint256"
                }
              ],
              "internalType": "struct PythStructs.Price",
              "name": "price",
              "type": "tuple"
            },
            {
              "components": [
                {
                  "internalType": "int64",
                  "name": "price",
                  "type": "int64"
                },
                {
                  "internalType": "uint64",
                  "name": "conf",
                  "type": "uint64"
                },
                {
                  "internalType": "int32",
                  "name": "expo",
                  "type": "int32"
                },
                {
                  "internalType": "uint256",
                  "name": "publishTime",
                  "type": "uint256"
                }
              ],
              "internalType": "struct PythStructs.Price",
              "name": "emaPrice",
              "type": "tuple"
            }
          ],
          "internalType": "struct PythStructs.PriceFeed",
          "name": "priceFeed",
          "type": "tuple"
        }
      ],
      "stateMutability": "view",
      "type": "function"
    },
    {
      "inputs": [
        {
          "internalType": "bytes32",
          "name": "id",
          "type": "bytes32"
        }
      ],
      "name": "setNewFeedId",
      "outputs": [],
      "stateMutability": "nonpayable",
      "type": "function"
    },
    {
      "inputs": [
        {
          "internalType": "bytes[]",
          "name": "updateData",
          "type": "bytes[]"
        }
      ],
      "name": "updatePriceFeeds",
      "outputs": [],
      "stateMutability": "payable",
      "type": "function"
    },
    {
      "inputs": [
        {
          "internalType": "bytes[]",
          "name": "updateData",
          "type": "bytes[]"
        },
        {
          "internalType": "bytes32[]",
          "name": "priceIds",
          "type": "bytes32[]"
        },
        {
          "internalType": "uint64[]",
          "name": "publishTimes",
          "type": "uint64[]"
        }
      ],
      "name": "updatePriceFeedsIfNecessary",
      "outputs": [],
      "stateMutability": "payable",
      "type": "function"
    }
  ],
  "bytecode": "0x608060405234801561001057600080fd5b5060405161100638038061100683398101604081905261002f9161003a565b60025560035561005d565b6000806040838503121561004c578182fd5b505080516020909101519092909150565b610f9a8061006c6000396000f3fe6080604052600436106100c35760003560e01c80632f853f57146100c857806331d98b3f146100ea5780634716e9c514610120578063711a2e28146101405780639474f45b1461016057806396834ad31461018057806396db6327146101a0578063a4ae35e0146101cd578063b5dcc911146101ed578063b5ec02611461020d578063b9256d281461023a578063caaf43f11461024d578063d47eed451461027a578063e18910a3146102a7578063ee962d0e146102bc578063ef9e5e28146102dc575b600080fd5b3480156100d457600080fd5b506100e86100e3366004610c3f565b6102ef565b005b3480156100f657600080fd5b5061010a610105366004610c3f565b6103d6565b6040516101179190610e8e565b60405180910390f35b61013361012e366004610bb1565b6103f0565b6040516101179190610dd2565b34801561014c57600080fd5b5061010a61015b366004610ce3565b6105a3565b34801561016c57600080fd5b5061010a61017b366004610c3f565b6105cd565b34801561018c57600080fd5b5061010a61019b366004610c3f565b6105f1565b3480156101ac57600080fd5b506101c06101bb366004610c57565b610615565b6040516101179190610e2c565b3480156101d957600080fd5b5061010a6101e8366004610ce3565b6106ba565b3480156101f957600080fd5b5061010a610208366004610c3f565b6106cb565b34801561021957600080fd5b5061022d610228366004610c3f565b6106df565b6040516101179190610e21565b6100e8610248366004610b1c565b6106f3565b34801561025957600080fd5b5061026d610268366004610c3f565b61079f565b6040516101179190610e7f565b34801561028657600080fd5b5061029a610295366004610add565b610871565b6040516101179190610eb9565b3480156102b357600080fd5b5061029a61087a565b3480156102c857600080fd5b506100e86102d7366004610c57565b610880565b6100e86102ea366004610add565b610927565b6102f76109c8565b818152600091825260208281526040928390208251815581830151805160018301805483860151848901516001600160401b0319928316600795860b6001600160401b0390811691909117600160401b600160801b0319908116600160401b94831685021763ffffffff60801b19908116600160801b63ffffffff600396870b81168202929092179098556060998a015160028c01559b8d01518051858c0180549d8301519f8301519d909816990b8416989098179091169b90911690920299909917169590970b909516909402929092179093550151600490910155565b6103de6109f5565b6103ea826101e861087a565b92915050565b606060006103fe8888610871565b90508034101561040a57fe5b6060856001600160401b038111801561042257600080fd5b5060405190808252806020026020018201604052801561045c57816020015b6104496109c8565b8152602001906001900390816104415790505b50905060005b868110156105965760005b8981101561055b578a8a8281811061048157fe5b90506020028101906104939190610ec2565b8101906104a09190610d04565b8383815181106104ac57fe5b60200260200101819052508888838181106104c357fe5b905060200201358383815181106104d657fe5b60200260200101516000015114156105535760008383815181106104f657fe5b60200260200101516020015160600151905080886001600160401b03161115801561052a5750866001600160401b03168111155b15610535575061055b565b6000801b84848151811061054557fe5b602090810291909101015152505b60010161046d565b5087878281811061056857fe5b9050602002013582828151811061057b57fe5b6020026020010151600001511461058e57fe5b600101610462565b5098975050505050505050565b6105ab6109f5565b6105b4836105cd565b9050816105c54283606001516109ac565b11156103ea57fe5b6105d56109f5565b6105dd6109c8565b6105e68361079f565b604001519392505050565b6105f96109f5565b6106016109c8565b61060a8361079f565b602001519392505050565b606061061f6109c8565b8881526020808201805160078b810b810b90915281516001600160401b03808c1691850191909152825160038b810b900b60409182018190529351888316606091820181905282880180518d870b90960b9095528451938b169387019390935283518201949094529151909201919091525161069d91839101610e7f565b60408051808303601f190181529190529998505050505050505050565b6106c26109f5565b6105b4836105f1565b6106d36109f5565b6103ea8261015b61087a565b600090815260208190526040902054151590565b8281146106fc57fe5b60005b838110156107955761072285858381811061071657fe5b905060200201356106df565b1580610778575082828281811061073557fe5b905060200201602081019061074a9190610d4f565b6001600160401b031661076e86868481811061076257fe5b9050602002013561079f565b6020015160600151105b1561078d576107878787610927565b50610797565b6001016106ff565b505b505050505050565b6107a76109c8565b6000828152602081905260409020546107bc57fe5b5060008181526020818152604091829020825160608082018552825482528451608080820187526001850154600781810b810b810b84526001600160401b03600160401b8084048216868b0152600160801b93849004600390810b810b810b878d015260028a015487890152888b01969096528a519485018b528589015480840b840b90930b855282041697830197909752909504810b810b900b848601526004909201549183019190915291820152919050565b60025402919050565b60035490565b600096875260208790526040909620600181018054600395860b63ffffffff16600160801b0263ffffffff60801b196001600160401b03988916600160401b908102600160401b600160801b031960079c8d0b8c166001600160401b031996871617811691909117831684179095559a8916600286018190559785018054968a16909b029690990b9097169316929092179091169190911790931690911790925560040155565b60006109338383610871565b90508034101561093f57fe5b600180546040517f943f0e8a16c19895fb87cbeb1a349ed86d7f31923089dd36c1a1ed5e300f267b9161097d9184916001600160401b031690610e9c565b60405180910390a15050600180546001600160401b038082168301166001600160401b03199091161790555050565b6000818311156109bf57508082036103ea565b508181036103ea565b604080516060810190915260008152602081016109e36109f5565b81526020016109f06109f5565b905290565b60408051608081018252600080825260208201819052918101829052606081019190915290565b60008083601f840112610a2d578182fd5b5081356001600160401b03811115610a43578182fd5b6020830191508360208083028501011115610a5d57600080fd5b9250929050565b600060808284031215610a75578081fd5b610a7f6080610f08565b90508135610a8c81610f40565b81526020820135610a9c81610f4f565b60208201526040820135610aaf81610f2e565b806040830152506060820135606082015292915050565b80356001600160401b03811681146103ea57600080fd5b60008060208385031215610aef578182fd5b82356001600160401b03811115610b04578283fd5b610b1085828601610a1c565b90969095509350505050565b60008060008060008060608789031215610b34578182fd5b86356001600160401b0380821115610b4a578384fd5b610b568a838b01610a1c565b90985096506020890135915080821115610b6e578384fd5b610b7a8a838b01610a1c565b90965094506040890135915080821115610b92578384fd5b50610b9f89828a01610a1c565b979a9699509497509295939492505050565b60008060008060008060808789031215610bc9578182fd5b86356001600160401b0380821115610bdf578384fd5b610beb8a838b01610a1c565b90985096506020890135915080821115610c03578384fd5b50610c1089828a01610a1c565b9095509350610c2490508860408901610ac6565b9150610c338860608901610ac6565b90509295509295509295565b600060208284031215610c50578081fd5b5035919050565b600080600080600080600060e0888a031215610c71578081fd5b873596506020880135610c8381610f40565b95506040880135610c9381610f4f565b94506060880135610ca381610f2e565b93506080880135610cb381610f40565b925060a0880135610cc381610f4f565b915060c0880135610cd381610f4f565b8091505092959891949750929550565b60008060408385031215610cf5578182fd5b50508035926020909101359150565b60006101208284031215610d16578081fd5b610d206060610f08565b82358152610d318460208501610a64565b6020820152610d438460a08501610a64565b60408201529392505050565b600060208284031215610d60578081fd5b8135610d6b81610f4f565b9392505050565b805182526020810151610d886020840182610da0565b506040810151610d9b60a0840182610da0565b505050565b805160070b82526020808201516001600160401b03169083015260408082015160030b90830152606090810151910152565b6020808252825182820181905260009190848201906040850190845b81811015610e1557610e01838551610d72565b928401926101209290920191600101610dee565b50909695505050505050565b901515815260200190565b6000602080835283518082850152825b81811015610e5857858101830151858201604001528201610e3c565b81811115610e695783604083870101525b50601f01601f1916929092016040019392505050565b61012081016103ea8284610d72565b608081016103ea8284610da0565b61ffff9290921682526001600160401b0316602082015260400190565b90815260200190565b6000808335601e19843603018112610ed8578283fd5b838101803592506001600160401b03831115610ef2578384fd5b60200192505036819003821315610a5d57600080fd5b6040518181016001600160401b0381118282101715610f2657600080fd5b604052919050565b8060030b8114610f3d57600080fd5b50565b8060070b8114610f3d57600080fd5b6001600160401b0381168114610f3d57600080fdfea264697066735822122003424ddaf344267c3c3c9790e67685401dc8edbe70490f5e74b7e58e8efb532564736f6c634300060b0033",
  "linkReferences": {},
  "deployedLinkReferences": {}
}