{
  "_format": "hh-sol-artifact-1",
  "contractName": "PriceFeed",
  "sourceName": "contracts/PriceFeed.sol",
  "abi": [
    {
      "anonymous": false,
      "inputs": [
        {
          "indexed": false,
          "internalType": "uint256",
          "name": "_lastGoodPrice",
          "type": "uint256"
        }
      ],
      "name": "LastGoodPriceUpdated",
      "type": "event"
    },
    {
      "anonymous": false,
      "inputs": [
        {
          "indexed": true,
          "internalType": "address",
          "name": "previousOwner",
          "type": "address"
        },
        {
          "indexed": true,
          "internalType": "address",
          "name": "newOwner",
          "type": "address"
        }
      ],
      "name": "OwnershipTransferred",
      "type": "event"
    },
    {
      "anonymous": false,
      "inputs": [
        {
          "indexed": false,
          "internalType": "enum PriceFeed.Status",
          "name": "newStatus",
          "type": "uint8"
        }
      ],
      "name": "PriceFeedStatusChanged",
      "type": "event"
    },
    {
      "inputs": [],
      "name": "BNBFeed",
      "outputs": [
        {
          "internalType": "bytes32",
          "name": "",
          "type": "bytes32"
        }
      ],
      "stateMutability": "view",
      "type": "function"
    },
    {
      "inputs": [],
      "name": "DECIMAL_PRECISION",
      "outputs": [
        {
          "internalType": "uint256",
          "name": "",
          "type": "uint256"
        }
      ],
      "stateMutability": "view",
      "type": "function"
    },
    {
      "inputs": [],
      "name": "MAX_PRICE_DEVIATION_FROM_PREVIOUS_ROUND",
      "outputs": [
        {
          "internalType": "uint256",
          "name": "",
          "type": "uint256"
        }
      ],
      "stateMutability": "view",
      "type": "function"
    },
    {
      "inputs": [],
      "name": "MAX_PRICE_DIFFERENCE_BETWEEN_ORACLES",
      "outputs": [
        {
          "internalType": "uint256",
          "name": "",
          "type": "uint256"
        }
      ],
      "stateMutability": "view",
      "type": "function"
    },
    {
      "inputs": [],
      "name": "MAX_SCALED_DEVIATION_PYTH",
      "outputs": [
        {
          "internalType": "uint256",
          "name": "",
          "type": "uint256"
        }
      ],
      "stateMutability": "view",
      "type": "function"
    },
    {
      "inputs": [],
      "name": "NAME",
      "outputs": [
        {
          "internalType": "string",
          "name": "",
          "type": "string"
        }
      ],
      "stateMutability": "view",
      "type": "function"
    },
    {
      "inputs": [],
      "name": "PYTH_DIGITS",
      "outputs": [
        {
          "internalType": "uint256",
          "name": "",
          "type": "uint256"
        }
      ],
      "stateMutability": "view",
      "type": "function"
    },
    {
      "inputs": [],
      "name": "TARGET_DIGITS",
      "outputs": [
        {
          "internalType": "uint256",
          "name": "",
          "type": "uint256"
        }
      ],
      "stateMutability": "view",
      "type": "function"
    },
    {
      "inputs": [],
      "name": "TIMEOUT",
      "outputs": [
        {
          "internalType": "uint256",
          "name": "",
          "type": "uint256"
        }
      ],
      "stateMutability": "view",
      "type": "function"
    },
    {
      "inputs": [
        {
          "internalType": "bytes[]",
          "name": "priceFeedUpdateData",
          "type": "bytes[]"
        }
      ],
      "name": "_getCurrentPythResponse",
      "outputs": [
        {
          "components": [
            {
              "internalType": "bool",
              "name": "success",
              "type": "bool"
            },
            {
              "internalType": "uint256",
              "name": "pricePyth",
              "type": "uint256"
            },
            {
              "internalType": "uint256",
              "name": "deviationPyth",
              "type": "uint256"
            },
            {
              "internalType": "uint256",
              "name": "publishTimePyth",
              "type": "uint256"
            }
          ],
          "internalType": "struct PriceFeed.PythResponse",
          "name": "pythResponse",
          "type": "tuple"
        }
      ],
      "stateMutability": "payable",
      "type": "function"
    },
    {
      "inputs": [],
      "name": "age",
      "outputs": [
        {
          "internalType": "uint256",
          "name": "",
          "type": "uint256"
        }
      ],
      "stateMutability": "view",
      "type": "function"
    },
    {
      "inputs": [
        {
          "internalType": "bytes[]",
          "name": "priceFeedUpdateData",
          "type": "bytes[]"
        }
      ],
      "name": "fetchPrice",
      "outputs": [
        {
          "components": [
            {
              "internalType": "uint256",
              "name": "price",
              "type": "uint256"
            },
            {
              "internalType": "bytes32",
              "name": "oracleKey",
              "type": "bytes32"
            },
            {
              "internalType": "uint256",
              "name": "deviationPyth",
              "type": "uint256"
            },
            {
              "internalType": "uint256",
              "name": "publishTimePyth",
              "type": "uint256"
            }
          ],
          "internalType": "struct IPriceFeed.FetchPriceResult",
          "name": "result",
          "type": "tuple"
        }
      ],
      "stateMutability": "payable",
      "type": "function"
    },
    {
      "inputs": [],
      "name": "isOwner",
      "outputs": [
        {
          "internalType": "bool",
          "name": "",
          "type": "bool"
        }
      ],
      "stateMutability": "view",
      "type": "function"
    },
    {
      "inputs": [],
      "name": "lastGoodPrice",
      "outputs": [
        {
          "internalType": "uint256",
          "name": "",
          "type": "uint256"
        }
      ],
      "stateMutability": "view",
      "type": "function"
    },
    {
      "inputs": [],
      "name": "owner",
      "outputs": [
        {
          "internalType": "address",
          "name": "",
          "type": "address"
        }
      ],
      "stateMutability": "view",
      "type": "function"
    },
    {
      "inputs": [],
      "name": "priceAggregator",
      "outputs": [
        {
          "internalType": "contract AggregatorV3Interface",
          "name": "",
          "type": "address"
        }
      ],
      "stateMutability": "view",
      "type": "function"
    },
    {
      "inputs": [],
      "name": "pyth",
      "outputs": [
        {
          "internalType": "contract IPyth",
          "name": "",
          "type": "address"
        }
      ],
      "stateMutability": "view",
      "type": "function"
    },
    {
      "inputs": [
        {
          "internalType": "address",
          "name": "_priceAggregatorAddress",
          "type": "address"
        },
        {
          "internalType": "address",
          "name": "_pythAddress",
          "type": "address"
        },
        {
          "internalType": "bytes32",
          "name": "_bnbFeedPyth",
          "type": "bytes32"
        },
        {
          "internalType": "bytes[]",
          "name": "priceFeedUpdateData",
          "type": "bytes[]"
        }
      ],
      "name": "setAddresses",
      "outputs": [],
      "stateMutability": "payable",
      "type": "function"
    },
    {
      "inputs": [],
      "name": "status",
      "outputs": [
        {
          "internalType": "enum PriceFeed.Status",
          "name": "",
          "type": "uint8"
        }
      ],
      "stateMutability": "view",
      "type": "function"
    },
    {
      "stateMutability": "payable",
      "type": "receive"
    }
  ],
  "bytecode": "0x6080604052607860065534801561001557600080fd5b50600080546001600160a01b0319163390811782556040519091907f8be0079c531659141344cd1fd0a4f28419497f9722a3daafe3b4186f6b6457e0908290a3611a22806100646000396000f3fe6080604052600436106100e85760003560e01c80630490be83146100f45780631be5c92f1461011f578063200d2ed214610134578063262a9dff146101565780632caa8f111461016b5780633078fff51461018057806345079cb4146101a25780634e15f2a5146101b7578063536863a5146101d757806358a6aa88146101ec57806377c3357c146102015780638da5cb5b146102165780638f32d59b1461022b578063a1be52691461024d578063a20baee61461026d578063a3f4df7e14610282578063c2da4299146102a4578063f56f48f2146102b9578063f98d06f0146102ce576100ef565b366100ef57005b600080fd5b34801561010057600080fd5b506101096102e3565b6040516101169190611803565b60405180910390f35b34801561012b57600080fd5b506101096102e9565b34801561014057600080fd5b506101496102ee565b604051610116919061181a565b34801561016257600080fd5b506101096102f7565b34801561017757600080fd5b506101096102fd565b34801561018c57600080fd5b50610195610302565b604051610116919061174e565b3480156101ae57600080fd5b50610109610311565b6101ca6101c53660046115d3565b61031c565b6040516101169190611980565b6101ea6101e5366004611565565b6108aa565b005b3480156101f857600080fd5b50610109610992565b34801561020d57600080fd5b5061010961099e565b34801561022257600080fd5b506101956109a9565b34801561023757600080fd5b506102406109b9565b60405161011691906117f8565b61026061025b3660046115d3565b6109ca565b60405161011691906119ab565b34801561027957600080fd5b50610109610bc5565b34801561028e57600080fd5b50610297610bd1565b604051610116919061182e565b3480156102b057600080fd5b50610109610bf6565b3480156102c557600080fd5b50610109610bfc565b3480156102da57600080fd5b50610195610c02565b60075481565b601281565b60085460ff1681565b60065481565b600881565b6001546001600160a01b031681565b66b1a2bc2ec5000081565b61032461145a565b61032c611485565b610334610c11565b905061033e611485565b61035082600001518360800151610d54565b905061035a6114b3565b61036486866109ca565b60008086526040860181905260608601819052630a0b2a8960e31b602087015290915060085460ff16600481111561039857fe5b14156104c5576103a781610e0f565b15610426576103b68383610e9b565b156103cf576103c56002610ebc565b6007548452610421565b6103d883610f14565b156103fe576103e76001610ebc565b6007548452634c494e4b60e01b6020850152610421565b6104086001610ebc565b61041183610f37565b8452634c494e4b60e01b60208501525b6104c5565b61042f81610f5a565b1561048c5761043e8383610e9b565b1561044d576103c56004610ebc565b6104576003610ebc565b634c494e4b60e01b602085015261046d83610f14565b1561047c576007548452610421565b61048583610f37565b84526104c5565b6104968383610e9b565b156104a5576104a56004610ebc565b6104ae81610f89565b845260408082015190850152606080820151908501525b600160085460ff1660048111156104d857fe5b1415610596576104e9838383610fa0565b15610529576104f86000610ebc565b61050181610f89565b8452630a0b2a8960e31b60208501526040808201519085015260608082015190850152610596565b6105338383610e9b565b1561054c576105426002610ebc565b6007548452610596565b61055583610f14565b15610564576007548452610596565b61056e8383610ff8565b1561057d576105426002610ebc565b61058683610f37565b8452634c494e4b60e01b60208501525b600260085460ff1660048111156105a957fe5b1415610600576105ba838383610fa0565b156105fa576105c96000610ebc565b630a0b2a8960e31b60208501526105df81610f89565b84526040808201519085015260608082015190850152610600565b60075484525b600360085460ff16600481111561061357fe5b14156107f05761062281610e0f565b156106a3576106318383610e9b565b1561064a576106406002610ebc565b600754845261069e565b6106546001610ebc565b634c494e4b60e01b602085015261066a83610f14565b1561067957600754845261069e565b6106838383610ff8565b15610692576106406002610ebc565b61069b83610f37565b84525b6107f0565b6106ac81610f5a565b1561072f576106bb8383610e9b565b156106e1576106ca6004610ebc565b630a0b2a8960e31b6020850152600754845261069e565b6106ea83610f14565b156106f957600754845261069e565b6107038383610ff8565b15610712576106406002610ebc565b61071b83610f37565b8452634c494e4b60e01b60208501526107f0565b6107398383610e9b565b15610779576107486004610ebc565b630a0b2a8960e31b602085015261075e81610f89565b845260408082015190850152606080820151908501526107f0565b61078283610f14565b156107915760075484526107f0565b61079b8382611097565b156107aa576107486000610ebc565b6107b48383610ff8565b156107cd576107c36002610ebc565b60075484526107f0565b6107d683610f37565b84526107e26001610ebc565b634c494e4b60e01b60208501525b600460085460ff16600481111561080357fe5b14156108a15761081281610e0f565b1561082b576108216002610ebc565b60075484526108a1565b61083481610f5a565b156108435760075484526108a1565b61084e838383610fa0565b156108815761085d6000610ebc565b61086681610f89565b845260408082015190850152606080820151908501526108a1565b61088a81610f89565b845260408082015190850152606080820151908501525b50505092915050565b6108b26109b9565b6108d75760405162461bcd60e51b81526004016108ce9061190d565b60405180910390fd5b6108e08561110b565b6108e98461110b565b600180546001600160a01b038781166001600160a01b03199283161790925560028054928716929091169190911790556008805460ff1916905561092c83611154565b6109346114b3565b61093e83836109ca565b905061094981611159565b15801561095c575061095a81610f5a565b155b6109785760405162461bcd60e51b81526004016108ce906118c2565b61098181610f89565b5061098a61118f565b505050505050565b6706f05b59d3b2000081565b6608e1bc9bf0400081565b6000546001600160a01b03165b90565b6000546001600160a01b0316331490565b6109d26114b3565b60025460405163d47eed4560e01b81526000916001600160a01b03169063d47eed4590610a059087908790600401611762565b60206040518083038186803b158015610a1d57600080fd5b505afa158015610a31573d6000803e3d6000fd5b505050506040513d601f19601f82011682018060405250810190610a55919061169a565b600254604051631df3cbc560e31b81529192506001600160a01b03169063ef9e5e28908390610a8a9088908890600401611762565b6000604051808303818588803b158015610aa357600080fd5b505af1158015610ab7573d6000803e3d6000fd5b505060025460055460065460405163052571af60e51b81526001600160a01b03909316955063a4ae35e09450610af29350909160040161180c565b60806040518083038186803b158015610b0a57600080fd5b505afa925050508015610b3a575060408051601f3d908101601f19168201909252610b3791810190611612565b60015b610b445750610bbf565b610b4f8160126111d9565b60208085018290528201516001600160401b0316670de0b6b3a7640000029015610b9257815160649060070b8281610b8357fe5b0481610b8b57fe5b0460408501525b60608083015190850152602084015115801590610bb25750606084015115155b156108a157600184525050505b92915050565b670de0b6b3a764000081565b60405180604001604052806009815260200168141c9a58d95199595960ba1b81525081565b60055481565b61384081565b6002546001600160a01b031681565b610c19611485565b600160009054906101000a90046001600160a01b03166001600160a01b031663313ce5676040518163ffffffff1660e01b815260040160206040518083038186803b158015610c6757600080fd5b505afa925050508015610c97575060408051601f3d908101601f19168201909252610c9491810190611703565b60015b610ca0576109b6565b60ff166080820152600160009054906101000a90046001600160a01b03166001600160a01b031663feaf968c6040518163ffffffff1660e01b815260040160a06040518083038186803b158015610cf657600080fd5b505afa925050508015610d26575060408051601f3d908101601f19168201909252610d23918101906116b2565b60015b610d2f576109b6565b506001600160501b0390931684525060208301526040820152600160608201526109b6565b610d5c611485565b600154604051639a6fc8f560e01b81526001600160a01b0390911690639a6fc8f590610d90906000198701906004016119d8565b60a06040518083038186803b158015610da857600080fd5b505afa925050508015610dd8575060408051601f3d908101601f19168201909252610dd5918101906116b2565b60015b610de157610bbf565b506001600160501b039093168452506020830152604082015260ff8216608082015260016060820152610bbf565b8051600090610e2057506001610e96565b6060820151610e3157506001610e96565b4282606001511115610e63576060820151600590610e55904263ffffffff61123916565b1115610e6357506001610e96565b6000826020015111610e7757506001610e96565b60408201516608e1bc9bf040001015610e9257506001610e96565b5060005b919050565b6000610ea68361127b565b80610eb55750610eb58261127b565b9392505050565b6008805482919060ff19166001836004811115610ed557fe5b02179055507f5c57579a8214fe4f710c1c56fa829f045b9fa6d225a744225a30c32188064d4e81604051610f09919061181a565b60405180910390a150565b6000613840610f3083604001514261123990919063ffffffff16565b1192915050565b600080610f4f8360200151846080015160ff166112da565b9050610bbf81611323565b60008160600151421115610e9657601e610f8183606001514261123990919063ffffffff16565b119050610e96565b6000610f988260200151611323565b506020015190565b6000610fab82610e0f565b80610fba5750610fba82610f5a565b80610fca5750610fca8484610e9b565b80610fd95750610fd984610f14565b15610fe657506000610eb5565b610ff08483611097565b949350505050565b6000806110108460200151856080015160ff166112da565b905060006110298460200151856080015160ff166112da565b905060006110378383611358565b90506000611045848461136e565b9050600061108182611075670de0b6b3a7640000611069838863ffffffff61123916565b9063ffffffff61137e16565b9063ffffffff6113b816565b6706f05b59d3b200001098975050505050505050565b6000806110af8460200151856080015160ff166112da565b602084015190915060006110c38284611358565b905060006110d1838561136e565b905060006110f583611075670de0b6b3a7640000611069868463ffffffff61123916565b66b1a2bc2ec50000101598975050505050505050565b6001600160a01b0381166111315760405162461bcd60e51b81526004016108ce90611942565b803b806111505760405162461bcd60e51b81526004016108ce90611961565b5050565b600555565b805160009061116a57506001610e96565b606082015161117b57506001610e96565b6000826020015111610e9257506001610e96565b600080546040516001600160a01b03909116907f8be0079c531659141344cd1fd0a4f28419497f9722a3daafe3b4186f6b6457e0908390a3600080546001600160a01b0319169055565b600080836000015160070b12806111f757506000836040015160030b135b8061120a575060fe19836040015160030b125b1561121757506000610bbf565b604083015160000380830360ff16600a0a846000015160070b02915050610bbf565b6000610eb583836040518060400160405280601e81526020017f536166654d6174683a207375627472616374696f6e206f766572666c6f7700008152506113f7565b6000816060015161128e57506001610e96565b81516001600160501b03166112a557506001610e96565b604082015115806112b95750428260400151115b156112c657506001610e96565b6000826020015113610e9257506001610e96565b60008060128310611303576112fc846011198501600a0a63ffffffff6113b816565b9050610eb5565b6012831015610eb557610ff0846012859003600a0a63ffffffff61137e16565b60078190556040517f4d29de21de555af78a62fc82dd4bc05e9ae5b0660a37f04729527e0f22780cd390610f09908390611803565b60008183106113675781610eb5565b5090919050565b6000818310156113675781610eb5565b60008261138d57506000610bbf565b8282028284828161139a57fe5b0414610eb55760405162461bcd60e51b81526004016108ce90611881565b6000610eb583836040518060400160405280601a815260200179536166654d6174683a206469766973696f6e206279207a65726f60301b815250611423565b6000818484111561141b5760405162461bcd60e51b81526004016108ce919061182e565b505050900390565b600081836114445760405162461bcd60e51b81526004016108ce919061182e565b50600083858161145057fe5b0495945050505050565b6040518060800160405280600081526020016000801916815260200160008152602001600081525090565b6040805160a08101825260008082526020820181905291810182905260608101829052608081019190915290565b60405180608001604052806000151581526020016000815260200160008152602001600081525090565b80356001600160a01b0381168114610bbf57600080fd5b60008083601f840112611505578182fd5b5081356001600160401b0381111561151b578182fd5b602083019150836020808302850101111561153557600080fd5b9250929050565b8051600381900b8114610bbf57600080fd5b80516001600160501b0381168114610bbf57600080fd5b60008060008060006080868803121561157c578081fd5b61158687876114dd565b945061159587602088016114dd565b93506040860135925060608601356001600160401b038111156115b6578182fd5b6115c2888289016114f4565b969995985093965092949392505050565b600080602083850312156115e5578182fd5b82356001600160401b038111156115fa578283fd5b611606858286016114f4565b90969095509350505050565b600060808284031215611623578081fd5b604051608081016001600160401b038082118383101715611642578384fd5b81604052845191508160070b8214611658578384fd5b908252602084015190808216821461166e578384fd5b506020820152611681846040850161153c565b6040820152606083015160608201528091505092915050565b6000602082840312156116ab578081fd5b5051919050565b600080600080600060a086880312156116c9578081fd5b6116d3878761154e565b94506020860151935060408601519250606086015191506116f7876080880161154e565b90509295509295909350565b600060208284031215611714578081fd5b815160ff81168114610eb5578182fd5b60008284528282602086013780602084860101526020601f19601f85011685010190509392505050565b6001600160a01b0391909116815260200190565b602080825281810183905260009060408482028401810190840186845b878110156117eb57868403603f190183528135368a9003601e190181126117a4578687fd5b89018035906001600160401b038211156117bc578788fd5b8136038b13156117ca578788fd5b6117d78683898401611724565b95505050918401919084019060010161177f565b5091979650505050505050565b901515815260200190565b90815260200190565b918252602082015260400190565b602081016005831061182857fe5b91905290565b6000602080835283518082850152825b8181101561185a5785810183015185820160400152820161183e565b8181111561186b5783604083870101525b50601f01601f1916929092016040019392505050565b60208082526021908201527f536166654d6174683a206d756c7469706c69636174696f6e206f766572666c6f6040820152607760f81b606082015260800190565b6020808252602b908201527f5072696365466565643a2050797468206d75737420626520776f726b696e672060408201526a185b990818dd5c9c995b9d60aa1b606082015260800190565b6020808252818101527f4f776e61626c653a2063616c6c6572206973206e6f7420746865206f776e6572604082015260600190565b6020808252600590820152641830b2323960d91b604082015260600190565b60208082526005908201526430636f646560d81b604082015260600190565b8151815260208083015190820152604080830151908201526060918201519181019190915260800190565b81511515815260208083015190820152604080830151908201526060918201519181019190915260800190565b6001600160501b039190911681526020019056fea264697066735822122078058b5e499b653bf5261e9289e8a755f1d7deae1ad6ef3cd0af6d406976faac64736f6c634300060b0033",
  "linkReferences": {},
  "deployedLinkReferences": {}
}