{
  "_format": "hh-sol-artifact-1",
  "contractName": "PriceFeedTester",
  "sourceName": "contracts/TestContracts/PriceFeedTester.sol",
  "abi": [
    {
      "anonymous": false,
      "inputs": [
        {
          "indexed": false,
          "internalType": "uint256",
          "name": "_lastGoodPrice",
          "type": "uint256"
        }
      ],
      "name": "LastGoodPriceUpdated",
      "type": "event"
    },
    {
      "anonymous": false,
      "inputs": [
        {
          "indexed": true,
          "internalType": "address",
          "name": "previousOwner",
          "type": "address"
        },
        {
          "indexed": true,
          "internalType": "address",
          "name": "newOwner",
          "type": "address"
        }
      ],
      "name": "OwnershipTransferred",
      "type": "event"
    },
    {
      "anonymous": false,
      "inputs": [
        {
          "indexed": false,
          "internalType": "enum PriceFeed.Status",
          "name": "newStatus",
          "type": "uint8"
        }
      ],
      "name": "PriceFeedStatusChanged",
      "type": "event"
    },
    {
      "inputs": [],
      "name": "BNBFeed",
      "outputs": [
        {
          "internalType": "bytes32",
          "name": "",
          "type": "bytes32"
        }
      ],
      "stateMutability": "view",
      "type": "function"
    },
    {
      "inputs": [],
      "name": "DECIMAL_PRECISION",
      "outputs": [
        {
          "internalType": "uint256",
          "name": "",
          "type": "uint256"
        }
      ],
      "stateMutability": "view",
      "type": "function"
    },
    {
      "inputs": [],
      "name": "MAX_PRICE_DEVIATION_FROM_PREVIOUS_ROUND",
      "outputs": [
        {
          "internalType": "uint256",
          "name": "",
          "type": "uint256"
        }
      ],
      "stateMutability": "view",
      "type": "function"
    },
    {
      "inputs": [],
      "name": "MAX_PRICE_DIFFERENCE_BETWEEN_ORACLES",
      "outputs": [
        {
          "internalType": "uint256",
          "name": "",
          "type": "uint256"
        }
      ],
      "stateMutability": "view",
      "type": "function"
    },
    {
      "inputs": [],
      "name": "MAX_SCALED_DEVIATION_PYTH",
      "outputs": [
        {
          "internalType": "uint256",
          "name": "",
          "type": "uint256"
        }
      ],
      "stateMutability": "view",
      "type": "function"
    },
    {
      "inputs": [],
      "name": "NAME",
      "outputs": [
        {
          "internalType": "string",
          "name": "",
          "type": "string"
        }
      ],
      "stateMutability": "view",
      "type": "function"
    },
    {
      "inputs": [],
      "name": "PYTH_DIGITS",
      "outputs": [
        {
          "internalType": "uint256",
          "name": "",
          "type": "uint256"
        }
      ],
      "stateMutability": "view",
      "type": "function"
    },
    {
      "inputs": [],
      "name": "TARGET_DIGITS",
      "outputs": [
        {
          "internalType": "uint256",
          "name": "",
          "type": "uint256"
        }
      ],
      "stateMutability": "view",
      "type": "function"
    },
    {
      "inputs": [],
      "name": "TIMEOUT",
      "outputs": [
        {
          "internalType": "uint256",
          "name": "",
          "type": "uint256"
        }
      ],
      "stateMutability": "view",
      "type": "function"
    },
    {
      "inputs": [
        {
          "internalType": "bytes[]",
          "name": "priceFeedUpdateData",
          "type": "bytes[]"
        }
      ],
      "name": "_getCurrentPythResponse",
      "outputs": [
        {
          "components": [
            {
              "internalType": "bool",
              "name": "success",
              "type": "bool"
            },
            {
              "internalType": "uint256",
              "name": "pricePyth",
              "type": "uint256"
            },
            {
              "internalType": "uint256",
              "name": "deviationPyth",
              "type": "uint256"
            },
            {
              "internalType": "uint256",
              "name": "publishTimePyth",
              "type": "uint256"
            }
          ],
          "internalType": "struct PriceFeed.PythResponse",
          "name": "pythResponse",
          "type": "tuple"
        }
      ],
      "stateMutability": "payable",
      "type": "function"
    },
    {
      "inputs": [],
      "name": "age",
      "outputs": [
        {
          "internalType": "uint256",
          "name": "",
          "type": "uint256"
        }
      ],
      "stateMutability": "view",
      "type": "function"
    },
    {
      "inputs": [
        {
          "internalType": "bytes[]",
          "name": "priceFeedUpdateData",
          "type": "bytes[]"
        }
      ],
      "name": "fetchPrice",
      "outputs": [
        {
          "components": [
            {
              "internalType": "uint256",
              "name": "price",
              "type": "uint256"
            },
            {
              "internalType": "bytes32",
              "name": "oracleKey",
              "type": "bytes32"
            },
            {
              "internalType": "uint256",
              "name": "deviationPyth",
              "type": "uint256"
            },
            {
              "internalType": "uint256",
              "name": "publishTimePyth",
              "type": "uint256"
            }
          ],
          "internalType": "struct IPriceFeed.FetchPriceResult",
          "name": "result",
          "type": "tuple"
        }
      ],
      "stateMutability": "nonpayable",
      "type": "function"
    },
    {
      "inputs": [],
      "name": "getInternalFetchPriceResult",
      "outputs": [
        {
          "components": [
            {
              "internalType": "uint256",
              "name": "price",
              "type": "uint256"
            },
            {
              "internalType": "bytes32",
              "name": "oracleKey",
              "type": "bytes32"
            },
            {
              "internalType": "uint256",
              "name": "deviationPyth",
              "type": "uint256"
            },
            {
              "internalType": "uint256",
              "name": "publishTimePyth",
              "type": "uint256"
            }
          ],
          "internalType": "struct IPriceFeed.FetchPriceResult",
          "name": "",
          "type": "tuple"
        }
      ],
      "stateMutability": "view",
      "type": "function"
    },
    {
      "inputs": [],
      "name": "isOwner",
      "outputs": [
        {
          "internalType": "bool",
          "name": "",
          "type": "bool"
        }
      ],
      "stateMutability": "view",
      "type": "function"
    },
    {
      "inputs": [],
      "name": "lastGoodPrice",
      "outputs": [
        {
          "internalType": "uint256",
          "name": "",
          "type": "uint256"
        }
      ],
      "stateMutability": "view",
      "type": "function"
    },
    {
      "inputs": [
        {
          "internalType": "bytes[]",
          "name": "priceFeedUpdateData",
          "type": "bytes[]"
        }
      ],
      "name": "logPythFetchPriceResult",
      "outputs": [],
      "stateMutability": "payable",
      "type": "function"
    },
    {
      "inputs": [],
      "name": "owner",
      "outputs": [
        {
          "internalType": "address",
          "name": "",
          "type": "address"
        }
      ],
      "stateMutability": "view",
      "type": "function"
    },
    {
      "inputs": [],
      "name": "priceAggregator",
      "outputs": [
        {
          "internalType": "contract AggregatorV3Interface",
          "name": "",
          "type": "address"
        }
      ],
      "stateMutability": "view",
      "type": "function"
    },
    {
      "inputs": [],
      "name": "pyth",
      "outputs": [
        {
          "internalType": "contract IPyth",
          "name": "",
          "type": "address"
        }
      ],
      "stateMutability": "view",
      "type": "function"
    },
    {
      "inputs": [
        {
          "internalType": "address",
          "name": "_priceAggregatorAddress",
          "type": "address"
        },
        {
          "internalType": "address",
          "name": "_pythAddress",
          "type": "address"
        },
        {
          "internalType": "bytes32",
          "name": "_bnbFeedPyth",
          "type": "bytes32"
        },
        {
          "internalType": "bytes[]",
          "name": "priceFeedUpdateData",
          "type": "bytes[]"
        }
      ],
      "name": "setAddresses",
      "outputs": [],
      "stateMutability": "payable",
      "type": "function"
    },
    {
      "inputs": [
        {
          "internalType": "address",
          "name": "_priceAggregatorAddress",
          "type": "address"
        },
        {
          "internalType": "address",
          "name": "_pythAddress",
          "type": "address"
        },
        {
          "internalType": "bytes32",
          "name": "_bnbPriceFeedId",
          "type": "bytes32"
        }
      ],
      "name": "setAddressesTestnet",
      "outputs": [],
      "stateMutability": "payable",
      "type": "function"
    },
    {
      "inputs": [
        {
          "internalType": "uint256",
          "name": "_lastGoodPrice",
          "type": "uint256"
        }
      ],
      "name": "setLastGoodPrice",
      "outputs": [],
      "stateMutability": "nonpayable",
      "type": "function"
    },
    {
      "inputs": [
        {
          "internalType": "enum PriceFeed.Status",
          "name": "_status",
          "type": "uint8"
        }
      ],
      "name": "setStatus",
      "outputs": [],
      "stateMutability": "nonpayable",
      "type": "function"
    },
    {
      "inputs": [],
      "name": "status",
      "outputs": [
        {
          "internalType": "enum PriceFeed.Status",
          "name": "",
          "type": "uint8"
        }
      ],
      "stateMutability": "view",
      "type": "function"
    },
    {
      "stateMutability": "payable",
      "type": "receive"
    }
  ],
  "bytecode": "0x6078600655680ad78ebc5ac620000060098190556101006040526080819052634c494e4b60e01b60a0819052600060c081905260e0819052600a92909255600b55600c819055600d5534801561005457600080fd5b50600080546001600160a01b0319163390811782556040519091907f8be0079c531659141344cd1fd0a4f28419497f9722a3daafe3b4186f6b6457e0908290a3611e0d806100a36000396000f3fe60806040526004361061011f5760003560e01c80630490be831461012b5780631be5c92f14610156578063200d2ed21461016b578063262a9dff1461018d5780632caa8f11146101a25780632e49d78b146101b75780633078fff5146101d957806342866e67146101fb57806345079cb41461020e5780634e15f2a514610223578063536863a51461025057806358a6aa881461026357806377c3357c146102785780638da5cb5b1461028d5780638f32d59b146102a2578063a1be5269146102c4578063a20baee6146102e4578063a3f4df7e146102f9578063c2da42991461031b578063c521b3f514610330578063d68ee55614610350578063f56f48f214610365578063f98d06f01461037a578063fabbf8391461038f57610126565b3661012657005b600080fd5b34801561013757600080fd5b506101406103a2565b60405161014d9190611bc8565b60405180910390f35b34801561016257600080fd5b506101406103a8565b34801561017757600080fd5b506101806103ad565b60405161014d9190611bdf565b34801561019957600080fd5b506101406103b6565b3480156101ae57600080fd5b506101406103bc565b3480156101c357600080fd5b506101d76101d236600461196a565b6103c1565b005b3480156101e557600080fd5b506101ee6103e2565b60405161014d9190611b13565b6101d761020936600461192b565b6103f1565b34801561021a57600080fd5b50610140610573565b34801561022f57600080fd5b5061024361023e36600461192b565b61057e565b60405161014d9190611d45565b6101d761025e3660046118bd565b610b0c565b34801561026f57600080fd5b50610140610bf4565b34801561028457600080fd5b50610140610c00565b34801561029957600080fd5b506101ee610c0b565b3480156102ae57600080fd5b506102b7610c1b565b60405161014d9190611bbd565b6102d76102d236600461192b565b610c2c565b60405161014d9190611d70565b3480156102f057600080fd5b50610140610e27565b34801561030557600080fd5b5061030e610e33565b60405161014d9190611bf3565b34801561032757600080fd5b50610140610e58565b34801561033c57600080fd5b506101d761034b366004611a47565b610e5e565b34801561035c57600080fd5b50610243610e63565b34801561037157600080fd5b50610140610e98565b34801561038657600080fd5b506101ee610e9e565b6101d761039d366004611880565b610ead565b60075481565b601281565b60085460ff1681565b60065481565b600881565b6008805482919060ff191660018360048111156103da57fe5b021790555050565b6001546001600160a01b031681565b60025460405163d47eed4560e01b81526000916001600160a01b03169063d47eed45906104249086908690600401611b27565b60206040518083038186803b15801561043c57600080fd5b505afa158015610450573d6000803e3d6000fd5b505050506040513d601f19601f820116820180604052508101906104749190611a5f565b600254604051631df3cbc560e31b81529192506001600160a01b03169063ef9e5e289083906104a99087908790600401611b27565b6000604051808303818588803b1580156104c257600080fd5b505af11580156104d6573d6000803e3d6000fd5b5050604051634e15f2a560e01b8152309350634e15f2a59250610500915086908690600401611b27565b608060405180830381600087803b15801561051a57600080fd5b505af115801561052e573d6000803e3d6000fd5b505050506040513d601f19601f820116820180604052508101906105529190611989565b8051600a556020810151600b556040810151600c5560600151600d55505050565b66b1a2bc2ec5000081565b610586611787565b61058e6117b2565b610596610f3e565b90506105a06117b2565b6105b282600001518360800151611081565b90506105bc6117e0565b6105c68686610c2c565b60008086526040860181905260608601819052630a0b2a8960e31b602087015290915060085460ff1660048111156105fa57fe5b1415610727576106098161113c565b156106885761061883836111c8565b156106315761062760026111e9565b6007548452610683565b61063a83611241565b156106605761064960016111e9565b6007548452634c494e4b60e01b6020850152610683565b61066a60016111e9565b61067383611264565b8452634c494e4b60e01b60208501525b610727565b61069181611287565b156106ee576106a083836111c8565b156106af5761062760046111e9565b6106b960036111e9565b634c494e4b60e01b60208501526106cf83611241565b156106de576007548452610683565b6106e783611264565b8452610727565b6106f883836111c8565b156107075761070760046111e9565b610710816112b6565b845260408082015190850152606080820151908501525b600160085460ff16600481111561073a57fe5b14156107f85761074b8383836112cd565b1561078b5761075a60006111e9565b610763816112b6565b8452630a0b2a8960e31b602085015260408082015190850152606080820151908501526107f8565b61079583836111c8565b156107ae576107a460026111e9565b60075484526107f8565b6107b783611241565b156107c65760075484526107f8565b6107d08383611325565b156107df576107a460026111e9565b6107e883611264565b8452634c494e4b60e01b60208501525b600260085460ff16600481111561080b57fe5b14156108625761081c8383836112cd565b1561085c5761082b60006111e9565b630a0b2a8960e31b6020850152610841816112b6565b84526040808201519085015260608082015190850152610862565b60075484525b600360085460ff16600481111561087557fe5b1415610a52576108848161113c565b156109055761089383836111c8565b156108ac576108a260026111e9565b6007548452610900565b6108b660016111e9565b634c494e4b60e01b60208501526108cc83611241565b156108db576007548452610900565b6108e58383611325565b156108f4576108a260026111e9565b6108fd83611264565b84525b610a52565b61090e81611287565b156109915761091d83836111c8565b156109435761092c60046111e9565b630a0b2a8960e31b60208501526007548452610900565b61094c83611241565b1561095b576007548452610900565b6109658383611325565b15610974576108a260026111e9565b61097d83611264565b8452634c494e4b60e01b6020850152610a52565b61099b83836111c8565b156109db576109aa60046111e9565b630a0b2a8960e31b60208501526109c0816112b6565b84526040808201519085015260608082015190850152610a52565b6109e483611241565b156109f3576007548452610a52565b6109fd83826113c4565b15610a0c576109aa60006111e9565b610a168383611325565b15610a2f57610a2560026111e9565b6007548452610a52565b610a3883611264565b8452610a4460016111e9565b634c494e4b60e01b60208501525b600460085460ff166004811115610a6557fe5b1415610b0357610a748161113c565b15610a8d57610a8360026111e9565b6007548452610b03565b610a9681611287565b15610aa5576007548452610b03565b610ab08383836112cd565b15610ae357610abf60006111e9565b610ac8816112b6565b84526040808201519085015260608082015190850152610b03565b610aec816112b6565b845260408082015190850152606080820151908501525b50505092915050565b610b14610c1b565b610b395760405162461bcd60e51b8152600401610b3090611cd2565b60405180910390fd5b610b4285611438565b610b4b84611438565b600180546001600160a01b038781166001600160a01b03199283161790925560028054928716929091169190911790556008805460ff19169055610b8e83611481565b610b966117e0565b610ba08383610c2c565b9050610bab81611486565b158015610bbe5750610bbc81611287565b155b610bda5760405162461bcd60e51b8152600401610b3090611c87565b610be3816112b6565b50610bec6114bc565b505050505050565b6706f05b59d3b2000081565b6608e1bc9bf0400081565b6000546001600160a01b03165b90565b6000546001600160a01b0316331490565b610c346117e0565b60025460405163d47eed4560e01b81526000916001600160a01b03169063d47eed4590610c679087908790600401611b27565b60206040518083038186803b158015610c7f57600080fd5b505afa158015610c93573d6000803e3d6000fd5b505050506040513d601f19601f82011682018060405250810190610cb79190611a5f565b600254604051631df3cbc560e31b81529192506001600160a01b03169063ef9e5e28908390610cec9088908890600401611b27565b6000604051808303818588803b158015610d0557600080fd5b505af1158015610d19573d6000803e3d6000fd5b505060025460055460065460405163052571af60e51b81526001600160a01b03909316955063a4ae35e09450610d5493509091600401611bd1565b60806040518083038186803b158015610d6c57600080fd5b505afa925050508015610d9c575060408051601f3d908101601f19168201909252610d99918101906119d0565b60015b610da65750610e21565b610db1816012611506565b60208085018290528201516001600160401b0316670de0b6b3a7640000029015610df457815160649060070b8281610de557fe5b0481610ded57fe5b0460408501525b60608083015190850152602084015115801590610e145750606084015115155b15610b0357600184525050505b92915050565b670de0b6b3a764000081565b60405180604001604052806009815260200168141c9a58d95199595960ba1b81525081565b60055481565b600755565b610e6b611787565b5060408051608081018252600a548152600b546020820152600c5491810191909152600d54606082015290565b61384081565b6002546001600160a01b031681565b610eb5610c1b565b610ed15760405162461bcd60e51b8152600401610b3090611cd2565b610eda83611438565b610ee382611438565b600180546001600160a01b038581166001600160a01b03199283161790925560028054928516929091169190911790556008805460ff19169055610f2681611481565b610f31600954611566565b610f396114bc565b505050565b610f466117b2565b600160009054906101000a90046001600160a01b03166001600160a01b031663313ce5676040518163ffffffff1660e01b815260040160206040518083038186803b158015610f9457600080fd5b505afa925050508015610fc4575060408051601f3d908101601f19168201909252610fc191810190611ac8565b60015b610fcd57610c18565b60ff166080820152600160009054906101000a90046001600160a01b03166001600160a01b031663feaf968c6040518163ffffffff1660e01b815260040160a06040518083038186803b15801561102357600080fd5b505afa925050508015611053575060408051601f3d908101601f1916820190925261105091810190611a77565b60015b61105c57610c18565b506001600160501b039093168452506020830152604082015260016060820152610c18565b6110896117b2565b600154604051639a6fc8f560e01b81526001600160a01b0390911690639a6fc8f5906110bd90600019870190600401611d9d565b60a06040518083038186803b1580156110d557600080fd5b505afa925050508015611105575060408051601f3d908101601f1916820190925261110291810190611a77565b60015b61110e57610e21565b506001600160501b039093168452506020830152604082015260ff8216608082015260016060820152610e21565b805160009061114d575060016111c3565b606082015161115e575060016111c3565b4282606001511115611190576060820151600590611182904263ffffffff61159b16565b1115611190575060016111c3565b60008260200151116111a4575060016111c3565b60408201516608e1bc9bf0400010156111bf575060016111c3565b5060005b919050565b60006111d3836115dd565b806111e257506111e2826115dd565b9392505050565b6008805482919060ff1916600183600481111561120257fe5b02179055507f5c57579a8214fe4f710c1c56fa829f045b9fa6d225a744225a30c32188064d4e816040516112369190611bdf565b60405180910390a150565b600061384061125d83604001514261159b90919063ffffffff16565b1192915050565b60008061127c8360200151846080015160ff1661163c565b9050610e2181611566565b600081606001514211156111c357601e6112ae83606001514261159b90919063ffffffff16565b1190506111c3565b60006112c58260200151611566565b506020015190565b60006112d88261113c565b806112e757506112e782611287565b806112f757506112f784846111c8565b80611306575061130684611241565b15611313575060006111e2565b61131d84836113c4565b949350505050565b60008061133d8460200151856080015160ff1661163c565b905060006113568460200151856080015160ff1661163c565b905060006113648383611685565b90506000611372848461169b565b905060006113ae826113a2670de0b6b3a7640000611396838863ffffffff61159b16565b9063ffffffff6116ab16565b9063ffffffff6116e516565b6706f05b59d3b200001098975050505050505050565b6000806113dc8460200151856080015160ff1661163c565b602084015190915060006113f08284611685565b905060006113fe838561169b565b90506000611422836113a2670de0b6b3a7640000611396868463ffffffff61159b16565b66b1a2bc2ec50000101598975050505050505050565b6001600160a01b03811661145e5760405162461bcd60e51b8152600401610b3090611d07565b803b8061147d5760405162461bcd60e51b8152600401610b3090611d26565b5050565b600555565b8051600090611497575060016111c3565b60608201516114a8575060016111c3565b60008260200151116111bf575060016111c3565b600080546040516001600160a01b03909116907f8be0079c531659141344cd1fd0a4f28419497f9722a3daafe3b4186f6b6457e0908390a3600080546001600160a01b0319169055565b600080836000015160070b128061152457506000836040015160030b135b80611537575060fe19836040015160030b125b1561154457506000610e21565b604083015160000380830360ff16600a0a846000015160070b02915050610e21565b60078190556040517f4d29de21de555af78a62fc82dd4bc05e9ae5b0660a37f04729527e0f22780cd390611236908390611bc8565b60006111e283836040518060400160405280601e81526020017f536166654d6174683a207375627472616374696f6e206f766572666c6f770000815250611724565b600081606001516115f0575060016111c3565b81516001600160501b0316611607575060016111c3565b6040820151158061161b5750428260400151115b15611628575060016111c3565b60008260200151136111bf575060016111c3565b600080601283106116655761165e846011198501600a0a63ffffffff6116e516565b90506111e2565b60128310156111e25761131d846012859003600a0a63ffffffff6116ab16565b600081831061169457816111e2565b5090919050565b60008183101561169457816111e2565b6000826116ba57506000610e21565b828202828482816116c757fe5b04146111e25760405162461bcd60e51b8152600401610b3090611c46565b60006111e283836040518060400160405280601a815260200179536166654d6174683a206469766973696f6e206279207a65726f60301b815250611750565b600081848411156117485760405162461bcd60e51b8152600401610b309190611bf3565b505050900390565b600081836117715760405162461bcd60e51b8152600401610b309190611bf3565b50600083858161177d57fe5b0495945050505050565b6040518060800160405280600081526020016000801916815260200160008152602001600081525090565b6040805160a08101825260008082526020820181905291810182905260608101829052608081019190915290565b60405180608001604052806000151581526020016000815260200160008152602001600081525090565b80356001600160a01b0381168114610e2157600080fd5b60008083601f840112611832578182fd5b5081356001600160401b03811115611848578182fd5b602083019150836020808302850101111561186257600080fd5b9250929050565b80516001600160501b0381168114610e2157600080fd5b600080600060608486031215611894578283fd5b61189e858561180a565b92506118ad856020860161180a565b9150604084013590509250925092565b6000806000806000608086880312156118d4578081fd5b6118de878761180a565b94506118ed876020880161180a565b93506040860135925060608601356001600160401b0381111561190e578182fd5b61191a88828901611821565b969995985093965092949392505050565b6000806020838503121561193d578182fd5b82356001600160401b03811115611952578283fd5b61195e85828601611821565b90969095509350505050565b60006020828403121561197b578081fd5b8135600581106111e2578182fd5b60006080828403121561199a578081fd5b6119a46080611db1565b825181526020830151602082015260408301516040820152606083015160608201528091505092915050565b6000608082840312156119e1578081fd5b6119eb6080611db1565b82518060070b81146119fb578283fd5b815260208301516001600160401b0381168114611a16578283fd5b60208201526040830151600381900b8114611a2f578283fd5b60408201526060928301519281019290925250919050565b600060208284031215611a58578081fd5b5035919050565b600060208284031215611a70578081fd5b5051919050565b600080600080600060a08688031215611a8e578081fd5b611a988787611869565b9450602086015193506040860151925060608601519150611abc8760808801611869565b90509295509295909350565b600060208284031215611ad9578081fd5b815160ff811681146111e2578182fd5b60008284528282602086013780602084860101526020601f19601f85011685010190509392505050565b6001600160a01b0391909116815260200190565b602080825281810183905260009060408482028401810190840186845b87811015611bb057868403603f190183528135368a9003601e19018112611b69578687fd5b89018035906001600160401b03821115611b81578788fd5b8136038b1315611b8f578788fd5b611b9c8683898401611ae9565b955050509184019190840190600101611b44565b5091979650505050505050565b901515815260200190565b90815260200190565b918252602082015260400190565b6020810160058310611bed57fe5b91905290565b6000602080835283518082850152825b81811015611c1f57858101830151858201604001528201611c03565b81811115611c305783604083870101525b50601f01601f1916929092016040019392505050565b60208082526021908201527f536166654d6174683a206d756c7469706c69636174696f6e206f766572666c6f6040820152607760f81b606082015260800190565b6020808252602b908201527f5072696365466565643a2050797468206d75737420626520776f726b696e672060408201526a185b990818dd5c9c995b9d60aa1b606082015260800190565b6020808252818101527f4f776e61626c653a2063616c6c6572206973206e6f7420746865206f776e6572604082015260600190565b6020808252600590820152641830b2323960d91b604082015260600190565b60208082526005908201526430636f646560d81b604082015260600190565b8151815260208083015190820152604080830151908201526060918201519181019190915260800190565b81511515815260208083015190820152604080830151908201526060918201519181019190915260800190565b6001600160501b0391909116815260200190565b6040518181016001600160401b0381118282101715611dcf57600080fd5b60405291905056fea26469706673582212204d8948da952216da36cdf200c55c1d63f5a9f983f05dda0f5424b1c1d589822064736f6c634300060b0033",
  "linkReferences": {},
  "deployedLinkReferences": {}
}