{
  "_format": "hh-sol-artifact-1",
  "contractName": "SortedTroves",
  "sourceName": "contracts/SortedTroves.sol",
  "abi": [
    {
      "anonymous": false,
      "inputs": [
        {
          "indexed": false,
          "internalType": "address",
          "name": "_borrowerOperationsAddress",
          "type": "address"
        }
      ],
      "name": "BorrowerOperationsAddressChanged",
      "type": "event"
    },
    {
      "anonymous": false,
      "inputs": [
        {
          "indexed": false,
          "internalType": "address",
          "name": "_id",
          "type": "address"
        },
        {
          "indexed": false,
          "internalType": "uint256",
          "name": "_NICR",
          "type": "uint256"
        }
      ],
      "name": "NodeAdded",
      "type": "event"
    },
    {
      "anonymous": false,
      "inputs": [
        {
          "indexed": false,
          "internalType": "address",
          "name": "_id",
          "type": "address"
        }
      ],
      "name": "NodeRemoved",
      "type": "event"
    },
    {
      "anonymous": false,
      "inputs": [
        {
          "indexed": true,
          "internalType": "address",
          "name": "previousOwner",
          "type": "address"
        },
        {
          "indexed": true,
          "internalType": "address",
          "name": "newOwner",
          "type": "address"
        }
      ],
      "name": "OwnershipTransferred",
      "type": "event"
    },
    {
      "anonymous": false,
      "inputs": [
        {
          "indexed": false,
          "internalType": "address",
          "name": "_sortedDoublyLLAddress",
          "type": "address"
        }
      ],
      "name": "SortedTrovesAddressChanged",
      "type": "event"
    },
    {
      "anonymous": false,
      "inputs": [
        {
          "indexed": false,
          "internalType": "address",
          "name": "_troveManagerAddress",
          "type": "address"
        }
      ],
      "name": "TroveManagerAddressChanged",
      "type": "event"
    },
    {
      "inputs": [],
      "name": "NAME",
      "outputs": [
        {
          "internalType": "string",
          "name": "",
          "type": "string"
        }
      ],
      "stateMutability": "view",
      "type": "function"
    },
    {
      "inputs": [],
      "name": "borrowerOperationsAddress",
      "outputs": [
        {
          "internalType": "address",
          "name": "",
          "type": "address"
        }
      ],
      "stateMutability": "view",
      "type": "function"
    },
    {
      "inputs": [
        {
          "internalType": "address",
          "name": "_id",
          "type": "address"
        }
      ],
      "name": "contains",
      "outputs": [
        {
          "internalType": "bool",
          "name": "",
          "type": "bool"
        }
      ],
      "stateMutability": "view",
      "type": "function"
    },
    {
      "inputs": [],
      "name": "data",
      "outputs": [
        {
          "internalType": "address",
          "name": "head",
          "type": "address"
        },
        {
          "internalType": "address",
          "name": "tail",
          "type": "address"
        },
        {
          "internalType": "uint256",
          "name": "maxSize",
          "type": "uint256"
        },
        {
          "internalType": "uint256",
          "name": "size",
          "type": "uint256"
        }
      ],
      "stateMutability": "view",
      "type": "function"
    },
    {
      "inputs": [
        {
          "internalType": "uint256",
          "name": "_NICR",
          "type": "uint256"
        },
        {
          "internalType": "address",
          "name": "_prevId",
          "type": "address"
        },
        {
          "internalType": "address",
          "name": "_nextId",
          "type": "address"
        }
      ],
      "name": "findInsertPosition",
      "outputs": [
        {
          "internalType": "address",
          "name": "",
          "type": "address"
        },
        {
          "internalType": "address",
          "name": "",
          "type": "address"
        }
      ],
      "stateMutability": "view",
      "type": "function"
    },
    {
      "inputs": [],
      "name": "getFirst",
      "outputs": [
        {
          "internalType": "address",
          "name": "",
          "type": "address"
        }
      ],
      "stateMutability": "view",
      "type": "function"
    },
    {
      "inputs": [],
      "name": "getLast",
      "outputs": [
        {
          "internalType": "address",
          "name": "",
          "type": "address"
        }
      ],
      "stateMutability": "view",
      "type": "function"
    },
    {
      "inputs": [],
      "name": "getMaxSize",
      "outputs": [
        {
          "internalType": "uint256",
          "name": "",
          "type": "uint256"
        }
      ],
      "stateMutability": "view",
      "type": "function"
    },
    {
      "inputs": [
        {
          "internalType": "address",
          "name": "_id",
          "type": "address"
        }
      ],
      "name": "getNext",
      "outputs": [
        {
          "internalType": "address",
          "name": "",
          "type": "address"
        }
      ],
      "stateMutability": "view",
      "type": "function"
    },
    {
      "inputs": [
        {
          "internalType": "address",
          "name": "_id",
          "type": "address"
        }
      ],
      "name": "getPrev",
      "outputs": [
        {
          "internalType": "address",
          "name": "",
          "type": "address"
        }
      ],
      "stateMutability": "view",
      "type": "function"
    },
    {
      "inputs": [],
      "name": "getSize",
      "outputs": [
        {
          "internalType": "uint256",
          "name": "",
          "type": "uint256"
        }
      ],
      "stateMutability": "view",
      "type": "function"
    },
    {
      "inputs": [
        {
          "components": [
            {
              "internalType": "address",
              "name": "id",
              "type": "address"
            },
            {
              "internalType": "uint256",
              "name": "newNICR",
              "type": "uint256"
            },
            {
              "internalType": "address",
              "name": "prevId",
              "type": "address"
            },
            {
              "internalType": "address",
              "name": "nextId",
              "type": "address"
            }
          ],
          "internalType": "struct ISortedTroves.SortedTrovesInsertParam",
          "name": "param",
          "type": "tuple"
        }
      ],
      "name": "insert",
      "outputs": [],
      "stateMutability": "nonpayable",
      "type": "function"
    },
    {
      "inputs": [],
      "name": "isEmpty",
      "outputs": [
        {
          "internalType": "bool",
          "name": "",
          "type": "bool"
        }
      ],
      "stateMutability": "view",
      "type": "function"
    },
    {
      "inputs": [],
      "name": "isFull",
      "outputs": [
        {
          "internalType": "bool",
          "name": "",
          "type": "bool"
        }
      ],
      "stateMutability": "view",
      "type": "function"
    },
    {
      "inputs": [],
      "name": "isOwner",
      "outputs": [
        {
          "internalType": "bool",
          "name": "",
          "type": "bool"
        }
      ],
      "stateMutability": "view",
      "type": "function"
    },
    {
      "inputs": [],
      "name": "owner",
      "outputs": [
        {
          "internalType": "address",
          "name": "",
          "type": "address"
        }
      ],
      "stateMutability": "view",
      "type": "function"
    },
    {
      "inputs": [
        {
          "components": [
            {
              "internalType": "address",
              "name": "id",
              "type": "address"
            },
            {
              "internalType": "uint256",
              "name": "newNICR",
              "type": "uint256"
            },
            {
              "internalType": "address",
              "name": "prevId",
              "type": "address"
            },
            {
              "internalType": "address",
              "name": "nextId",
              "type": "address"
            }
          ],
          "internalType": "struct ISortedTroves.SortedTrovesInsertParam",
          "name": "param",
          "type": "tuple"
        }
      ],
      "name": "reInsert",
      "outputs": [],
      "stateMutability": "nonpayable",
      "type": "function"
    },
    {
      "inputs": [
        {
          "internalType": "address",
          "name": "_id",
          "type": "address"
        }
      ],
      "name": "remove",
      "outputs": [],
      "stateMutability": "nonpayable",
      "type": "function"
    },
    {
      "inputs": [
        {
          "internalType": "uint256",
          "name": "_size",
          "type": "uint256"
        },
        {
          "internalType": "address",
          "name": "_troveManagerAddress",
          "type": "address"
        },
        {
          "internalType": "address",
          "name": "_borrowerOperationsAddress",
          "type": "address"
        }
      ],
      "name": "setParams",
      "outputs": [],
      "stateMutability": "nonpayable",
      "type": "function"
    },
    {
      "inputs": [],
      "name": "troveManager",
      "outputs": [
        {
          "internalType": "contract ITroveManager",
          "name": "",
          "type": "address"
        }
      ],
      "stateMutability": "view",
      "type": "function"
    },
    {
      "inputs": [
        {
          "internalType": "uint256",
          "name": "_NICR",
          "type": "uint256"
        },
        {
          "internalType": "address",
          "name": "_prevId",
          "type": "address"
        },
        {
          "internalType": "address",
          "name": "_nextId",
          "type": "address"
        }
      ],
      "name": "validInsertPosition",
      "outputs": [
        {
          "internalType": "bool",
          "name": "",
          "type": "bool"
        }
      ],
      "stateMutability": "view",
      "type": "function"
    }
  ],
  "bytecode": "0x608060405234801561001057600080fd5b50600080546001600160a01b0319163390811782556040519091907f8be0079c531659141344cd1fd0a4f28419497f9722a3daafe3b4186f6b6457e0908290a36117f48061005f6000396000f3fe608060405234801561001057600080fd5b50600436106101075760003560e01c80631e2231431461010c57806329092d0e1461012a5780633d83908a1461013f5780633fce12d514610147578063416980dc146101675780634d622831146101885780635dbe47e81461019057806363e1d57c146101a3578063681fe70c146101b857806373d4a13a146101c0578063765e0159146101d8578063806093b8146101eb5780638c2d33eb146101fe5780638da5cb5b146102115780638f32d59b14610219578063a3f4df7e14610221578063b72703ac14610236578063b7f8cf9b14610249578063babd3d9a14610251578063de8fa43114610259578063f376d79814610261575b600080fd5b610114610274565b604051610121919061140b565b60405180910390f35b61013d610138366004611315565b610283565b005b610114610297565b61015a6101553660046113ca565b6102a6565b604051610121919061147b565b61017a6101753660046113ca565b6102c9565b60405161012192919061141f565b6101146102f3565b61015a61019e366004611315565b610302565b6101ab610320565b60405161012191906117a0565b61015a610326565b6101c861032d565b6040516101219493929190611439565b6101146101e6366004611315565b61034c565b61013d6101f936600461133c565b61036f565b61013d61020c36600461133c565b6103f1565b610114610406565b61015a610415565b610229610426565b6040516101219190611486565b610114610244366004611315565b61044e565b61011461046f565b61015a61047e565b6101ab610488565b61013d61026f3660046113ca565b61048e565b6003546001600160a01b031690565b61028b610595565b610294816105c1565b50565b6002546001600160a01b031681565b6002546000906102c1906001600160a01b03168585856107d2565b949350505050565b60025460009081906102e6906001600160a01b0316868686610a3e565b915091505b935093915050565b6004546001600160a01b031690565b6001600160a01b031660009081526007602052604090205460ff1690565b60055490565b6006541590565b6003546004546005546006546001600160a01b03938416939092169184565b6001600160a01b0390811660009081526007602052604090205461010090041690565b6002546001600160a01b031661038481610c1f565b815161038f90610302565b6103b45760405162461bcd60e51b81526004016103ab90611525565b60405180910390fd5b60008260200151116103d85760405162461bcd60e51b81526004016103ab9061175d565b81516103e3906105c1565b6103ed8183610c5c565b5050565b6002546001600160a01b03166103e381610c1f565b6000546001600160a01b031690565b6000546001600160a01b0316331490565b6040518060400160405280600c81526020016b536f7274656454726f76657360a01b81525081565b6001600160a01b039081166000908152600760205260409020600101541690565b6001546001600160a01b031681565b6005546006541490565b60065490565b610496610415565b6104b25760405162461bcd60e51b81526004016103ab9061169d565b600083116104d25760405162461bcd60e51b81526004016103ab9061156f565b6104db82610f7c565b6104e481610f7c565b6005839055600280546001600160a01b038085166001600160a01b03199283161790925560018054928416929091169190911790556040517f143219c9e69b09e07e095fcc889b43d8f46ca892bba65f08dc3a0050869a56789061054990849061140b565b60405180910390a17f3ca631ffcd2a9b5d9ae18543fc82f58eb4ca33af9e6ab01b7a8e95331e6ed98581604051610580919061140b565b60405180910390a1610590610fc1565b505050565b6002546001600160a01b031633146105bf5760405162461bcd60e51b81526004016103ab9061161d565b565b6105ca81610302565b6105e65760405162461bcd60e51b81526004016103ab90611525565b6006546001101561072c576003546001600160a01b0382811691161415610655576001600160a01b03818116600090815260076020526040808220546003805461010090920485166001600160a01b031992831617908190559093168252902060010180549091169055610727565b6004546001600160a01b03828116911614156106bc576001600160a01b0380821660009081526007602052604080822060010154600480546001600160a01b03191691851691909117908190559092168152208054610100600160a81b0319169055610727565b6001600160a01b038082166000908152600760205260408082208054600180830180548716865284862080546101009485900489168502610100600160a81b03199091161790555492549190910485168452919092200180546001600160a01b031916919092161790555b610749565b600380546001600160a01b03199081169091556004805490911690555b6001600160a01b038116600090815260076020526040902080546001600160a81b0319168155600190810180546001600160a01b03191690556006546107949163ffffffff61100b16565b6006556040517fcfc24166db4bb677e857cacabd1541fb2b30645021b27c5130419589b84db52b906107c790839061140b565b60405180910390a150565b60006001600160a01b0383161580156107f257506001600160a01b038216155b15610806576107ff610326565b90506102c1565b6001600160a01b0383166108b2576003546001600160a01b0383811691161480156107ff575060405163b0d8e18160e01b81526001600160a01b0386169063b0d8e1819061085890859060040161140b565b60206040518083038186803b15801561087057600080fd5b505afa158015610884573d6000803e3d6000fd5b505050506040513d601f19601f820116820180604052508101906108a891906113b2565b84101590506102c1565b6001600160a01b03821661095e576004546001600160a01b0384811691161480156107ff575060405163b0d8e18160e01b81526001600160a01b0386169063b0d8e1819061090490869060040161140b565b60206040518083038186803b15801561091c57600080fd5b505afa158015610930573d6000803e3d6000fd5b505050506040513d601f19601f8201168201806040525081019061095491906113b2565b84111590506102c1565b6001600160a01b0383811660009081526007602052604090205461010090048116908316148015610a0b575060405163b0d8e18160e01b815284906001600160a01b0387169063b0d8e181906109b890879060040161140b565b60206040518083038186803b1580156109d057600080fd5b505afa1580156109e4573d6000803e3d6000fd5b505050506040513d601f19601f82011682018060405250810190610a0891906113b2565b10155b80156107ff575060405163b0d8e18160e01b81526001600160a01b0386169063b0d8e1819061085890859060040161140b565b60008083836001600160a01b03821615610aeb57610a5b82610302565b1580610ae1575060405163b0d8e18160e01b81526001600160a01b0389169063b0d8e18190610a8e90859060040161140b565b60206040518083038186803b158015610aa657600080fd5b505afa158015610aba573d6000803e3d6000fd5b505050506040513d601f19601f82011682018060405250810190610ade91906113b2565b87115b15610aeb57600091505b6001600160a01b03811615610b9257610b0381610302565b1580610b89575060405163b0d8e18160e01b81526001600160a01b0389169063b0d8e18190610b3690849060040161140b565b60206040518083038186803b158015610b4e57600080fd5b505afa158015610b62573d6000803e3d6000fd5b505050506040513d601f19601f82011682018060405250810190610b8691906113b2565b87105b15610b92575060005b6001600160a01b038216158015610bb057506001600160a01b038116155b15610bd957600354610bce90899089906001600160a01b0316611054565b935093505050610c16565b6001600160a01b038216610bf257610bce88888361118f565b6001600160a01b038116610c0b57610bce888884611054565b610bce888884611054565b94509492505050565b6001546001600160a01b0316331480610c405750336001600160a01b038216145b6102945760405162461bcd60e51b81526004016103ab90611710565b610c6461047e565b15610c815760405162461bcd60e51b81526004016103ab90611669565b8051610c8c90610302565b15610ca95760405162461bcd60e51b81526004016103ab906114d9565b80516001600160a01b0316610cd05760405162461bcd60e51b81526004016103ab906115b1565b6000816020015111610cf45760405162461bcd60e51b81526004016103ab9061175d565b604081015160608201516020830151610d1090859084846107d2565b610d2a57610d248484602001518484610a3e565b90925090505b82516001600160a01b039081166000908152600760205260409020805460ff191660011790558216158015610d6657506001600160a01b038116155b15610d9c578251600380546001600160a01b039092166001600160a01b0319928316811790915560048054909216179055610f20565b6001600160a01b038216610e19576003805484516001600160a01b03908116600090815260076020526040808220805494841661010002610100600160a81b031990951694909417909355865184548316825292902060010180549282166001600160a01b03199384161790558551835491169116179055610f20565b6001600160a01b038116610e96576004805484516001600160a01b0390811660009081526007602052604080822060010180549484166001600160a01b0319958616179055875185548416835291208054610100600160a81b03191661010092841692909202919091179055855183549092169116179055610f20565b82516001600160a01b039081166000908152600760205260408082208054848616610100818102610100600160a81b031993841617909355885186168552838520600190810180548a89166001600160a01b031991821681179092558b519188528688208054928a1690960291909416179093558851908552929093200180549190931691161790555b600654610f3490600163ffffffff6112c416565b600655825160208401516040517fe02b43adbee0c123de070a04554a71877a0007e2fc161466299cae3c094fe82f92610f6e929091611462565b60405180910390a150505050565b6001600160a01b038116610fa25760405162461bcd60e51b81526004016103ab906116d2565b803b806103ed5760405162461bcd60e51b81526004016103ab906116f1565b600080546040516001600160a01b03909116907f8be0079c531659141344cd1fd0a4f28419497f9722a3daafe3b4186f6b6457e0908390a3600080546001600160a01b0319169055565b600061104d83836040518060400160405280601e81526020017f536166654d6174683a207375627472616374696f6e206f766572666c6f7700008152506112e9565b9392505050565b60035460009081906001600160a01b0384811691161480156110f1575060405163b0d8e18160e01b81526001600160a01b0386169063b0d8e1819061109d90869060040161140b565b60206040518083038186803b1580156110b557600080fd5b505afa1580156110c9573d6000803e3d6000fd5b505050506040513d601f19601f820116820180604052508101906110ed91906113b2565b8410155b15611101575060009050816102eb565b6001600160a01b038084166000908152600760205260409020548491610100909104165b6001600160a01b038216158015906111465750611144878784846107d2565b155b1561118357506001600160a01b03908116600090815260076020526040808220546101009081900484168084529190922054909291900416611125565b90969095509350505050565b60045460009081906001600160a01b03848116911614801561122c575060405163b0d8e18160e01b81526001600160a01b0386169063b0d8e181906111d890869060040161140b565b60206040518083038186803b1580156111f057600080fd5b505afa158015611204573d6000803e3d6000fd5b505050506040513d601f19601f8201168201806040525081019061122891906113b2565b8411155b1561123c575081905060006102eb565b6001600160a01b038084166000908152600760205260409020600101548491165b6001600160a01b0382161580159061127e575061127c878783856107d2565b155b156112b957506001600160a01b039081166000908152600760205260408082206001908101548416808452919092209091015490911661125d565b969095509350505050565b60008282018381101561104d5760405162461bcd60e51b81526004016103ab906115e8565b6000818484111561130d5760405162461bcd60e51b81526004016103ab9190611486565b505050900390565b600060208284031215611326578081fd5b81356001600160a01b038116811461104d578182fd5b60006080828403121561134d578081fd5b604051608081016001600160401b038111828210171561136b578283fd5b6040528235611379816117a9565b8152602083810135908201526040830135611393816117a9565b604082015260608301356113a6816117a9565b60608201529392505050565b6000602082840312156113c3578081fd5b5051919050565b6000806000606084860312156113de578182fd5b8335925060208401356113f0816117a9565b91506040840135611400816117a9565b809150509250925092565b6001600160a01b0391909116815260200190565b6001600160a01b0392831681529116602082015260400190565b6001600160a01b0394851681529290931660208301526040820152606081019190915260800190565b6001600160a01b03929092168252602082015260400190565b901515815260200190565b6000602080835283518082850152825b818110156114b257858101830151858201604001528201611496565b818111156114c35783604083870101525b50601f01601f1916929092016040019392505050565b6020808252602c908201527f536f7274656454726f7665733a204c69737420616c726561647920636f6e746160408201526b696e7320746865206e6f646560a01b606082015260800190565b6020808252602a908201527f536f7274656454726f7665733a204c69737420646f6573206e6f7420636f6e74604082015269185a5b881d1a19481a5960b21b606082015260800190565b60208082526022908201527f536f7274656454726f7665733a2053697a652063616ee2809974206265207a65604082015261726f60f01b606082015260800190565b6020808252601f908201527f536f7274656454726f7665733a2049642063616e6e6f74206265207a65726f00604082015260600190565b6020808252601b908201527a536166654d6174683a206164646974696f6e206f766572666c6f7760281b604082015260600190565b6020808252602c908201527f536f7274656454726f7665733a2043616c6c6572206973206e6f74207468652060408201526b2a3937bb32a6b0b730b3b2b960a11b606082015260800190565b6020808252601a908201527914dbdc9d1959151c9bdd995cce88131a5cdd081a5cc8199d5b1b60321b604082015260600190565b6020808252818101527f4f776e61626c653a2063616c6c6572206973206e6f7420746865206f776e6572604082015260600190565b6020808252600590820152641830b2323960d91b604082015260600190565b60208082526005908201526430636f646560d81b604082015260600190565b6020808252602d908201527f536f7274656454726f7665733a2043616c6c6572206973206e6569746865722060408201526c424f206e6f722054726f76654d60981b606082015260800190565b60208082526023908201527f536f7274656454726f7665733a204e494352206d75737420626520706f73697460408201526269766560e81b606082015260800190565b90815260200190565b6001600160a01b038116811461029457600080fdfea2646970667358221220962ae2715a7b9c4189420af226e3970296e80fe586f9687156a78c2a1cbd25b264736f6c634300060b0033",
  "linkReferences": {},
  "deployedLinkReferences": {}
}