{
  "_format": "hh-sol-artifact-1",
  "contractName": "StabilityPool",
  "sourceName": "contracts/StabilityPool.sol",
  "abi": [
    {
      "anonymous": false,
      "inputs": [
        {
          "indexed": false,
          "internalType": "address",
          "name": "_newActivePoolAddress",
          "type": "address"
        }
      ],
      "name": "ActivePoolAddressChanged",
      "type": "event"
    },
    {
      "anonymous": false,
      "inputs": [
        {
          "indexed": false,
          "internalType": "address",
          "name": "_newBorrowerOperationsAddress",
          "type": "address"
        }
      ],
      "name": "BorrowerOperationsAddressChanged",
      "type": "event"
    },
    {
      "anonymous": false,
      "inputs": [
        {
          "indexed": false,
          "internalType": "address",
          "name": "_newCommunityIssuanceAddress",
          "type": "address"
        }
      ],
      "name": "CommunityIssuanceAddressChanged",
      "type": "event"
    },
    {
      "anonymous": false,
      "inputs": [
        {
          "indexed": false,
          "internalType": "address",
          "name": "_newDefaultPoolAddress",
          "type": "address"
        }
      ],
      "name": "DefaultPoolAddressChanged",
      "type": "event"
    },
    {
      "anonymous": false,
      "inputs": [
        {
          "indexed": true,
          "internalType": "address",
          "name": "_depositor",
          "type": "address"
        },
        {
          "indexed": false,
          "internalType": "uint256",
          "name": "_P",
          "type": "uint256"
        },
        {
          "indexed": false,
          "internalType": "uint256",
          "name": "_S",
          "type": "uint256"
        }
      ],
      "name": "DepositSnapshotUpdated",
      "type": "event"
    },
    {
      "anonymous": false,
      "inputs": [
        {
          "indexed": true,
          "internalType": "address",
          "name": "_depositor",
          "type": "address"
        },
        {
          "indexed": false,
          "internalType": "uint256",
          "name": "_ETH",
          "type": "uint256"
        },
        {
          "indexed": false,
          "internalType": "uint256",
          "name": "_LUSDLoss",
          "type": "uint256"
        }
      ],
      "name": "ETHGainWithdrawn",
      "type": "event"
    },
    {
      "anonymous": false,
      "inputs": [
        {
          "indexed": false,
          "internalType": "uint128",
          "name": "_currentEpoch",
          "type": "uint128"
        }
      ],
      "name": "EpochUpdated",
      "type": "event"
    },
    {
      "anonymous": false,
      "inputs": [
        {
          "indexed": false,
          "internalType": "address",
          "name": "_to",
          "type": "address"
        },
        {
          "indexed": false,
          "internalType": "uint256",
          "name": "_amount",
          "type": "uint256"
        }
      ],
      "name": "EtherSent",
      "type": "event"
    },
    {
      "anonymous": false,
      "inputs": [
        {
          "indexed": true,
          "internalType": "address",
          "name": "_frontEnd",
          "type": "address"
        },
        {
          "indexed": false,
          "internalType": "uint256",
          "name": "_kickbackRate",
          "type": "uint256"
        }
      ],
      "name": "FrontEndRegistered",
      "type": "event"
    },
    {
      "anonymous": false,
      "inputs": [
        {
          "indexed": true,
          "internalType": "address",
          "name": "_frontEnd",
          "type": "address"
        },
        {
          "indexed": false,
          "internalType": "uint256",
          "name": "_P",
          "type": "uint256"
        }
      ],
      "name": "FrontEndSnapshotUpdated",
      "type": "event"
    },
    {
      "anonymous": false,
      "inputs": [
        {
          "indexed": true,
          "internalType": "address",
          "name": "_frontEnd",
          "type": "address"
        },
        {
          "indexed": false,
          "internalType": "uint256",
          "name": "_newFrontEndStake",
          "type": "uint256"
        },
        {
          "indexed": false,
          "internalType": "address",
          "name": "_depositor",
          "type": "address"
        }
      ],
      "name": "FrontEndStakeChanged",
      "type": "event"
    },
    {
      "anonymous": false,
      "inputs": [
        {
          "indexed": true,
          "internalType": "address",
          "name": "_depositor",
          "type": "address"
        },
        {
          "indexed": true,
          "internalType": "address",
          "name": "_frontEnd",
          "type": "address"
        }
      ],
      "name": "FrontEndTagSet",
      "type": "event"
    },
    {
      "anonymous": false,
      "inputs": [
        {
          "indexed": false,
          "internalType": "uint256",
          "name": "_G",
          "type": "uint256"
        },
        {
          "indexed": false,
          "internalType": "uint128",
          "name": "_epoch",
          "type": "uint128"
        },
        {
          "indexed": false,
          "internalType": "uint128",
          "name": "_scale",
          "type": "uint128"
        }
      ],
      "name": "G_Updated",
      "type": "event"
    },
    {
      "anonymous": false,
      "inputs": [
        {
          "indexed": true,
          "internalType": "address",
          "name": "_depositor",
          "type": "address"
        },
        {
          "indexed": false,
          "internalType": "uint256",
          "name": "_LQTY",
          "type": "uint256"
        }
      ],
      "name": "LQTYPaidToDepositor",
      "type": "event"
    },
    {
      "anonymous": false,
      "inputs": [
        {
          "indexed": true,
          "internalType": "address",
          "name": "_frontEnd",
          "type": "address"
        },
        {
          "indexed": false,
          "internalType": "uint256",
          "name": "_LQTY",
          "type": "uint256"
        }
      ],
      "name": "LQTYPaidToFrontEnd",
      "type": "event"
    },
    {
      "anonymous": false,
      "inputs": [
        {
          "indexed": false,
          "internalType": "address",
          "name": "_newLUSDTokenAddress",
          "type": "address"
        }
      ],
      "name": "LUSDTokenAddressChanged",
      "type": "event"
    },
    {
      "anonymous": false,
      "inputs": [
        {
          "indexed": true,
          "internalType": "address",
          "name": "previousOwner",
          "type": "address"
        },
        {
          "indexed": true,
          "internalType": "address",
          "name": "newOwner",
          "type": "address"
        }
      ],
      "name": "OwnershipTransferred",
      "type": "event"
    },
    {
      "anonymous": false,
      "inputs": [
        {
          "indexed": false,
          "internalType": "uint256",
          "name": "_P",
          "type": "uint256"
        }
      ],
      "name": "P_Updated",
      "type": "event"
    },
    {
      "anonymous": false,
      "inputs": [
        {
          "indexed": false,
          "internalType": "address",
          "name": "_newPriceFeedAddress",
          "type": "address"
        }
      ],
      "name": "PriceFeedAddressChanged",
      "type": "event"
    },
    {
      "anonymous": false,
      "inputs": [
        {
          "indexed": false,
          "internalType": "uint256",
          "name": "_oldAmount",
          "type": "uint256"
        },
        {
          "indexed": false,
          "internalType": "uint256",
          "name": "_amount",
          "type": "uint256"
        }
      ],
      "name": "RewardsPerBlockChanged",
      "type": "event"
    },
    {
      "anonymous": false,
      "inputs": [
        {
          "indexed": false,
          "internalType": "uint256",
          "name": "_S",
          "type": "uint256"
        },
        {
          "indexed": false,
          "internalType": "uint128",
          "name": "_epoch",
          "type": "uint128"
        },
        {
          "indexed": false,
          "internalType": "uint128",
          "name": "_scale",
          "type": "uint128"
        }
      ],
      "name": "S_Updated",
      "type": "event"
    },
    {
      "anonymous": false,
      "inputs": [
        {
          "indexed": false,
          "internalType": "uint128",
          "name": "_currentScale",
          "type": "uint128"
        }
      ],
      "name": "ScaleUpdated",
      "type": "event"
    },
    {
      "anonymous": false,
      "inputs": [
        {
          "indexed": false,
          "internalType": "address",
          "name": "_newSortedTrovesAddress",
          "type": "address"
        }
      ],
      "name": "SortedTrovesAddressChanged",
      "type": "event"
    },
    {
      "anonymous": false,
      "inputs": [
        {
          "indexed": false,
          "internalType": "uint256",
          "name": "_newBalance",
          "type": "uint256"
        }
      ],
      "name": "StabilityPoolETHBalanceUpdated",
      "type": "event"
    },
    {
      "anonymous": false,
      "inputs": [
        {
          "indexed": false,
          "internalType": "uint256",
          "name": "_newBalance",
          "type": "uint256"
        }
      ],
      "name": "StabilityPoolLUSDBalanceUpdated",
      "type": "event"
    },
    {
      "anonymous": false,
      "inputs": [
        {
          "indexed": false,
          "internalType": "address",
          "name": "_newTroveManagerAddress",
          "type": "address"
        }
      ],
      "name": "TroveManagerAddressChanged",
      "type": "event"
    },
    {
      "anonymous": false,
      "inputs": [
        {
          "indexed": true,
          "internalType": "address",
          "name": "_depositor",
          "type": "address"
        },
        {
          "indexed": false,
          "internalType": "uint256",
          "name": "_newDeposit",
          "type": "uint256"
        }
      ],
      "name": "UserDepositChanged",
      "type": "event"
    },
    {
      "inputs": [],
      "name": "DECIMAL_PRECISION",
      "outputs": [
        {
          "internalType": "uint256",
          "name": "",
          "type": "uint256"
        }
      ],
      "stateMutability": "view",
      "type": "function"
    },
    {
      "inputs": [],
      "name": "NAME",
      "outputs": [
        {
          "internalType": "string",
          "name": "",
          "type": "string"
        }
      ],
      "stateMutability": "view",
      "type": "function"
    },
    {
      "inputs": [],
      "name": "P",
      "outputs": [
        {
          "internalType": "uint256",
          "name": "",
          "type": "uint256"
        }
      ],
      "stateMutability": "view",
      "type": "function"
    },
    {
      "inputs": [],
      "name": "PERCENT_DIVISOR",
      "outputs": [
        {
          "internalType": "uint256",
          "name": "",
          "type": "uint256"
        }
      ],
      "stateMutability": "view",
      "type": "function"
    },
    {
      "inputs": [],
      "name": "SCALE_FACTOR",
      "outputs": [
        {
          "internalType": "uint256",
          "name": "",
          "type": "uint256"
        }
      ],
      "stateMutability": "view",
      "type": "function"
    },
    {
      "inputs": [],
      "name": "_100pct",
      "outputs": [
        {
          "internalType": "uint256",
          "name": "",
          "type": "uint256"
        }
      ],
      "stateMutability": "view",
      "type": "function"
    },
    {
      "inputs": [],
      "name": "activePool",
      "outputs": [
        {
          "internalType": "contract IActivePool",
          "name": "",
          "type": "address"
        }
      ],
      "stateMutability": "view",
      "type": "function"
    },
    {
      "inputs": [],
      "name": "borrowerOperations",
      "outputs": [
        {
          "internalType": "contract IBorrowerOperations",
          "name": "",
          "type": "address"
        }
      ],
      "stateMutability": "view",
      "type": "function"
    },
    {
      "inputs": [],
      "name": "communityIssuance",
      "outputs": [
        {
          "internalType": "contract ICommunityIssuance",
          "name": "",
          "type": "address"
        }
      ],
      "stateMutability": "view",
      "type": "function"
    },
    {
      "inputs": [],
      "name": "currentEpoch",
      "outputs": [
        {
          "internalType": "uint128",
          "name": "",
          "type": "uint128"
        }
      ],
      "stateMutability": "view",
      "type": "function"
    },
    {
      "inputs": [],
      "name": "currentScale",
      "outputs": [
        {
          "internalType": "uint128",
          "name": "",
          "type": "uint128"
        }
      ],
      "stateMutability": "view",
      "type": "function"
    },
    {
      "inputs": [],
      "name": "defaultPool",
      "outputs": [
        {
          "internalType": "contract IDefaultPool",
          "name": "",
          "type": "address"
        }
      ],
      "stateMutability": "view",
      "type": "function"
    },
    {
      "inputs": [
        {
          "internalType": "address",
          "name": "",
          "type": "address"
        }
      ],
      "name": "depositSnapshots",
      "outputs": [
        {
          "internalType": "uint256",
          "name": "S",
          "type": "uint256"
        },
        {
          "internalType": "uint256",
          "name": "P",
          "type": "uint256"
        },
        {
          "internalType": "uint128",
          "name": "scale",
          "type": "uint128"
        },
        {
          "internalType": "uint128",
          "name": "epoch",
          "type": "uint128"
        }
      ],
      "stateMutability": "view",
      "type": "function"
    },
    {
      "inputs": [
        {
          "internalType": "address",
          "name": "",
          "type": "address"
        }
      ],
      "name": "deposits",
      "outputs": [
        {
          "internalType": "uint256",
          "name": "initialValue",
          "type": "uint256"
        },
        {
          "internalType": "address",
          "name": "frontEndTag",
          "type": "address"
        },
        {
          "internalType": "uint256",
          "name": "unpaidRewards",
          "type": "uint256"
        },
        {
          "internalType": "uint256",
          "name": "rewardDebt",
          "type": "uint256"
        }
      ],
      "stateMutability": "view",
      "type": "function"
    },
    {
      "inputs": [
        {
          "internalType": "uint128",
          "name": "",
          "type": "uint128"
        },
        {
          "internalType": "uint128",
          "name": "",
          "type": "uint128"
        }
      ],
      "name": "epochToScaleToSum",
      "outputs": [
        {
          "internalType": "uint256",
          "name": "",
          "type": "uint256"
        }
      ],
      "stateMutability": "view",
      "type": "function"
    },
    {
      "inputs": [
        {
          "internalType": "address",
          "name": "",
          "type": "address"
        }
      ],
      "name": "frontEndSnapshots",
      "outputs": [
        {
          "internalType": "uint256",
          "name": "S",
          "type": "uint256"
        },
        {
          "internalType": "uint256",
          "name": "P",
          "type": "uint256"
        },
        {
          "internalType": "uint128",
          "name": "scale",
          "type": "uint128"
        },
        {
          "internalType": "uint128",
          "name": "epoch",
          "type": "uint128"
        }
      ],
      "stateMutability": "view",
      "type": "function"
    },
    {
      "inputs": [
        {
          "internalType": "address",
          "name": "",
          "type": "address"
        }
      ],
      "name": "frontEndStakes",
      "outputs": [
        {
          "internalType": "uint256",
          "name": "totalDeposits",
          "type": "uint256"
        },
        {
          "internalType": "uint256",
          "name": "unpaidRewards",
          "type": "uint256"
        },
        {
          "internalType": "uint256",
          "name": "rewardDebt",
          "type": "uint256"
        }
      ],
      "stateMutability": "view",
      "type": "function"
    },
    {
      "inputs": [
        {
          "internalType": "address",
          "name": "",
          "type": "address"
        }
      ],
      "name": "frontEnds",
      "outputs": [
        {
          "internalType": "uint256",
          "name": "kickbackRate",
          "type": "uint256"
        },
        {
          "internalType": "bool",
          "name": "registered",
          "type": "bool"
        }
      ],
      "stateMutability": "view",
      "type": "function"
    },
    {
      "inputs": [
        {
          "internalType": "address",
          "name": "_frontEnd",
          "type": "address"
        }
      ],
      "name": "getCompoundedFrontEndStake",
      "outputs": [
        {
          "internalType": "uint256",
          "name": "",
          "type": "uint256"
        }
      ],
      "stateMutability": "view",
      "type": "function"
    },
    {
      "inputs": [
        {
          "internalType": "address",
          "name": "_depositor",
          "type": "address"
        }
      ],
      "name": "getCompoundedLUSDDeposit",
      "outputs": [
        {
          "internalType": "uint256",
          "name": "",
          "type": "uint256"
        }
      ],
      "stateMutability": "view",
      "type": "function"
    },
    {
      "inputs": [
        {
          "internalType": "address",
          "name": "_depositor",
          "type": "address"
        }
      ],
      "name": "getDepositorETHGain",
      "outputs": [
        {
          "internalType": "uint256",
          "name": "",
          "type": "uint256"
        }
      ],
      "stateMutability": "view",
      "type": "function"
    },
    {
      "inputs": [
        {
          "internalType": "address",
          "name": "_depositor",
          "type": "address"
        }
      ],
      "name": "getDepositorLQTYGain",
      "outputs": [
        {
          "internalType": "uint256",
          "name": "",
          "type": "uint256"
        }
      ],
      "stateMutability": "view",
      "type": "function"
    },
    {
      "inputs": [],
      "name": "getETH",
      "outputs": [
        {
          "internalType": "uint256",
          "name": "",
          "type": "uint256"
        }
      ],
      "stateMutability": "view",
      "type": "function"
    },
    {
      "inputs": [],
      "name": "getEntireSystemColl",
      "outputs": [
        {
          "internalType": "uint256",
          "name": "entireSystemColl",
          "type": "uint256"
        }
      ],
      "stateMutability": "view",
      "type": "function"
    },
    {
      "inputs": [],
      "name": "getEntireSystemDebt",
      "outputs": [
        {
          "internalType": "uint256",
          "name": "entireSystemDebt",
          "type": "uint256"
        }
      ],
      "stateMutability": "view",
      "type": "function"
    },
    {
      "inputs": [
        {
          "internalType": "address",
          "name": "_frontEnd",
          "type": "address"
        }
      ],
      "name": "getFrontEndLQTYGain",
      "outputs": [
        {
          "internalType": "uint256",
          "name": "",
          "type": "uint256"
        }
      ],
      "stateMutability": "view",
      "type": "function"
    },
    {
      "inputs": [],
      "name": "getRewarsPerBlock",
      "outputs": [
        {
          "internalType": "uint256",
          "name": "",
          "type": "uint256"
        }
      ],
      "stateMutability": "view",
      "type": "function"
    },
    {
      "inputs": [],
      "name": "getTotalLUSDDeposits",
      "outputs": [
        {
          "internalType": "uint256",
          "name": "",
          "type": "uint256"
        }
      ],
      "stateMutability": "view",
      "type": "function"
    },
    {
      "inputs": [],
      "name": "isOwner",
      "outputs": [
        {
          "internalType": "bool",
          "name": "",
          "type": "bool"
        }
      ],
      "stateMutability": "view",
      "type": "function"
    },
    {
      "inputs": [],
      "name": "lastETHError_Offset",
      "outputs": [
        {
          "internalType": "uint256",
          "name": "",
          "type": "uint256"
        }
      ],
      "stateMutability": "view",
      "type": "function"
    },
    {
      "inputs": [],
      "name": "lastLQTYError",
      "outputs": [
        {
          "internalType": "uint256",
          "name": "",
          "type": "uint256"
        }
      ],
      "stateMutability": "view",
      "type": "function"
    },
    {
      "inputs": [],
      "name": "lastLUSDLossError_Offset",
      "outputs": [
        {
          "internalType": "uint256",
          "name": "",
          "type": "uint256"
        }
      ],
      "stateMutability": "view",
      "type": "function"
    },
    {
      "inputs": [],
      "name": "lusdToken",
      "outputs": [
        {
          "internalType": "contract ILUSDToken",
          "name": "",
          "type": "address"
        }
      ],
      "stateMutability": "view",
      "type": "function"
    },
    {
      "inputs": [
        {
          "internalType": "uint256",
          "name": "_debtToOffset",
          "type": "uint256"
        },
        {
          "internalType": "uint256",
          "name": "_collToAdd",
          "type": "uint256"
        }
      ],
      "name": "offset",
      "outputs": [],
      "stateMutability": "nonpayable",
      "type": "function"
    },
    {
      "inputs": [],
      "name": "owner",
      "outputs": [
        {
          "internalType": "address",
          "name": "",
          "type": "address"
        }
      ],
      "stateMutability": "view",
      "type": "function"
    },
    {
      "inputs": [],
      "name": "priceFeed",
      "outputs": [
        {
          "internalType": "contract IPriceFeed",
          "name": "",
          "type": "address"
        }
      ],
      "stateMutability": "view",
      "type": "function"
    },
    {
      "inputs": [
        {
          "internalType": "uint256",
          "name": "_amount",
          "type": "uint256"
        },
        {
          "internalType": "address",
          "name": "_frontEndTag",
          "type": "address"
        }
      ],
      "name": "provideToSP",
      "outputs": [],
      "stateMutability": "nonpayable",
      "type": "function"
    },
    {
      "inputs": [
        {
          "internalType": "uint256",
          "name": "_kickbackRate",
          "type": "uint256"
        }
      ],
      "name": "registerFrontEnd",
      "outputs": [],
      "stateMutability": "nonpayable",
      "type": "function"
    },
    {
      "inputs": [
        {
          "internalType": "address",
          "name": "_borrowerOperationsAddress",
          "type": "address"
        },
        {
          "internalType": "address",
          "name": "_troveManagerAddress",
          "type": "address"
        },
        {
          "internalType": "address",
          "name": "_activePoolAddress",
          "type": "address"
        },
        {
          "internalType": "address",
          "name": "_lusdTokenAddress",
          "type": "address"
        },
        {
          "internalType": "address",
          "name": "_sortedTrovesAddress",
          "type": "address"
        },
        {
          "internalType": "address",
          "name": "_priceFeedAddress",
          "type": "address"
        },
        {
          "internalType": "address",
          "name": "_communityIssuanceAddress",
          "type": "address"
        },
        {
          "internalType": "address",
          "name": "_systemStateAddress",
          "type": "address"
        },
        {
          "internalType": "address",
          "name": "_timeLockAddress",
          "type": "address"
        },
        {
          "internalType": "uint256",
          "name": "_rewardPerBlocks",
          "type": "uint256"
        }
      ],
      "name": "setParams",
      "outputs": [],
      "stateMutability": "nonpayable",
      "type": "function"
    },
    {
      "inputs": [
        {
          "internalType": "uint256",
          "name": "_amount",
          "type": "uint256"
        }
      ],
      "name": "setRewardsPerBlock",
      "outputs": [],
      "stateMutability": "nonpayable",
      "type": "function"
    },
    {
      "inputs": [],
      "name": "sortedTroves",
      "outputs": [
        {
          "internalType": "contract ISortedTroves",
          "name": "",
          "type": "address"
        }
      ],
      "stateMutability": "view",
      "type": "function"
    },
    {
      "inputs": [],
      "name": "systemState",
      "outputs": [
        {
          "internalType": "contract ISystemState",
          "name": "",
          "type": "address"
        }
      ],
      "stateMutability": "view",
      "type": "function"
    },
    {
      "inputs": [],
      "name": "timeLock",
      "outputs": [
        {
          "internalType": "address",
          "name": "",
          "type": "address"
        }
      ],
      "stateMutability": "view",
      "type": "function"
    },
    {
      "inputs": [],
      "name": "troveManager",
      "outputs": [
        {
          "internalType": "contract ITroveManager",
          "name": "",
          "type": "address"
        }
      ],
      "stateMutability": "view",
      "type": "function"
    },
    {
      "inputs": [
        {
          "internalType": "address",
          "name": "_upperHint",
          "type": "address"
        },
        {
          "internalType": "address",
          "name": "_lowerHint",
          "type": "address"
        },
        {
          "internalType": "bytes[]",
          "name": "priceFeedUpdateData",
          "type": "bytes[]"
        }
      ],
      "name": "withdrawETHGainToTrove",
      "outputs": [],
      "stateMutability": "payable",
      "type": "function"
    },
    {
      "inputs": [
        {
          "internalType": "uint256",
          "name": "_amount",
          "type": "uint256"
        },
        {
          "internalType": "bytes[]",
          "name": "priceFeedUpdateData",
          "type": "bytes[]"
        }
      ],
      "name": "withdrawFromSP",
      "outputs": [],
      "stateMutability": "payable",
      "type": "function"
    },
    {
      "stateMutability": "payable",
      "type": "receive"
    }
  ],
  "bytecode": "0x6080604052670de0b6b3a76400006017556000601a5534801561002157600080fd5b50600580546001600160a01b031916339081179091556040516000907f8be0079c531659141344cd1fd0a4f28419497f9722a3daafe3b4186f6b6457e0908290a361452a806100716000396000f3fe6080604052600436106102115760003560e01c806314f6c3be1461026157806316b9d3c51461028c5780631cdc4700146102bc578063250ffbec146102dc57806328a0a04d146102f1578063335525ad14610311578063389e92a5146103315780633cc74225146103515780633d83908a146103735780634870dd9a14610388578063538153ca1461039d578063556be101146103b25780635d2de642146103d25780635f788d651461040157806372fe25aa14610421578063741bef1a14610436578063766718081461044b57806377553ad41461046d578063795d26c3146104825780637f7dde4a1461049757806386da0824146104ac578063887105d3146104cc5780638b8fbd92146104e15780638da5cb5b146104f65780638f32d59b1461050b57806392dd6bc71461052d57806395fb16bb14610542578063991292e3146105575780639bf2f1ac1461056c578063a1003b2914610581578063a1b11ffb146105a1578063a20baee614610421578063a3f4df7e146105c1578063a4e59ac8146105e3578063a7bfff97146105f8578063ae91875414610626578063b8225e4f1461063b578063b83f91a21461064e578063ce4b5bbe14610663578063cef941e814610678578063d085835a1461068d578063d4ca0575146106a2578063d7fb0443146106c2578063df9cd84f146106d7578063f5f1595d146106f7578063fc7e286d146107175761025c565b3661025c5761021e610747565b601054610231903463ffffffff61077c16565b60108190556040516000805160206143b58339815191529161025291613cb3565b60405180910390a1005b600080fd5b34801561026d57600080fd5b506102766107aa565b6040516102839190613cb3565b60405180910390f35b34801561029857600080fd5b506102ac6102a7366004613882565b6107b0565b6040516102839493929190614362565b3480156102c857600080fd5b506102766102d7366004613882565b6107e5565b6102ef6102ea366004613ad5565b610882565b005b3480156102fd57600080fd5b5061027661030c366004613a42565b610a2d565b34801561031d57600080fd5b506102ef61032c366004613b1e565b610a4a565b34801561033d57600080fd5b5061027661034c366004613882565b610aa1565b34801561035d57600080fd5b50610366610b33565b6040516102839190613bfb565b34801561037f57600080fd5b50610366610b42565b34801561039457600080fd5b50610276610b51565b3480156103a957600080fd5b50610276610b56565b3480156103be57600080fd5b506102ef6103cd366004613a76565b610b5c565b3480156103de57600080fd5b506103f26103ed366004613882565b610bf0565b60405161028393929190614389565b34801561040d57600080fd5b506102ef61041c366004613aa6565b610c11565b34801561042d57600080fd5b50610276610dbd565b34801561044257600080fd5b50610366610dc9565b34801561045757600080fd5b50610460610dd8565b60405161028391906142e4565b34801561047957600080fd5b50610366610dee565b34801561048e57600080fd5b50610276610dfd565b3480156104a357600080fd5b50610366610f29565b3480156104b857600080fd5b506102ac6104c7366004613882565b610f38565b3480156104d857600080fd5b50610276610f6d565b3480156104ed57600080fd5b50610276611048565b34801561050257600080fd5b5061036661104e565b34801561051757600080fd5b5061052061105d565b6040516102839190613ca8565b34801561053957600080fd5b5061027661106e565b34801561054e57600080fd5b50610366611074565b34801561056357600080fd5b50610366611083565b34801561057857600080fd5b50610276611092565b34801561058d57600080fd5b506102ef61059c366004613a76565b611098565b3480156105ad57600080fd5b506102ef6105bc3660046138ba565b6110ee565b3480156105cd57600080fd5b506105d6611388565b6040516102839190613cca565b3480156105ef57600080fd5b506104606113b1565b34801561060457600080fd5b50610618610613366004613882565b6113c0565b604051610283929190614333565b34801561063257600080fd5b506103666113dc565b6102ef610649366004613980565b6113eb565b34801561065a57600080fd5b5061036661162e565b34801561066f57600080fd5b5061027661163d565b34801561068457600080fd5b50610276611645565b34801561069957600080fd5b5061036661164b565b3480156106ae57600080fd5b506102766106bd366004613882565b61165a565b3480156106ce57600080fd5b506102766117ea565b3480156106e357600080fd5b506102766106f2366004613882565b6117f0565b34801561070357600080fd5b50610276610712366004613882565b611882565b34801561072357600080fd5b50610737610732366004613882565b6119aa565b604051610283949392919061430f565b6001546001600160a01b0316331461077a5760405162461bcd60e51b815260040161077190613e5a565b60405180910390fd5b565b6000828201838110156107a15760405162461bcd60e51b815260040161077190613db9565b90505b92915050565b60105490565b6016602052600090815260409020805460018201546002909201549091906001600160801b0380821691600160801b90041684565b6001600160a01b0381166000908152601260205260408120548061080d57600091505061087d565b61081561376c565b506001600160a01b0383166000908152601360209081526040808320815160808101835281548152600182015493810193909352600201546001600160801b0380821692840192909252600160801b90041660608201529061087783836119db565b93505050505b919050565b8215610892576108928282611ad7565b336000908152601260205260409020546108ab81611d2a565b600e546001600160a01b031660006108c233610aa1565b905060006108cf336107e5565b905060006108dd8883611d4d565b905060006108f1868463ffffffff611d6316565b336000908152601260205260408120600101549192506001600160a01b039091169061091c826117f0565b9050610929873387611da5565b610934878383612094565b6000610946828663ffffffff611d6316565b90506109528382612347565b826001600160a01b03166000805160206144d5833981519152823360405161097b9291906142f8565b60405180910390a261098d3386612443565b600061099f878763ffffffff611d6316565b90506109ab33826124bc565b6109b53385612617565b336001600160a01b03166000805160206143d5833981519152826040516109dc9190613cb3565b60405180910390a2336001600160a01b03166000805160206144958339815191528987604051610a0d929190613cbc565b60405180910390a2610a1e88612773565b50505050505050505050505050565b601c60209081526000928352604080842090915290825290205481565b610a52612864565b601154801580610a60575082155b15610a6b5750610a9d565b600080610a7984868561288e565b91509150610a8561296f565b610a8f8282612b43565b610a998486612e20565b5050505b5050565b6001600160a01b03811660009081526012602052604081205480610ac957600091505061087d565b610ad161376c565b506001600160a01b0383166000908152601360209081526040808320815160808101835281548152600182015493810193909352600201546001600160801b0380821692840192909252600160801b9004166060820152906108778383612f56565b6002546001600160a01b031681565b600b546001600160a01b031681565b60c881565b601f5481565b610b6533613044565b610b6e33613080565b610b77816130b7565b3360008181526014602052604090208281556001908101805460ff19169091179055610bab9060089063ffffffff6130df16565b50336001600160a01b03167f19bc932fb9e16a8b5a1e41be9f4c2de59d5ddd7567b8b81405f532ca00a9880e82604051610be59190613cb3565b60405180910390a250565b60156020526000908152604090208054600182015460029092015490919083565b610c1a816130f4565b610c2333613044565b610c2c82613141565b33600090815260126020526040902054600e546001600160a01b031681610c5757610c573384613161565b6000610c6233610aa1565b90506000610c6f336107e5565b90506000610c83858363ffffffff611d6316565b336000908152601260205260408120600101549192506001600160a01b0390911690610cae826117f0565b90506000610cc2828b63ffffffff61077c16565b9050610ccf873387611da5565b610cda878484612094565b610ce48382612347565b826001600160a01b03166000805160206144d58339815191528233604051610d0d9291906142f8565b60405180910390a2610d1f338b6131bb565b6000610d31868c63ffffffff61077c16565b9050610d3d33826124bc565b610d473385612617565b336001600160a01b03166000805160206143d583398151915282604051610d6e9190613cb3565b60405180910390a2336001600160a01b03166000805160206144958339815191528887604051610d9f929190613cbc565b60405180910390a2610db087612773565b5050505050505050505050565b670de0b6b3a764000081565b6003546001600160a01b031681565b601b54600160801b90046001600160801b031681565b600a546001600160a01b031681565b600080600160009054906101000a90046001600160a01b03166001600160a01b0316635eb52fca6040518163ffffffff1660e01b815260040160206040518083038186803b158015610e4e57600080fd5b505afa158015610e62573d6000803e3d6000fd5b505050506040513d601f19601f82011682018060405250810190610e869190613a8e565b90506000600260009054906101000a90046001600160a01b03166001600160a01b0316635eb52fca6040518163ffffffff1660e01b815260040160206040518083038186803b158015610ed857600080fd5b505afa158015610eec573d6000803e3d6000fd5b505050506040513d601f19601f82011682018060405250810190610f109190613a8e565b9050610f22828263ffffffff61077c16565b9250505090565b6001546001600160a01b031681565b6013602052600090815260409020805460018201546002909201549091906001600160801b0380821691600160801b90041684565b600080600160009054906101000a90046001600160a01b03166001600160a01b03166314f6c3be6040518163ffffffff1660e01b815260040160206040518083038186803b158015610fbe57600080fd5b505afa158015610fd2573d6000803e3d6000fd5b505050506040513d601f19601f82011682018060405250810190610ff69190613a8e565b90506000600260009054906101000a90046001600160a01b03166001600160a01b03166314f6c3be6040518163ffffffff1660e01b815260040160206040518083038186803b158015610ed857600080fd5b60175481565b6005546001600160a01b031690565b6005546001600160a01b0316331490565b60185490565b600e546001600160a01b031681565b6004546001600160a01b031681565b60115490565b6110a061326a565b6110a8613294565b60188054908290556040517f0fb60d8a32f5e736f96f407bcecd6119969ba63ea4c39fff8fb4c5932f5c2720906110e29083908590613cbc565b60405180910390a15050565b6110f661105d565b6111125760405162461bcd60e51b815260040161077190613ff0565b61111b8a6132f1565b611124896132f1565b61112d886132f1565b611136876132f1565b61113f866132f1565b611148856132f1565b611151846132f1565b61115a836132f1565b611163826132f1565b600a80546001600160a01b03199081166001600160a01b038d811691909117909255600b805482168c84161790556001805482168b8416179055600c805482168a8416179055600d80548216898416179055600380548216888416179055600e80548216878416179055600480548216868416179055600f80549091169184169190911790556018819055436019556040517f3ca631ffcd2a9b5d9ae18543fc82f58eb4ca33af9e6ab01b7a8e95331e6ed98590611222908c90613bfb565b60405180910390a17f143219c9e69b09e07e095fcc889b43d8f46ca892bba65f08dc3a0050869a5678896040516112599190613bfb565b60405180910390a17f78f058b189175430c48dc02699e3a0031ea4ff781536dc2fab847de4babdd882886040516112909190613bfb565b60405180910390a17f227eec0ec317af6ab1a9587ffa1c84332522eb4c583a908f89babc05f8f339bd876040516112c79190613bfb565b60405180910390a17f65f4cf077bc01e4742eb5ad98326f6e95b63548ea24b17f8d5e823111fe78800866040516112fe9190613bfb565b60405180910390a17f8c537274438aa850a330284665d81a85dd38267d09e4050d416bfc94142db264856040516113359190613bfb565b60405180910390a17f3055265812fb8447b9ada4a5d804ec43bd528ec40e89c952bbc7b85dc5ac68118460405161136c9190613bfb565b60405180910390a161137c613336565b50505050505050505050565b6040518060400160405280600d81526020016c14dd18589a5b1a5d1e541bdbdb609a1b81525081565b601b546001600160801b031681565b6014602052600090815260409020805460019091015460ff1682565b600d546001600160a01b031681565b3360009081526012602052604090205461140481611d2a565b61140d33613380565b6114163361341f565b600e546001600160a01b0316600061142d33610aa1565b9050600061143a336107e5565b9050600061144e858363ffffffff611d6316565b336000908152601260205260408120600101549192506001600160a01b0390911690611479826117f0565b9050611486863386611da5565b611491868383612094565b8061149c8382612347565b826001600160a01b03166000805160206144d583398151915282336040516114c59291906142f8565b60405180910390a26114d733866124bc565b6114e13384612617565b336001600160a01b0316600080516020614495833981519152878660405161150a929190613cbc565b60405180910390a2336001600160a01b03166000805160206143d5833981519152866040516115399190613cb3565b60405180910390a2601054611554908763ffffffff611d6316565b60108190556040516000805160206143b58339815191529161157591613cb3565b60405180910390a1600080516020614415833981519152338760405161159c929190613c73565b60405180910390a1600a60009054906101000a90046001600160a01b03166001600160a01b03166328b8552e87338f8f8f8f6040518763ffffffff1660e01b81526004016115ee959493929190613c0f565b6000604051808303818588803b15801561160757600080fd5b505af115801561161b573d6000803e3d6000fd5b5050505050505050505050505050505050565b600c546001600160a01b031681565b633b9aca0081565b601d5481565b6000546001600160a01b031681565b60006116646137a6565b506001600160a01b0382166000908152601560209081526040918290208251606081018452815481526001820154928101929092526002015491810191909152601a54601954431180156116b9575060115415155b156117325760006116d560195443611d6390919063ffffffff16565b905060006116ee6018548361344c90919063ffffffff16565b905061172d611720601154611714670de0b6b3a76400008561344c90919063ffffffff16565b9063ffffffff61348616565b849063ffffffff61077c16565b925050505b600061173d856117f0565b6001600160a01b038616600090815260146020526040812054919250611771670de0b6b3a76400008363ffffffff611d6316565b905060006117de86602001516117d2670de0b6b3a76400006117148a604001516117c6670de0b6b3a76400006117b08d8d61344c90919063ffffffff16565b816117b757fe5b8a91900463ffffffff61344c16565b9063ffffffff611d6316565b9063ffffffff61077c16565b98975050505050505050565b601e5481565b6001600160a01b0381166000908152601560205260408120548061181857600091505061087d565b61182061376c565b506001600160a01b0383166000908152601660209081526040808320815160808101835281548152600182015493810193909352600201546001600160801b0380821692840192909252600160801b90041660608201529061087783836119db565b6001600160a01b0381166000908152601260205260408120601a54601954431180156118af575060115415155b1561190f5760006118cb60195443611d6390919063ffffffff16565b905060006118e46018548361344c90919063ffffffff16565b905061190a611720601154611714670de0b6b3a76400008561344c90919063ffffffff16565b925050505b600061191a856107e5565b6001600160a01b038087166000908152601260205260408120600101549293509116908115611961576001600160a01b03821660009081526014602052604090205461196b565b670de0b6b3a76400005b905060006117de86600201546117d2670de0b6b3a76400006117148a600301546117c6670de0b6b3a76400006117b08d8d61344c90919063ffffffff16565b601260205260009081526040902080546001820154600283015460039093015491926001600160a01b039091169184565b602081015160408201516060830151601b546000939291906001600160801b03600160801b90910481169082161015611a1a57600093505050506107a4565b601b546000908190611a3b906001600160801b03168563ffffffff6134c516565b90506001600160801b038116611a6b57611a64856117146017548b61344c90919063ffffffff16565b9150611aa3565b806001600160801b031660011415611a9e57611a64633b9aca00611714876117146017548d61344c90919063ffffffff16565b600091505b611ab788633b9aca0063ffffffff61348616565b821015611acc576000955050505050506107a4565b509695505050505050565b611adf6137c7565b600354604051634e15f2a560e01b81526001600160a01b0390911690634e15f2a590611b119086908690600401613c8c565b608060405180830381600087803b158015611b2b57600080fd5b505af1158015611b3f573d6000803e3d6000fd5b505050506040513d601f19601f82011682018060405250810190611b6391906139e2565b90506000600d60009054906101000a90046001600160a01b03166001600160a01b0316634d6228316040518163ffffffff1660e01b815260040160206040518083038186803b158015611bb557600080fd5b505afa158015611bc9573d6000803e3d6000fd5b505050506040513d601f19601f82011682018060405250810190611bed919061389e565b600b548351604051630d293c7160e41b81529293506000926001600160a01b039092169163d293c71091611c2691869190600401613c73565b60206040518083038186803b158015611c3e57600080fd5b505afa158015611c52573d6000803e3d6000fd5b505050506040513d601f19601f82011682018060405250810190611c769190613a8e565b90506000600460009054906101000a90046001600160a01b03166001600160a01b03166344936b106040518163ffffffff1660e01b815260040160206040518083038186803b158015611cc857600080fd5b505afa158015611cdc573d6000803e3d6000fd5b505050506040513d601f19601f82011682018060405250810190611d009190613a8e565b905080821015611d225760405162461bcd60e51b81526004016107719061427a565b505050505050565b60008111611d4a5760405162461bcd60e51b81526004016107719061419d565b50565b6000818310611d5c57816107a1565b5090919050565b60006107a183836040518060400160405280601e81526020017f536166654d6174683a207375627472616374696f6e206f766572666c6f7700008152506134ff565b611dad613294565b611db56137f2565b506001600160a01b0380831660009081526012602090815260409182902082516080810184528154815260018201549094169184019190915260028101549183019190915260030154606082015281158015611e1357506040810151155b15611e1e575061208f565b6001600160a01b03808416600090815260126020526040812060010154909116908115611e63576001600160a01b038216600090815260146020526040902054611e6d565b670de0b6b3a76400005b90506000611eae84604001516117d2670de0b6b3a764000061171488606001516117c6670de0b6b3a76400006117b0601a548e61344c90919063ffffffff16565b90506000876001600160a01b031663ffdd6c726040518163ffffffff1660e01b8152600401602060405180830381600087803b158015611eed57600080fd5b505af1158015611f01573d6000803e3d6000fd5b505050506040513d601f19601f82011682018060405250810190611f259190613a8e565b9050801561200a5780821115611fa2576040516330a6955b60e11b81526001600160a01b0389169063614d2ab690611f63908a908590600401613c73565b600060405180830381600087803b158015611f7d57600080fd5b505af1158015611f91573d6000803e3d6000fd5b50505050808203604086015261200a565b6040516330a6955b60e11b81526001600160a01b0389169063614d2ab690611fd0908a908690600401613c73565b600060405180830381600087803b158015611fea57600080fd5b505af1158015611ffe573d6000803e3d6000fd5b50506000604088015250505b612041670de0b6b3a764000061202b601a548961344c90919063ffffffff16565b8161203257fe5b8591900463ffffffff61344c16565b60608601526040516001600160a01b038816907f2608b986a6ac0f6c629ca37018e80af5561e366252ae93602a96d3ab2e73e42d90612081908590613cb3565b60405180910390a250505050505b505050565b61209c613294565b6120a46137a6565b506001600160a01b038216600090815260156020908152604091829020825160608101845281548152600182015492810192909252600201549181019190915281158061210557506001600160a01b03831615801561210557506020810151155b15612110575061208f565b6001600160a01b03831660009081526014602052604081205490612142670de0b6b3a76400008363ffffffff611d6316565b9050600061218384602001516117d2670de0b6b3a764000061171488604001516117c6670de0b6b3a76400006117b0601a548e61344c90919063ffffffff16565b90506000876001600160a01b031663ffdd6c726040518163ffffffff1660e01b8152600401602060405180830381600087803b1580156121c257600080fd5b505af11580156121d6573d6000803e3d6000fd5b505050506040513d601f19601f820116820180604052508101906121fa9190613a8e565b905080156122df5780821115612277576040516330a6955b60e11b81526001600160a01b0389169063614d2ab690612238908a908590600401613c73565b600060405180830381600087803b15801561225257600080fd5b505af1158015612266573d6000803e3d6000fd5b5050505080820360208601526122df565b6040516330a6955b60e11b81526001600160a01b0389169063614d2ab6906122a5908a908690600401613c73565b600060405180830381600087803b1580156122bf57600080fd5b505af11580156122d3573d6000803e3d6000fd5b50506000602088015250505b670de0b6b3a76400006122fd601a548861344c90919063ffffffff16565b8161230457fe5b04856040018181525050866001600160a01b03167fcd2cdc1a4af71051394e9c6facd9a266b2ac5bd65d219a701eeda009f47682bf836040516120819190613cb3565b6001600160a01b0382166000908152601560205260409020819055806123b7576001600160a01b03821660008181526016602052604080822082815560018101839055600201829055516000805160206144b5833981519152916123aa91613cb3565b60405180910390a2610a9d565b601b546017546001600160a01b03841660008181526016602052604090819020600181018490556002018054600160801b8087046001600160801b039081169182026001600160801b031990931697811697881716919091179091559051909291906000805160206144b583398151915290612434908490613cb3565b60405180910390a25050505050565b8061244d57610a9d565b600c54604051631062c15f60e11b81526001600160a01b03909116906320c582be9061248190309086908690600401613c4f565b600060405180830381600087803b15801561249b57600080fd5b505af11580156124af573d6000803e3d6000fd5b50505050610a9d8161352b565b6001600160a01b03821660009081526012602052604090208190558061255e576001600160a01b0382166000818152601260209081526040808320600190810180546001600160a01b031916905560139092528083208381559182018390556002909101829055516000805160206144558339815191529161253f918190613cbc565b60405180910390a261255860068363ffffffff61356716565b50610a9d565b61256f60068363ffffffff6130df16565b50601b546017546001600160801b03600160801b80840482166000818152601c60209081526040808320978616808452978252808320546001600160a01b038b168085526013909352928190206001810188905583815560020180546001600160801b031916891790961694840294909417909455915190939290600080516020614455833981519152906126079085908590613cbc565b60405180910390a2505050505050565b6001600160a01b0380831660009081526012602052604081206001015490911690811561265c576001600160a01b038216600090815260146020526040902054612666565b670de0b6b3a76400005b601a546001600160a01b038616600090815260126020526040902054919250670de0b6b3a7640000916126a19184910263ffffffff61344c16565b816126a857fe5b6001600160a01b0380871660009081526012602052604090209290910460039092019190915583161561276d57506001600160a01b03821660009081526014602052604081205490612708670de0b6b3a76400008363ffffffff611d6316565b601a546001600160a01b038616600090815260156020526040902054919250670de0b6b3a7640000916127439184910263ffffffff61344c16565b8161274a57fe5b6001600160a01b0386166000908152601560205260409020919004600290910155505b50505050565b8061277d57611d4a565b601054600090612793908363ffffffff611d6316565b9050806010819055506000805160206143b5833981519152816040516127b99190613cb3565b60405180910390a160008051602061441583398151915233836040516127e0929190613c73565b60405180910390a16000336001600160a01b03168360405161280190613bf8565b60006040518083038185875af1925050503d806000811461283e576040519150601f19603f3d011682016040523d82523d6000602084013e612843565b606091505b505090508061208f5760405162461bcd60e51b815260040161077190613f6e565b600b546001600160a01b0316331461077a5760405162461bcd60e51b815260040161077190613f25565b60008060006128b4601e546117d2670de0b6b3a76400008961344c90919063ffffffff16565b9050838511156128c057fe5b838514156128dd576000601f55670de0b6b3a76400009150612931565b601f546000906128ff906117c688670de0b6b3a764000063ffffffff61344c16565b905061291660016117d2838863ffffffff61348616565b925061292c816117c6858863ffffffff61344c16565b601f55505b612941818563ffffffff61348616565b9250612963612956848663ffffffff61344c16565b829063ffffffff611d6316565b601e5550935093915050565b612977613294565b6000612983600661357c565b905060005b81811015612a685760006129a360068363ffffffff61358716565b6001600160a01b0380821660009081526012602052604081206001810154939450929091169081156129ed576001600160a01b0382166000908152601460205260409020546129f7565b670de0b6b3a76400005b9050612a5083600201546117d2670de0b6b3a764000061171487600301546117c6670de0b6b3a7640000612a3a601a548c6000015461344c90919063ffffffff16565b81612a4157fe5b8991900463ffffffff61344c16565b60028401555050600060039091015550600101612988565b506000612a75600861357c565b905060005b81811015612b39576000612a9560088363ffffffff61358716565b6001600160a01b038116600090815260156020908152604080832060149092528220549293509190612ad5670de0b6b3a76400008363ffffffff611d6316565b9050612b1883600101546117d2670de0b6b3a764000061171487600201546117c6670de0b6b3a7640000612a3a601a548c6000015461344c90919063ffffffff16565b60018085019190915560006002909401939093555050919091019050612a7a565b50506000601a5550565b6017546000670de0b6b3a7640000831115612b5a57fe5b6000612b74670de0b6b3a76400008563ffffffff611d6316565b601b546001600160801b03600160801b820481166000818152601c60209081526040808320949095168083529390529283205493945090929091612bb8898861344c565b90506000612bcc838363ffffffff61077c16565b6001600160801b038086166000908152601c60209081526040808320938a168352929052819020829055519091507fe12e2cd2c9afa8069203ca07e7eff1edce4a075686d0736a8e7e0d593597b20790612c2b90839087908990614343565b60405180910390a185612cf257612c526001600160801b038516600163ffffffff61359316565b601b80546001600160801b03908116600160801b938216840217918290556040517fb50f0f59e7cb5b421dc77581c3a9919e3806e076e5fa78a874c3f120cb7d874d93612ca39304909116906142e4565b60405180910390a1601b80546001600160801b031916905560405160008051602061447583398151915290612cda906000906142e4565b60405180910390a1670de0b6b3a76400009650612dcd565b633b9aca00612d13670de0b6b3a76400006117148b8a63ffffffff61344c16565b1015612dae57612d49670de0b6b3a7640000611714633b9aca00612d3d8c8b63ffffffff61344c16565b9063ffffffff61344c16565b9650612d656001600160801b038616600163ffffffff61359316565b601b80546001600160801b0319166001600160801b03928316179081905560405160008051602061447583398151915292612da19216906142e4565b60405180910390a1612dcd565b612dca670de0b6b3a76400006117148a8963ffffffff61344c16565b96505b60008711612dd757fe5b60178790556040517fc1a9618cb59ebca77cbdbc2949f126823c407ff13edb285fd0262519a9c18e8c90612e0c908990613cb3565b60405180910390a150505050505050505050565b60015460405163071b32b560e31b81526001600160a01b039091169081906338d995a890612e52908590600401613cb3565b600060405180830381600087803b158015612e6c57600080fd5b505af1158015612e80573d6000803e3d6000fd5b50505050612e8d8261352b565b600c54604051632770a7eb60e21b81526001600160a01b0390911690639dc29fac90612ebf9030908690600401613c73565b600060405180830381600087803b158015612ed957600080fd5b505af1158015612eed573d6000803e3d6000fd5b50506040516364a197f360e01b81526001600160a01b03841692506364a197f39150612f1f9030908790600401613c73565b600060405180830381600087803b158015612f3957600080fd5b505af1158015612f4d573d6000803e3d6000fd5b50505050505050565b606081015160408083015183516020808601516001600160801b038087166000908152601c84528681209186168152925293812054909493908590612fa1908463ffffffff611d6316565b6001600160801b038087166000908152601c602052604081209293509161300491633b9aca0091908490612fde908a16600163ffffffff61359316565b6001600160801b031681526020810191909152604001600020549063ffffffff61348616565b90506000613036670de0b6b3a76400006117148681613029888863ffffffff61077c16565b8f9063ffffffff61344c16565b9a9950505050505050505050565b6001600160a01b03811660009081526014602052604090206001015460ff1615611d4a5760405162461bcd60e51b8152600401610771906140be565b6001600160a01b0381166000908152601260205260409020548015610a9d5760405162461bcd60e51b815260040161077190614117565b670de0b6b3a7640000811115611d4a5760405162461bcd60e51b815260040161077190614025565b60006107a1836001600160a01b0384166135c4565b6001600160a01b03811660009081526014602052604090206001015460ff168061312557506001600160a01b038116155b611d4a5760405162461bcd60e51b815260040161077190613dee565b60008111611d4a5760405162461bcd60e51b815260040161077190614078565b6001600160a01b0382811660008181526012602052604080822060010180546001600160a01b0319169486169485179055517f094c08e96a8890877a8390b4f967180a7507ad8622244d05fcd0f9f8e086564e9190a35050565b600c54604051632ee65eeb60e21b81526001600160a01b039091169063bb997bac906131ef90859030908690600401613c4f565b600060405180830381600087803b15801561320957600080fd5b505af115801561321d573d6000803e3d6000fd5b50506011546000925061323791508363ffffffff61077c16565b9050806011819055506000805160206143f58339815191528160405161325d9190613cb3565b60405180910390a1505050565b600f546001600160a01b0316331461077a5760405162461bcd60e51b815260040161077190613ee0565b6011546132a4574360195561077a565b60195443111561077a57601154156132eb57600060195443039050600060185482029050601154670de0b6b3a76400008202816132dd57fe5b04601a5401601a8190555050505b43601955565b6001600160a01b0381166133175760405162461bcd60e51b81526004016107719061415f565b803b80610a9d5760405162461bcd60e51b81526004016107719061417e565b6005546040516000916001600160a01b0316907f8be0079c531659141344cd1fd0a4f28419497f9722a3daafe3b4186f6b6457e0908390a3600580546001600160a01b0319169055565b600b546040516321e3780160e01b81526001600160a01b03909116906321e37801906133b0908490600401613bfb565b60206040518083038186803b1580156133c857600080fd5b505afa1580156133dc573d6000803e3d6000fd5b505050506040513d601f19601f820116820180604052508101906134009190613a8e565b600114611d4a5760405162461bcd60e51b815260040161077190613d5f565b600061342a82610aa1565b905060008111610a9d5760405162461bcd60e51b815260040161077190613ea1565b60008261345b575060006107a4565b8282028284828161346857fe5b04146107a15760405162461bcd60e51b815260040161077190613faf565b60006107a183836040518060400160405280601a815260200179536166654d6174683a206469766973696f6e206279207a65726f60301b81525061360e565b6000826001600160801b0316826001600160801b031611156134f95760405162461bcd60e51b8152600401610771906141ed565b50900390565b600081848411156135235760405162461bcd60e51b81526004016107719190613cca565b505050900390565b601154600090613541908363ffffffff611d6316565b9050806011819055506000805160206143f5833981519152816040516110e29190613cb3565b60006107a1836001600160a01b038416613645565b60006107a48261370b565b60006107a1838361370f565b60008282016001600160801b0380851690821610156107a15760405162461bcd60e51b815260040161077190614235565b60006135d08383613754565b613606575081546001818101845560008481526020808220909301849055845484825282860190935260409020919091556107a4565b5060006107a4565b6000818361362f5760405162461bcd60e51b81526004016107719190613cca565b50600083858161363b57fe5b0495945050505050565b60008181526001830160205260408120548015613701578354600019808301919081019060009087908390811061367857fe5b906000526020600020015490508087600001848154811061369557fe5b6000918252602080832090910192909255828152600189810190925260409020908401905586548790806136c557fe5b600190038181906000526020600020016000905590558660010160008781526020019081526020016000206000905560019450505050506107a4565b60009150506107a4565b5490565b815460009082106137325760405162461bcd60e51b815260040161077190613d1d565b82600001828154811061374157fe5b9060005260206000200154905092915050565b60009081526001919091016020526040902054151590565b6040518060800160405280600081526020016000815260200160006001600160801b0316815260200160006001600160801b031681525090565b60405180606001604052806000815260200160008152602001600081525090565b6040518060800160405280600081526020016000801916815260200160008152602001600081525090565b60405180608001604052806000815260200160006001600160a01b0316815260200160008152602001600081525090565b60008083601f840112613834578182fd5b5081356001600160401b0381111561384a578182fd5b602083019150836020808302850101111561386457600080fd5b9250929050565b80356001600160801b03811681146107a457600080fd5b600060208284031215613893578081fd5b81356107a18161439f565b6000602082840312156138af578081fd5b81516107a18161439f565b6000806000806000806000806000806101408b8d0312156138d9578586fd5b8a356138e48161439f565b995060208b01356138f48161439f565b985060408b01356139048161439f565b975060608b01356139148161439f565b965060808b01356139248161439f565b955060a08b01356139348161439f565b945060c08b01356139448161439f565b935060e08b01356139548161439f565b92506101008b01356139658161439f565b809250506101208b013590509295989b9194979a5092959850565b60008060008060608587031215613995578384fd5b84356139a08161439f565b935060208501356139b08161439f565b925060408501356001600160401b038111156139ca578283fd5b6139d687828801613823565b95989497509550505050565b6000608082840312156139f3578081fd5b604051608081016001600160401b0381118282101715613a11578283fd5b8060405250825181526020830151602082015260408301516040820152606083015160608201528091505092915050565b60008060408385031215613a54578182fd5b613a5e848461386b565b9150613a6d846020850161386b565b90509250929050565b600060208284031215613a87578081fd5b5035919050565b600060208284031215613a9f578081fd5b5051919050565b60008060408385031215613ab8578182fd5b823591506020830135613aca8161439f565b809150509250929050565b600080600060408486031215613ae9578283fd5b8335925060208401356001600160401b03811115613b05578283fd5b613b1186828701613823565b9497909650939450505050565b60008060408385031215613b30578182fd5b50508035926020909101359150565b8183526020808401936000918085028201810184845b87811015613bc157848303601f19018952813536889003601e19018112613b7a578687fd5b87018035906001600160401b03821115613b92578788fd5b813603891315613ba0578788fd5b613bad8583888401613bce565b9a86019a9450505090830190600101613b55565b5090979650505050505050565b60008284528282602086013780602084860101526020601f19601f85011685010190509392505050565b90565b6001600160a01b0391909116815260200190565b6001600160a01b038681168252858116602083015284166040820152608060608201819052600090613c449083018486613b3f565b979650505050505050565b6001600160a01b039384168152919092166020820152604081019190915260600190565b6001600160a01b03929092168252602082015260400190565b600060208252613ca0602083018486613b3f565b949350505050565b901515815260200190565b90815260200190565b918252602082015260400190565b6000602080835283518082850152825b81811015613cf657858101830151858201604001528201613cda565b81811115613d075783604083870101525b50601f01601f1916929092016040019392505050565b60208082526022908201527f456e756d657261626c655365743a20696e646578206f7574206f6620626f756e604082015261647360f01b606082015260800190565b602080825260469082015260008051602061443583398151915260408201527f616e206163746976652074726f766520746f207769746864726177204554484760608201526561696e20746f60d01b608082015260a00190565b6020808252601b908201527a536166654d6174683a206164646974696f6e206f766572666c6f7760281b604082015260600190565b60208082526046908201527f53746162696c697479506f6f6c3a20546167206d75737420626520612072656760408201527f697374657265642066726f6e7420656e642c206f7220746865207a65726f206160608201526564647265737360d01b608082015260a00190565b60208082526027908201527f53746162696c697479506f6f6c3a2043616c6c6572206973206e6f74204163746040820152661a5d99541bdbdb60ca1b606082015260800190565b60208082526031908201526000805160206144358339815191526040820152703737b716bd32b9379022aa241023b0b4b760791b606082015260800190565b60208082526025908201527f53746162696c697479506f6f6c3a2043616c6c6572206973206e6f742054696d604082015264654c6f636b60d81b606082015260800190565b60208082526029908201527f53746162696c697479506f6f6c3a2043616c6c6572206973206e6f742054726f6040820152683b32a6b0b730b3b2b960b91b606082015260800190565b60208082526021908201527f53746162696c697479506f6f6c3a2073656e64696e6720455448206661696c656040820152601960fa1b606082015260800190565b60208082526021908201527f536166654d6174683a206d756c7469706c69636174696f6e206f766572666c6f6040820152607760f81b606082015260800190565b6020808252818101527f4f776e61626c653a2063616c6c6572206973206e6f7420746865206f776e6572604082015260600190565b60208082526033908201527f53746162696c697479506f6f6c3a204b69636b6261636b2072617465206d75736040820152727420626520696e2072616e6765205b302c315d60681b606082015260800190565b60208082526026908201527f53746162696c697479506f6f6c3a20416d6f756e74206d757374206265206e6f6040820152656e2d7a65726f60d01b606082015260800190565b60208082526039908201527f53746162696c697479506f6f6c3a206d757374206e6f7420616c72656164792060408201527818994818481c9959da5cdd195c995908199c9bdb9d08195b99603a1b606082015260800190565b60208082526028908201527f53746162696c697479506f6f6c3a2055736572206d7573742068617665206e6f6040820152670819195c1bdcda5d60c21b606082015260800190565b6020808252600590820152641830b2323960d91b604082015260600190565b60208082526005908201526430636f646560d81b604082015260600190565b60208082526030908201527f53746162696c697479506f6f6c3a2055736572206d757374206861766520612060408201526f1b9bdb8b5e995c9bc819195c1bdcda5d60821b606082015260800190565b60208082526028908201527f4c697175697479536166654d6174683132383a207375627472616374696f6e206040820152676f766572666c6f7760c01b606082015260800190565b60208082526025908201527f4c697175697479536166654d6174683132383a206164646974696f6e206f766560408201526472666c6f7760d81b606082015260800190565b60208082526044908201527f53746162696c697479506f6f6c3a2043616e6e6f74207769746864726177207760408201527f68696c65207468657265206172652074726f766573207769746820494352203c6060820152631026a1a960e11b608082015260a00190565b6001600160801b0391909116815260200190565b9182526001600160a01b0316602082015260400190565b9384526001600160a01b039290921660208401526040830152606082015260800190565b9182521515602082015260400190565b9283526001600160801b03918216602084015216604082015260600190565b93845260208401929092526001600160801b03908116604084015216606082015260800190565b9283526020830191909152604082015260600190565b6001600160a01b0381168114611d4a57600080fdfeceb6d671277d4354fd29977ada70695fbd93a16612abf765d6b0e25c28dc6db3bce78369dccab09eec1986f4d409ab09ffbb47d65423e5148fcf98411c5111c9a8e886449d8f7e765877b4a4f54632da3943ae454d5a272bdccb1781f086ff296109e2559dfa766aaec7118351d48a523f0a4157f49c8d68749c8ac41318ad1253746162696c697479506f6f6c3a2063616c6c6572206d757374206861766520c48943df4095f4f20d171fd2872eafdc0eed4d9014ac3672f3bde7fd425449d51f9dfc70cd666adb18a39d60a797518f7b4febf4b6e24ef37d44f6e1e7219fbe51457222ebca92c335c9c86e2baa1cc0e40ffaa9084a51452980d5ba8dec2f634c6e87079e93d96a19e5b7d568f7ae3a730f9b31e2dcf3611a1ec71edd57462c99920012339b5a3368d3a04b8606ce412c46ed92b7dcd8602d41fc8862cb8f25a2646970667358221220d2f285d1915a709b1cd143125d915326e6bee6d26d34f49d261584bf2ffabf9d64736f6c634300060b0033",
  "linkReferences": {},
  "deployedLinkReferences": {}
}