{
  "_format": "hh-sol-artifact-1",
  "contractName": "SystemState",
  "sourceName": "contracts/SystemState.sol",
  "abi": [
    {
      "anonymous": false,
      "inputs": [
        {
          "indexed": false,
          "internalType": "uint256",
          "name": "_o",
          "type": "uint256"
        },
        {
          "indexed": false,
          "internalType": "uint256",
          "name": "_n",
          "type": "uint256"
        }
      ],
      "name": "BorrowingFeeFloorChanged",
      "type": "event"
    },
    {
      "anonymous": false,
      "inputs": [
        {
          "indexed": false,
          "internalType": "uint256",
          "name": "_o",
          "type": "uint256"
        },
        {
          "indexed": false,
          "internalType": "uint256",
          "name": "_n",
          "type": "uint256"
        }
      ],
      "name": "CCR_Changed",
      "type": "event"
    },
    {
      "anonymous": false,
      "inputs": [
        {
          "indexed": false,
          "internalType": "uint256",
          "name": "_o",
          "type": "uint256"
        },
        {
          "indexed": false,
          "internalType": "uint256",
          "name": "_n",
          "type": "uint256"
        }
      ],
      "name": "LUSDGasCompensationChanged",
      "type": "event"
    },
    {
      "anonymous": false,
      "inputs": [
        {
          "indexed": false,
          "internalType": "uint256",
          "name": "_o",
          "type": "uint256"
        },
        {
          "indexed": false,
          "internalType": "uint256",
          "name": "_n",
          "type": "uint256"
        }
      ],
      "name": "MCR_Changed",
      "type": "event"
    },
    {
      "anonymous": false,
      "inputs": [
        {
          "indexed": false,
          "internalType": "uint256",
          "name": "_o",
          "type": "uint256"
        },
        {
          "indexed": false,
          "internalType": "uint256",
          "name": "_n",
          "type": "uint256"
        }
      ],
      "name": "MinNetDebtChanged",
      "type": "event"
    },
    {
      "anonymous": false,
      "inputs": [
        {
          "indexed": true,
          "internalType": "address",
          "name": "previousOwner",
          "type": "address"
        },
        {
          "indexed": true,
          "internalType": "address",
          "name": "newOwner",
          "type": "address"
        }
      ],
      "name": "OwnershipTransferred",
      "type": "event"
    },
    {
      "anonymous": false,
      "inputs": [
        {
          "indexed": false,
          "internalType": "uint256",
          "name": "_o",
          "type": "uint256"
        },
        {
          "indexed": false,
          "internalType": "uint256",
          "name": "_n",
          "type": "uint256"
        }
      ],
      "name": "RedemptionFeeFloorChanged",
      "type": "event"
    },
    {
      "inputs": [],
      "name": "getBorrowingFeeFloor",
      "outputs": [
        {
          "internalType": "uint256",
          "name": "",
          "type": "uint256"
        }
      ],
      "stateMutability": "view",
      "type": "function"
    },
    {
      "inputs": [],
      "name": "getCCR",
      "outputs": [
        {
          "internalType": "uint256",
          "name": "",
          "type": "uint256"
        }
      ],
      "stateMutability": "view",
      "type": "function"
    },
    {
      "inputs": [],
      "name": "getLUSDGasCompensation",
      "outputs": [
        {
          "internalType": "uint256",
          "name": "",
          "type": "uint256"
        }
      ],
      "stateMutability": "view",
      "type": "function"
    },
    {
      "inputs": [],
      "name": "getMCR",
      "outputs": [
        {
          "internalType": "uint256",
          "name": "",
          "type": "uint256"
        }
      ],
      "stateMutability": "view",
      "type": "function"
    },
    {
      "inputs": [],
      "name": "getMinNetDebt",
      "outputs": [
        {
          "internalType": "uint256",
          "name": "",
          "type": "uint256"
        }
      ],
      "stateMutability": "view",
      "type": "function"
    },
    {
      "inputs": [],
      "name": "getRedemptionFeeFloor",
      "outputs": [
        {
          "internalType": "uint256",
          "name": "",
          "type": "uint256"
        }
      ],
      "stateMutability": "view",
      "type": "function"
    },
    {
      "inputs": [],
      "name": "isOwner",
      "outputs": [
        {
          "internalType": "bool",
          "name": "",
          "type": "bool"
        }
      ],
      "stateMutability": "view",
      "type": "function"
    },
    {
      "inputs": [],
      "name": "owner",
      "outputs": [
        {
          "internalType": "address",
          "name": "",
          "type": "address"
        }
      ],
      "stateMutability": "view",
      "type": "function"
    },
    {
      "inputs": [
        {
          "internalType": "uint256",
          "name": "_value",
          "type": "uint256"
        }
      ],
      "name": "setBorrowingFeeFloor",
      "outputs": [],
      "stateMutability": "nonpayable",
      "type": "function"
    },
    {
      "inputs": [
        {
          "internalType": "uint256",
          "name": "_value",
          "type": "uint256"
        }
      ],
      "name": "setCCR",
      "outputs": [],
      "stateMutability": "nonpayable",
      "type": "function"
    },
    {
      "inputs": [
        {
          "internalType": "address",
          "name": "_timelock",
          "type": "address"
        },
        {
          "internalType": "uint256",
          "name": "_mcr",
          "type": "uint256"
        },
        {
          "internalType": "uint256",
          "name": "_ccr",
          "type": "uint256"
        },
        {
          "internalType": "uint256",
          "name": "_LUSDGasCompensation",
          "type": "uint256"
        },
        {
          "internalType": "uint256",
          "name": "_minNetDebt",
          "type": "uint256"
        },
        {
          "internalType": "uint256",
          "name": "_borrowingFeeFloor",
          "type": "uint256"
        },
        {
          "internalType": "uint256",
          "name": "_redemptionFeeFloor",
          "type": "uint256"
        }
      ],
      "name": "setConfigs",
      "outputs": [],
      "stateMutability": "nonpayable",
      "type": "function"
    },
    {
      "inputs": [
        {
          "internalType": "uint256",
          "name": "_value",
          "type": "uint256"
        }
      ],
      "name": "setLUSDGasCompensation",
      "outputs": [],
      "stateMutability": "nonpayable",
      "type": "function"
    },
    {
      "inputs": [
        {
          "internalType": "uint256",
          "name": "_value",
          "type": "uint256"
        }
      ],
      "name": "setMCR",
      "outputs": [],
      "stateMutability": "nonpayable",
      "type": "function"
    },
    {
      "inputs": [
        {
          "internalType": "uint256",
          "name": "_value",
          "type": "uint256"
        }
      ],
      "name": "setMinNetDebt",
      "outputs": [],
      "stateMutability": "nonpayable",
      "type": "function"
    },
    {
      "inputs": [
        {
          "internalType": "uint256",
          "name": "_value",
          "type": "uint256"
        }
      ],
      "name": "setRedemptionFeeFloor",
      "outputs": [],
      "stateMutability": "nonpayable",
      "type": "function"
    }
  ],
  "bytecode": "0x608060405234801561001057600080fd5b50600080546001600160a01b0319163390811782556040519091907f8be0079c531659141344cd1fd0a4f28419497f9722a3daafe3b4186f6b6457e0908290a36108228061005f6000396000f3fe608060405234801561001057600080fd5b50600436106100c55760003560e01c806325ee537e146100ca5780632c092818146101165780632e2465f814610133578063385a128f146101505780634139ad601461016d578063438d641a1461018a57806344936b10146101a75780635e9e3212146101c15780636030cc8c146101c95780638abf30b3146101e65780638da5cb5b146101ee5780638f32d59b14610212578063bb4095221461022e578063c4dc70d314610236578063d5205e481461023e575b600080fd5b610114600480360360e08110156100e057600080fd5b506001600160a01b038135169060208101359060408101359060608101359060808101359060a08101359060c00135610246565b005b6101146004803603602081101561012c57600080fd5b503561030a565b6101146004803603602081101561014957600080fd5b5035610363565b6101146004803603602081101561016657600080fd5b50356103b9565b6101146004803603602081101561018357600080fd5b503561040f565b610114600480360360208110156101a057600080fd5b5035610465565b6101af6104bb565b60408051918252519081900360200190f35b6101af6104c1565b610114600480360360208110156101df57600080fd5b50356104c7565b6101af61051d565b6101f6610523565b604080516001600160a01b039092168252519081900360200190f35b61021a610532565b604080519115158252519081900360200190f35b6101af610543565b6101af610549565b6101af61054f565b61024e610532565b61029f576040805162461bcd60e51b815260206004820181905260248201527f4f776e61626c653a2063616c6c6572206973206e6f7420746865206f776e6572604482015290519081900360640190fd5b6102a887610555565b600780546001600160a01b0319166001600160a01b0389161790556102cc866105d8565b6102d58561061f565b6102de84610666565b6102e7836106ad565b6102f0826106f4565b6102f98161073b565b610301610782565b50505050505050565b6007546001600160a01b03163314610357576040805162461bcd60e51b815260206004820152601b60248201526000805160206107cd833981519152604482015290519081900360640190fd5b61036081610666565b50565b6007546001600160a01b031633146103b0576040805162461bcd60e51b815260206004820152601b60248201526000805160206107cd833981519152604482015290519081900360640190fd5b610360816106f4565b6007546001600160a01b03163314610406576040805162461bcd60e51b815260206004820152601b60248201526000805160206107cd833981519152604482015290519081900360640190fd5b610360816105d8565b6007546001600160a01b0316331461045c576040805162461bcd60e51b815260206004820152601b60248201526000805160206107cd833981519152604482015290519081900360640190fd5b6103608161061f565b6007546001600160a01b031633146104b2576040805162461bcd60e51b815260206004820152601b60248201526000805160206107cd833981519152604482015290519081900360640190fd5b610360816106ad565b60015490565b60055490565b6007546001600160a01b03163314610514576040805162461bcd60e51b815260206004820152601b60248201526000805160206107cd833981519152604482015290519081900360640190fd5b6103608161073b565b60065490565b6000546001600160a01b031690565b6000546001600160a01b0316331490565b60025490565b60045490565b60035490565b6001600160a01b038116610598576040805162461bcd60e51b81526020600482015260056024820152641830b2323960d91b604482015290519081900360640190fd5b803b806105d4576040805162461bcd60e51b815260206004820152600560248201526430636f646560d81b604482015290519081900360640190fd5b5050565b6001805490829055604080518281526020810184905281517f71f9506549f80f8467074cf2f8c6e652aa730dc46b4c2bf5134c4e7bdd821481929181900390910190a15050565b6002805490829055604080518281526020810184905281517f3ec40a32028fd52f7f01b6903f93694c15797919eb66ea06cfdd447f73208ccb929181900390910190a15050565b6003805490829055604080518281526020810184905281517f6c8431e66513ef2617b99f760cf2f5a58c8aa904bbda5203d6d89ad6e592e2a3929181900390910190a15050565b6004805490829055604080518281526020810184905281517f794abdbe21b3b4556467be6af2b2d5e75ae16613bd128dbd47c3727bd52b4b55929181900390910190a15050565b6005805490829055604080518281526020810184905281517fd9497bdb2df1266d0aea6a2f7c18fb95c33b49b294c98cf2cea07ae1640f40be929181900390910190a15050565b6006805490829055604080518281526020810184905281517fbb07ced1b1536afc600a5d97cba6e4b294731026286cddc33b98cb2d18569ab7929181900390910190a15050565b600080546040516001600160a01b03909116907f8be0079c531659141344cd1fd0a4f28419497f9722a3daafe3b4186f6b6457e0908390a3600080546001600160a01b031916905556fe43616c6c6572206973206e6f742066726f6d2074696d656c6f636b0000000000a2646970667358221220e985b2994bbcd0da7de5598938ac8bf60cafc1e6832f7d531efbf275dcdfd09964736f6c634300060b0033",
  "linkReferences": {},
  "deployedLinkReferences": {}
}