{
  "_format": "hh-sol-artifact-1",
  "contractName": "TimeLock",
  "sourceName": "contracts/TimeLock.sol",
  "abi": [
    {
      "inputs": [
        {
          "internalType": "uint256",
          "name": "minDelay",
          "type": "uint256"
        },
        {
          "internalType": "address[]",
          "name": "proposers",
          "type": "address[]"
        },
        {
          "internalType": "address[]",
          "name": "executors",
          "type": "address[]"
        }
      ],
      "stateMutability": "nonpayable",
      "type": "constructor"
    },
    {
      "anonymous": false,
      "inputs": [
        {
          "indexed": true,
          "internalType": "bytes32",
          "name": "id",
          "type": "bytes32"
        },
        {
          "indexed": true,
          "internalType": "uint256",
          "name": "index",
          "type": "uint256"
        },
        {
          "indexed": false,
          "internalType": "address",
          "name": "target",
          "type": "address"
        },
        {
          "indexed": false,
          "internalType": "uint256",
          "name": "value",
          "type": "uint256"
        },
        {
          "indexed": false,
          "internalType": "bytes",
          "name": "data",
          "type": "bytes"
        }
      ],
      "name": "CallExecuted",
      "type": "event"
    },
    {
      "anonymous": false,
      "inputs": [
        {
          "indexed": true,
          "internalType": "bytes32",
          "name": "id",
          "type": "bytes32"
        },
        {
          "indexed": true,
          "internalType": "uint256",
          "name": "index",
          "type": "uint256"
        },
        {
          "indexed": false,
          "internalType": "address",
          "name": "target",
          "type": "address"
        },
        {
          "indexed": false,
          "internalType": "uint256",
          "name": "value",
          "type": "uint256"
        },
        {
          "indexed": false,
          "internalType": "bytes",
          "name": "data",
          "type": "bytes"
        },
        {
          "indexed": false,
          "internalType": "bytes32",
          "name": "predecessor",
          "type": "bytes32"
        },
        {
          "indexed": false,
          "internalType": "uint256",
          "name": "delay",
          "type": "uint256"
        }
      ],
      "name": "CallScheduled",
      "type": "event"
    },
    {
      "anonymous": false,
      "inputs": [
        {
          "indexed": true,
          "internalType": "bytes32",
          "name": "id",
          "type": "bytes32"
        }
      ],
      "name": "Cancelled",
      "type": "event"
    },
    {
      "anonymous": false,
      "inputs": [
        {
          "indexed": false,
          "internalType": "uint256",
          "name": "oldDuration",
          "type": "uint256"
        },
        {
          "indexed": false,
          "internalType": "uint256",
          "name": "newDuration",
          "type": "uint256"
        }
      ],
      "name": "MinDelayChange",
      "type": "event"
    },
    {
      "anonymous": false,
      "inputs": [
        {
          "indexed": true,
          "internalType": "bytes32",
          "name": "role",
          "type": "bytes32"
        },
        {
          "indexed": true,
          "internalType": "bytes32",
          "name": "previousAdminRole",
          "type": "bytes32"
        },
        {
          "indexed": true,
          "internalType": "bytes32",
          "name": "newAdminRole",
          "type": "bytes32"
        }
      ],
      "name": "RoleAdminChanged",
      "type": "event"
    },
    {
      "anonymous": false,
      "inputs": [
        {
          "indexed": true,
          "internalType": "bytes32",
          "name": "role",
          "type": "bytes32"
        },
        {
          "indexed": true,
          "internalType": "address",
          "name": "account",
          "type": "address"
        },
        {
          "indexed": true,
          "internalType": "address",
          "name": "sender",
          "type": "address"
        }
      ],
      "name": "RoleGranted",
      "type": "event"
    },
    {
      "anonymous": false,
      "inputs": [
        {
          "indexed": true,
          "internalType": "bytes32",
          "name": "role",
          "type": "bytes32"
        },
        {
          "indexed": true,
          "internalType": "address",
          "name": "account",
          "type": "address"
        },
        {
          "indexed": true,
          "internalType": "address",
          "name": "sender",
          "type": "address"
        }
      ],
      "name": "RoleRevoked",
      "type": "event"
    },
    {
      "inputs": [],
      "name": "DEFAULT_ADMIN_ROLE",
      "outputs": [
        {
          "internalType": "bytes32",
          "name": "",
          "type": "bytes32"
        }
      ],
      "stateMutability": "view",
      "type": "function"
    },
    {
      "inputs": [],
      "name": "EXECUTOR_ROLE",
      "outputs": [
        {
          "internalType": "bytes32",
          "name": "",
          "type": "bytes32"
        }
      ],
      "stateMutability": "view",
      "type": "function"
    },
    {
      "inputs": [],
      "name": "PROPOSER_ROLE",
      "outputs": [
        {
          "internalType": "bytes32",
          "name": "",
          "type": "bytes32"
        }
      ],
      "stateMutability": "view",
      "type": "function"
    },
    {
      "inputs": [],
      "name": "TIMELOCK_ADMIN_ROLE",
      "outputs": [
        {
          "internalType": "bytes32",
          "name": "",
          "type": "bytes32"
        }
      ],
      "stateMutability": "view",
      "type": "function"
    },
    {
      "inputs": [
        {
          "internalType": "bytes32",
          "name": "id",
          "type": "bytes32"
        }
      ],
      "name": "cancel",
      "outputs": [],
      "stateMutability": "nonpayable",
      "type": "function"
    },
    {
      "inputs": [
        {
          "internalType": "address",
          "name": "target",
          "type": "address"
        },
        {
          "internalType": "uint256",
          "name": "value",
          "type": "uint256"
        },
        {
          "internalType": "bytes",
          "name": "data",
          "type": "bytes"
        },
        {
          "internalType": "bytes32",
          "name": "predecessor",
          "type": "bytes32"
        },
        {
          "internalType": "bytes32",
          "name": "salt",
          "type": "bytes32"
        }
      ],
      "name": "execute",
      "outputs": [],
      "stateMutability": "payable",
      "type": "function"
    },
    {
      "inputs": [
        {
          "internalType": "address[]",
          "name": "targets",
          "type": "address[]"
        },
        {
          "internalType": "uint256[]",
          "name": "values",
          "type": "uint256[]"
        },
        {
          "internalType": "bytes[]",
          "name": "datas",
          "type": "bytes[]"
        },
        {
          "internalType": "bytes32",
          "name": "predecessor",
          "type": "bytes32"
        },
        {
          "internalType": "bytes32",
          "name": "salt",
          "type": "bytes32"
        }
      ],
      "name": "executeBatch",
      "outputs": [],
      "stateMutability": "payable",
      "type": "function"
    },
    {
      "inputs": [],
      "name": "getMinDelay",
      "outputs": [
        {
          "internalType": "uint256",
          "name": "duration",
          "type": "uint256"
        }
      ],
      "stateMutability": "view",
      "type": "function"
    },
    {
      "inputs": [
        {
          "internalType": "bytes32",
          "name": "role",
          "type": "bytes32"
        }
      ],
      "name": "getRoleAdmin",
      "outputs": [
        {
          "internalType": "bytes32",
          "name": "",
          "type": "bytes32"
        }
      ],
      "stateMutability": "view",
      "type": "function"
    },
    {
      "inputs": [
        {
          "internalType": "bytes32",
          "name": "role",
          "type": "bytes32"
        },
        {
          "internalType": "uint256",
          "name": "index",
          "type": "uint256"
        }
      ],
      "name": "getRoleMember",
      "outputs": [
        {
          "internalType": "address",
          "name": "",
          "type": "address"
        }
      ],
      "stateMutability": "view",
      "type": "function"
    },
    {
      "inputs": [
        {
          "internalType": "bytes32",
          "name": "role",
          "type": "bytes32"
        }
      ],
      "name": "getRoleMemberCount",
      "outputs": [
        {
          "internalType": "uint256",
          "name": "",
          "type": "uint256"
        }
      ],
      "stateMutability": "view",
      "type": "function"
    },
    {
      "inputs": [
        {
          "internalType": "bytes32",
          "name": "id",
          "type": "bytes32"
        }
      ],
      "name": "getTimestamp",
      "outputs": [
        {
          "internalType": "uint256",
          "name": "timestamp",
          "type": "uint256"
        }
      ],
      "stateMutability": "view",
      "type": "function"
    },
    {
      "inputs": [
        {
          "internalType": "bytes32",
          "name": "role",
          "type": "bytes32"
        },
        {
          "internalType": "address",
          "name": "account",
          "type": "address"
        }
      ],
      "name": "grantRole",
      "outputs": [],
      "stateMutability": "nonpayable",
      "type": "function"
    },
    {
      "inputs": [
        {
          "internalType": "bytes32",
          "name": "role",
          "type": "bytes32"
        },
        {
          "internalType": "address",
          "name": "account",
          "type": "address"
        }
      ],
      "name": "hasRole",
      "outputs": [
        {
          "internalType": "bool",
          "name": "",
          "type": "bool"
        }
      ],
      "stateMutability": "view",
      "type": "function"
    },
    {
      "inputs": [
        {
          "internalType": "address",
          "name": "target",
          "type": "address"
        },
        {
          "internalType": "uint256",
          "name": "value",
          "type": "uint256"
        },
        {
          "internalType": "bytes",
          "name": "data",
          "type": "bytes"
        },
        {
          "internalType": "bytes32",
          "name": "predecessor",
          "type": "bytes32"
        },
        {
          "internalType": "bytes32",
          "name": "salt",
          "type": "bytes32"
        }
      ],
      "name": "hashOperation",
      "outputs": [
        {
          "internalType": "bytes32",
          "name": "hash",
          "type": "bytes32"
        }
      ],
      "stateMutability": "pure",
      "type": "function"
    },
    {
      "inputs": [
        {
          "internalType": "address[]",
          "name": "targets",
          "type": "address[]"
        },
        {
          "internalType": "uint256[]",
          "name": "values",
          "type": "uint256[]"
        },
        {
          "internalType": "bytes[]",
          "name": "datas",
          "type": "bytes[]"
        },
        {
          "internalType": "bytes32",
          "name": "predecessor",
          "type": "bytes32"
        },
        {
          "internalType": "bytes32",
          "name": "salt",
          "type": "bytes32"
        }
      ],
      "name": "hashOperationBatch",
      "outputs": [
        {
          "internalType": "bytes32",
          "name": "hash",
          "type": "bytes32"
        }
      ],
      "stateMutability": "pure",
      "type": "function"
    },
    {
      "inputs": [
        {
          "internalType": "bytes32",
          "name": "id",
          "type": "bytes32"
        }
      ],
      "name": "isOperation",
      "outputs": [
        {
          "internalType": "bool",
          "name": "pending",
          "type": "bool"
        }
      ],
      "stateMutability": "view",
      "type": "function"
    },
    {
      "inputs": [
        {
          "internalType": "bytes32",
          "name": "id",
          "type": "bytes32"
        }
      ],
      "name": "isOperationDone",
      "outputs": [
        {
          "internalType": "bool",
          "name": "done",
          "type": "bool"
        }
      ],
      "stateMutability": "view",
      "type": "function"
    },
    {
      "inputs": [
        {
          "internalType": "bytes32",
          "name": "id",
          "type": "bytes32"
        }
      ],
      "name": "isOperationPending",
      "outputs": [
        {
          "internalType": "bool",
          "name": "pending",
          "type": "bool"
        }
      ],
      "stateMutability": "view",
      "type": "function"
    },
    {
      "inputs": [
        {
          "internalType": "bytes32",
          "name": "id",
          "type": "bytes32"
        }
      ],
      "name": "isOperationReady",
      "outputs": [
        {
          "internalType": "bool",
          "name": "ready",
          "type": "bool"
        }
      ],
      "stateMutability": "view",
      "type": "function"
    },
    {
      "inputs": [
        {
          "internalType": "bytes32",
          "name": "role",
          "type": "bytes32"
        },
        {
          "internalType": "address",
          "name": "account",
          "type": "address"
        }
      ],
      "name": "renounceRole",
      "outputs": [],
      "stateMutability": "nonpayable",
      "type": "function"
    },
    {
      "inputs": [
        {
          "internalType": "bytes32",
          "name": "role",
          "type": "bytes32"
        },
        {
          "internalType": "address",
          "name": "account",
          "type": "address"
        }
      ],
      "name": "revokeRole",
      "outputs": [],
      "stateMutability": "nonpayable",
      "type": "function"
    },
    {
      "inputs": [
        {
          "internalType": "address",
          "name": "target",
          "type": "address"
        },
        {
          "internalType": "uint256",
          "name": "value",
          "type": "uint256"
        },
        {
          "internalType": "bytes",
          "name": "data",
          "type": "bytes"
        },
        {
          "internalType": "bytes32",
          "name": "predecessor",
          "type": "bytes32"
        },
        {
          "internalType": "bytes32",
          "name": "salt",
          "type": "bytes32"
        },
        {
          "internalType": "uint256",
          "name": "delay",
          "type": "uint256"
        }
      ],
      "name": "schedule",
      "outputs": [],
      "stateMutability": "nonpayable",
      "type": "function"
    },
    {
      "inputs": [
        {
          "internalType": "address[]",
          "name": "targets",
          "type": "address[]"
        },
        {
          "internalType": "uint256[]",
          "name": "values",
          "type": "uint256[]"
        },
        {
          "internalType": "bytes[]",
          "name": "datas",
          "type": "bytes[]"
        },
        {
          "internalType": "bytes32",
          "name": "predecessor",
          "type": "bytes32"
        },
        {
          "internalType": "bytes32",
          "name": "salt",
          "type": "bytes32"
        },
        {
          "internalType": "uint256",
          "name": "delay",
          "type": "uint256"
        }
      ],
      "name": "scheduleBatch",
      "outputs": [],
      "stateMutability": "nonpayable",
      "type": "function"
    },
    {
      "inputs": [
        {
          "internalType": "uint256",
          "name": "newDelay",
          "type": "uint256"
        }
      ],
      "name": "updateDelay",
      "outputs": [],
      "stateMutability": "nonpayable",
      "type": "function"
    },
    {
      "stateMutability": "payable",
      "type": "receive"
    }
  ],
  "bytecode": "0x60806040523480156200001157600080fd5b5060405162001f2d38038062001f2d83398101604081905262000034916200041f565b62000074604051620000469062000490565b60405180910390206040516200005c9062000490565b6040519081900390206001600160e01b03620001db16565b620000866040516200004690620004b9565b620000986040516200004690620004d2565b620000d5604051620000aa9062000490565b604051908190039020620000c66001600160e01b036200022d16565b6001600160e01b036200023116565b62000100604051620000e79062000490565b604051908190039020306001600160e01b036200023116565b60005b82518110156200015157620001486040516200011f90620004b9565b60405180910390208483815181106200013457fe5b60200260200101516200023160201b60201c565b60010162000103565b5060005b81518110156200018f57620001866040516200017190620004d2565b60405180910390208383815181106200013457fe5b60010162000155565b5060028390556040517f11c24f4ead16507c69ac467fbd5e4eed5fb5c699626d2cc6d66421df253886d590620001ca906000908690620004eb565b60405180910390a1505050620004f9565b600082815260208190526040808220600201549051839285917fbd79b86ffe0ab8e8776151514217cd7cacd52c909f66475c3af44e129f0b00ff9190a460009182526020829052604090912060020155565b3390565b6200024682826001600160e01b036200024a16565b5050565b6000828152602081815260409091206200026f91839062000b51620002cc821b17901c565b156200024657620002886001600160e01b036200022d16565b6001600160a01b0316816001600160a01b0316837f2f8788117e7eff1d82e926ec794901d17c78024a50270940304540a733656f0d60405160405180910390a45050565b6000620002ec836001600160a01b0384166001600160e01b03620002f516565b90505b92915050565b60006200030c83836001600160e01b036200034d16565b6200034457508154600181810184556000848152602080822090930184905584548482528286019093526040902091909155620002ef565b506000620002ef565b60009081526001919091016020526040902054151590565b80516001600160a01b0381168114620002ef57600080fd5b600082601f8301126200038e578081fd5b81516001600160401b0380821115620003a5578283fd5b602080830260405182828201018181108582111715620003c3578687fd5b604052848152945081850192508582018187018301881015620003e557600080fd5b600091505b848210156200041457620003ff888262000365565b845292820192600191909101908201620003ea565b505050505092915050565b60008060006060848603121562000434578283fd5b835160208501519093506001600160401b038082111562000453578384fd5b62000461878388016200037d565b9350604086015191508082111562000477578283fd5b5062000486868287016200037d565b9150509250925092565b7f54494d454c4f434b5f41444d494e5f524f4c4500000000000000000000000000815260130190565b6c50524f504f5345525f524f4c4560981b8152600d0190565b6c4558454355544f525f524f4c4560981b8152600d0190565b918252602082015260400190565b611a2480620005096000396000f3fe60806040526004361061012a5760003560e01c806301d5062a1461013657806307bd0265146101585780630d3cf6fc14610183578063134008d31461019857806313bc9f20146101ab578063248a9ca3146101d85780632ab0f529146101f85780632f2ff15d1461021857806331d507501461023857806336568abe14610258578063584b153e1461027857806364d62353146102985780638065657f146102b85780638f2a0bb0146102d85780638f61f4f5146102f85780639010d07c1461030d57806391d148541461033a578063a217fddf1461035a578063b1c5f4271461036f578063c4d252f51461038f578063ca15c873146103af578063d45c4435146103cf578063d547741f146103ef578063e38335e51461040f578063f27a0c921461042257610131565b3661013157005b600080fd5b34801561014257600080fd5b506101566101513660046110e1565b610437565b005b34801561016457600080fd5b5061016d6104e6565b60405161017a9190611556565b60405180910390f35b34801561018f57600080fd5b5061016d6104fd565b6101566101a6366004611076565b610509565b3480156101b757600080fd5b506101cb6101c63660046112a5565b610593565b60405161017a919061154b565b3480156101e457600080fd5b5061016d6101f33660046112a5565b6105b8565b34801561020457600080fd5b506101cb6102133660046112a5565b6105cd565b34801561022457600080fd5b506101566102333660046112bd565b6105e1565b34801561024457600080fd5b506101cb6102533660046112a5565b610629565b34801561026457600080fd5b506101566102733660046112bd565b61063c565b34801561028457600080fd5b506101cb6102933660046112a5565b61067e565b3480156102a457600080fd5b506101566102b33660046112a5565b61068b565b3480156102c457600080fd5b5061016d6102d3366004611076565b6106ea565b3480156102e457600080fd5b506101566102f33660046111f8565b610729565b34801561030457600080fd5b5061016d610872565b34801561031957600080fd5b5061032d6103283660046112ec565b61087e565b60405161017a9190611423565b34801561034657600080fd5b506101cb6103553660046112bd565b6108a5565b34801561036657600080fd5b5061016d6108c3565b34801561037b57600080fd5b5061016d61038a366004611154565b6108c8565b34801561039b57600080fd5b506101566103aa3660046112a5565b61090d565b3480156103bb57600080fd5b5061016d6103ca3660046112a5565b6109bb565b3480156103db57600080fd5b5061016d6103ea3660046112a5565b6109d2565b3480156103fb57600080fd5b5061015661040a3660046112bd565b6109e4565b61015661041d366004611154565b610a1e565b34801561042e57600080fd5b5061016d610b4b565b604051610443906113f1565b604051809103902061045781610355610b66565b8061046857506104688160006108a5565b61048d5760405162461bcd60e51b815260040161048490611667565b60405180910390fd5b600061049d8989898989896106ea565b90506104a98184610b6a565b6000816000805160206119af8339815191528b8b8b8b8b8a6040516104d396959493929190611469565b60405180910390a3505050505050505050565b6040516104f29061140a565b604051809103902081565b6040516104f2906113d2565b6040516105159061140a565b604051809103902061052981610355610b66565b8061053a575061053a8160006108a5565b6105565760405162461bcd60e51b815260040161048490611667565b60006105668888888888886106ea565b905061057184610bd7565b6105808160008a8a8a8a610c07565b61058981610ccf565b5050505050505050565b60008061059f836109d2565b90506001811180156105b15750428111155b9392505050565b60009081526020819052604090206002015490565b600060016105da836109d2565b1492915050565b6000828152602081905260409020600201546105ff90610355610b66565b61061b5760405162461bcd60e51b8152600401610484906115e7565b6106258282610d08565b5050565b600080610635836109d2565b1192915050565b610644610b66565b6001600160a01b0316816001600160a01b0316146106745760405162461bcd60e51b8152600401610484906118a3565b6106258282610d77565b60006001610635836109d2565b3330146106aa5760405162461bcd60e51b815260040161048490611858565b7f11c24f4ead16507c69ac467fbd5e4eed5fb5c699626d2cc6d66421df253886d5600254826040516106dd929190611945565b60405180910390a1600255565b600086868686868660405160200161070796959493929190611469565b6040516020818303038152906040528051906020012090509695505050505050565b604051610735906113f1565b604051809103902061074981610355610b66565b8061075a575061075a8160006108a5565b6107765760405162461bcd60e51b815260040161048490611667565b8887146107955760405162461bcd60e51b815260040161048490611624565b8885146107b45760405162461bcd60e51b815260040161048490611624565b60006107c68b8b8b8b8b8b8b8b6108c8565b90506107d28184610b6a565b60005b8a8110156108645780826000805160206119af8339815191528e8e858181106107fa57fe5b905060200201602081019061080f919061105b565b8d8d8681811061081b57fe5b905060200201358c8c8781811061082e57fe5b90506020028101906108409190611953565b8c8b60405161085496959493929190611469565b60405180910390a36001016107d5565b505050505050505050505050565b6040516104f2906113f1565b600082815260208190526040812061089c908363ffffffff610de616565b90505b92915050565b600082815260208190526040812061089c908363ffffffff610df216565b600081565b600088888888888888886040516020016108e99897969594939291906114a6565b60405160208183030381529060405280519060200120905098975050505050505050565b604051610919906113f1565b604051809103902061092d81610355610b66565b8061093e575061093e8160006108a5565b61095a5760405162461bcd60e51b815260040161048490611667565b6109638261067e565b61097f5760405162461bcd60e51b815260040161048490611807565b6000828152600160205260408082208290555183917fbaa1eb22f2a492ba1a5fea61b8df4d27c6c8b5f3971e63bb58fa14ff72eedb7091a25050565b600081815260208190526040812061089f90610e07565b60009081526001602052604090205490565b600082815260208190526040902060020154610a0290610355610b66565b6106745760405162461bcd60e51b8152600401610484906116ea565b604051610a2a9061140a565b6040518091039020610a3e81610355610b66565b80610a4f5750610a4f8160006108a5565b610a6b5760405162461bcd60e51b815260040161048490611667565b878614610a8a5760405162461bcd60e51b815260040161048490611624565b878414610aa95760405162461bcd60e51b815260040161048490611624565b6000610abb8a8a8a8a8a8a8a8a6108c8565b9050610ac684610bd7565b60005b89811015610b3557610b2d82828d8d85818110610ae257fe5b9050602002016020810190610af7919061105b565b8c8c86818110610b0357fe5b905060200201358b8b87818110610b1657fe5b9050602002810190610b289190611953565b610c07565b600101610ac9565b50610b3f81610ccf565b50505050505050505050565b60025490565b600061089c836001600160a01b038416610e12565b3390565b610b7382610629565b15610b905760405162461bcd60e51b81526004016104849061176e565b610b98610b4b565b811015610bb75760405162461bcd60e51b815260040161048490611728565b610bc14282610e5c565b6000928352600160205260409092209190915550565b801580610be85750610be8816105cd565b610c045760405162461bcd60e51b8152600401610484906115a1565b50565b6000846001600160a01b0316848484604051610c249291906113c2565b60006040518083038185875af1925050503d8060008114610c61576040519150601f19603f3d011682016040523d82523d6000602084013e610c66565b606091505b5050905080610c875760405162461bcd60e51b8152600401610484906118f2565b85877fc2617efa69bab66782fa219543714338489c4e9e178271560a91b82c3f612b5887878787604051610cbe9493929190611437565b60405180910390a350505050505050565b610cd881610593565b610cf45760405162461bcd60e51b8152600401610484906117bd565b600090815260016020819052604090912055565b6000828152602081905260409020610d26908263ffffffff610b5116565b1561062557610d33610b66565b6001600160a01b0316816001600160a01b0316837f2f8788117e7eff1d82e926ec794901d17c78024a50270940304540a733656f0d60405160405180910390a45050565b6000828152602081905260409020610d95908263ffffffff610e8116565b1561062557610da2610b66565b6001600160a01b0316816001600160a01b0316837ff6391f5c32d9c69d2a47ea670b442974b53935d1edc7fd64eb21e047a839171b60405160405180910390a45050565b600061089c8383610e96565b600061089c836001600160a01b038416610edb565b600061089f82610ef3565b6000610e1e8383610edb565b610e545750815460018181018455600084815260208082209093018490558454848252828601909352604090209190915561089f565b50600061089f565b60008282018381101561089c5760405162461bcd60e51b8152600401610484906116b5565b600061089c836001600160a01b038416610ef7565b81546000908210610eb95760405162461bcd60e51b81526004016104849061155f565b826000018281548110610ec857fe5b9060005260206000200154905092915050565b60009081526001919091016020526040902054151590565b5490565b60008181526001830160205260408120548015610fb35783546000198083019190810190600090879083908110610f2a57fe5b9060005260206000200154905080876000018481548110610f4757fe5b600091825260208083209091019290925582815260018981019092526040902090840190558654879080610f7757fe5b6001900381819060005260206000200160009055905586600101600087815260200190815260200160002060009055600194505050505061089f565b600091505061089f565b80356001600160a01b038116811461089f57600080fd5b60008083601f840112610fe5578182fd5b5081356001600160401b03811115610ffb578182fd5b602083019150836020808302850101111561101557600080fd5b9250929050565b60008083601f84011261102d578182fd5b5081356001600160401b03811115611043578182fd5b60208301915083602082850101111561101557600080fd5b60006020828403121561106c578081fd5b61089c8383610fbd565b60008060008060008060a0878903121561108e578182fd5b863561109981611999565b95506020870135945060408701356001600160401b038111156110ba578283fd5b6110c689828a0161101c565b979a9699509760608101359660809091013595509350505050565b600080600080600080600060c0888a0312156110fb578081fd5b6111058989610fbd565b96506020880135955060408801356001600160401b03811115611126578182fd5b6111328a828b0161101c565b989b979a50986060810135976080820135975060a09091013595509350505050565b60008060008060008060008060a0898b03121561116f578081fd5b88356001600160401b0380821115611185578283fd5b6111918c838d01610fd4565b909a50985060208b01359150808211156111a9578283fd5b6111b58c838d01610fd4565b909850965060408b01359150808211156111cd578283fd5b506111da8b828c01610fd4565b999c989b509699959896976060870135966080013595509350505050565b600080600080600080600080600060c08a8c031215611215578081fd5b89356001600160401b038082111561122b578283fd5b6112378d838e01610fd4565b909b50995060208c013591508082111561124f578283fd5b61125b8d838e01610fd4565b909950975060408c0135915080821115611273578283fd5b506112808c828d01610fd4565b9a9d999c50979a969997986060880135976080810135975060a0013595509350505050565b6000602082840312156112b6578081fd5b5035919050565b600080604083850312156112cf578182fd5b8235915060208301356112e181611999565b809150509250929050565b600080604083850312156112fe578182fd5b50508035926020909101359150565b818352602080840193600091908185020181018584845b8781101561138b5782840389528135601e19883603018112611344578687fd5b87018035906001600160401b0382111561135c578788fd5b81360389131561136a578788fd5b6113778683898401611398565b9a87019a9550505090840190600101611324565b5091979650505050505050565b60008284528282602086013780602084860101526020601f19601f85011685010190509392505050565b6000828483379101908152919050565b7254494d454c4f434b5f41444d494e5f524f4c4560681b815260130190565b6c50524f504f5345525f524f4c4560981b8152600d0190565b6c4558454355544f525f524f4c4560981b8152600d0190565b6001600160a01b0391909116815260200190565b600060018060a01b03861682528460208301526060604083015261145f606083018486611398565b9695505050505050565b600060018060a01b038816825286602083015260a0604083015261149160a083018688611398565b60608301949094525060800152949350505050565b60a0808252810188905260008960c08301825b8b8110156114e95760208381016001600160a01b036114d88287610fbd565b1684529350909101906001016114b9565b5083810360208501528881526001600160fb1b03891115611508578283fd5b602089029150818a60208301370160208181018381529184900301604084015261153381878961130d565b60608401959095525050608001529695505050505050565b901515815260200190565b90815260200190565b60208082526022908201527f456e756d657261626c655365743a20696e646578206f7574206f6620626f756e604082015261647360f01b606082015260800190565b60208082526026908201527f54696d656c6f636b436f6e74726f6c6c65723a206d697373696e6720646570656040820152656e64656e637960d01b606082015260800190565b6020808252602f908201526000805160206119cf83398151915260408201526e0818591b5a5b881d1bc819dc985b9d608a1b606082015260800190565b60208082526023908201527f54696d656c6f636b436f6e74726f6c6c65723a206c656e677468206d69736d616040820152620e8c6d60eb1b606082015260800190565b6020808252602e908201527f54696d656c6f636b436f6e74726f6c6c65723a2073656e64657220726571756960408201526d3932b9903832b936b4b9b9b4b7b760911b606082015260800190565b6020808252601b908201527a536166654d6174683a206164646974696f6e206f766572666c6f7760281b604082015260600190565b60208082526030908201526000805160206119cf83398151915260408201526f2061646d696e20746f207265766f6b6560801b606082015260800190565b60208082526026908201527f54696d656c6f636b436f6e74726f6c6c65723a20696e73756666696369656e746040820152652064656c617960d01b606082015260800190565b6020808252602f908201527f54696d656c6f636b436f6e74726f6c6c65723a206f7065726174696f6e20616c60408201526e1c9958591e481cd8da19591d5b1959608a1b606082015260800190565b6020808252602a908201527f54696d656c6f636b436f6e74726f6c6c65723a206f7065726174696f6e206973604082015269206e6f7420726561647960b01b606082015260800190565b60208082526031908201527f54696d656c6f636b436f6e74726f6c6c65723a206f7065726174696f6e2063616040820152701b9b9bdd0818994818d85b98d95b1b1959607a1b606082015260800190565b6020808252602b908201527f54696d656c6f636b436f6e74726f6c6c65723a2063616c6c6572206d7573742060408201526a62652074696d656c6f636b60a81b606082015260800190565b6020808252602f908201527f416363657373436f6e74726f6c3a2063616e206f6e6c792072656e6f756e636560408201526e103937b632b9903337b91039b2b63360891b606082015260800190565b60208082526033908201527f54696d656c6f636b436f6e74726f6c6c65723a20756e6465726c79696e6720746040820152721c985b9cd858dd1a5bdb881c995d995c9d1959606a1b606082015260800190565b918252602082015260400190565b6000808335601e19843603018112611969578283fd5b838101803592506001600160401b03831115611983578384fd5b6020019250503681900382131561101557600080fd5b6001600160a01b0381168114610c0457600080fdfe4cf4410cc57040e44862ef0f45f3dd5a5e02db8eb8add648d4b0e236f1d07dca416363657373436f6e74726f6c3a2073656e646572206d75737420626520616ea264697066735822122031d7f50c7fa6554eb68fed42a6c748991b8d127c274a8e9e608909f942a85d5664736f6c634300060b0033",
  "linkReferences": {},
  "deployedLinkReferences": {}
}